:020000040800F2
:10000000D8C10020DD010008651000086710000855
:10001000691000086B1000086D1000080000000057
:100020000000000000000000000000004501000882
:100030006F1000080000000089010008711000081E
:10004000F7010008F7010008F7010008F7010008B0
:10005000F7010008F7010008F7010008F7010008A0
:10006000F7010008F7010008F7010008F701000890
:10007000F7010008F7010008F7010008F701000880
:10008000F7010008F7010008F7010008F701000870
:10009000F7010008F7010008F7010008F701000860
:1000A000F7010008F7010008F7010008F701000850
:1000B000F7010008F7010008F7010008F701000840
:1000C000F7010008F7010008F7010008F701000830
:1000D000F7010008F7010008F7010008F701000820
:1000E000F7010008F7010008F7010008F701000810
:1000F000F7010008F7010008F7010008F701000800
:10010000F7010008F7010008F7010008F7010008EF
:10011000F7010008F7010008F7010008F7010008DF
:10012000F7010008F7010008F7010008F7010008CF
:10013000DFF80CD006F0BAF800480047690F000855
:10014000D8C10020224B19680868B0E8F00F80F38E
:100150000988BFF36F8F4FF0000080F311884EF0D5
:100160000D0E70470000000006480068006880F32C
:10017000088862B661B6BFF34F8FBFF36F8F00DFA1
:1001800000BF00BF08ED00E0EFF30980BFF36F8F01
:100190000F4B1A6820E9F00F106008B54FF05000BF
:1001A00080F31188BFF34F8FBFF36F8F02F0FDFB19
:1001B0004FF0000080F31188BDE808401968086816
:1001C000B0E8F00F80F30988BFF36F8F704700BF6E
:1001D00038000020EFF30580704700000648804794
:1001E00006480047FEE7FEE7FEE7FEE7FEE7FEE71C
:1001F000FEE7FEE7FEE7FEE7A10200083101000886
:100200000CB500224C4800920192016841F4803103
:1002100001604FF4A063016801F40031019100997D
:10022000491C0091019911B900999942F3D10168D3
:10023000890333D50121019140490A6842F0100237
:100240000A600A6822F003020A600A6842F00202A9
:100250000A604168416041684160416841F48061E1
:100260004160416821F47C114160416841F4E8112A
:100270004160016841F08071016001688901FCD52D
:10028000416821F003014160416841F00201416091
:100290004168C1F381010229FAD10CBD01920CBD64
:1002A000254810B5016841F0010101604168244A08
:1002B000114041600168234A11400160016821F446
:1002C00080210160416821F4FE0141604FF41F016B
:1002D0008160FFF795FF1C494FF00060086010BD7A
:1002E000154A10B55068194B10F00C01184803D08E
:1002F000042901D0082901D0036012E05168536835
:1003000001F470114FF0020413F4803F04EB9141AB
:1003100002D053689B0301D50E4B00E00B4B5943B1
:10032000016051680A4AC1F30311121D515C026851
:10033000CA40026010BD00000010024000200240D0
:100340000000FFF8FFFFF6FE08ED00E000127A0063
:100350000000002000093D002849084328490860A2
:10036000704730B50F23C27801780125F2B1244AD5
:10037000126801F1E02102F4E062C2F5E062120AC3
:10038000C2F10404D3404278A24084781C40144354
:10039000220181F80024007800F01F018D404009FF
:1003A000800000F1E020C0F8005130BD01F01F00D6
:1003B00085404809800000F1E020C0F8805130BD40
:1003C000104A114001430E48001F016070470C4A5B
:1003D000121D0029116801D0014300E08143116022
:1003E00070474FF0E0210428086903D020F0040092
:1003F0000861704740F00400FAE700000000FA05C9
:100400000CED00E080FFFF1F8F4910B5884206D138
:100410000121042000F049FA002104203BE08B492F
:10042000884206D10121082000F03FFA002108206F
:1004300031E08749884206D10121102000F035FAC9
:100440000021102027E08349884206D10121202085
:1004500000F02BFA002120201DE07F49884206D1C0
:100460000121402000F021FA0021402013E07B49C7
:10047000884206D10121802000F017FA0021802057
:1004800009E0774988420AD184150121204600F00D
:100490000CFA00212046BDE8104000F006BA10BD5D
:1004A00010B50121084600F000FA0021BDE8104017
:1004B000012000F0FAB9F0B5CC78002204F00F0367
:1004C000E40601D58C7823430C784FF00F0C14F020
:1004D000FF0F4FF0010E1BD005680E880EFA02F4D4
:1004E0002640A64210D196000CFA06F725EA070727
:1004F00003FA06F5CE783D43282E02D0482E02D0CE
:1005000002E0446100E00461521C082AE5D3056062
:100510000A88FF2A1CD94468002202F108060EFA54
:1005200006F50E882E40AE420ED196000CFA06F764
:10053000BC4303FA06F7CE783C43282E00D1456130
:10054000CE78482E00D10561521C082AE5D34460BC
:10055000F0BD4FF6FF710180022181700421C1704E
:1005600070470246002092680A4200D0012070477E
:10057000806880B2704702460020D2680A4200D0EC
:1005800001207047C06880B27047016170474161C7
:1005900070470AB10161704741617047C16070479F
:1005A00041F4803282618161826181698069704732
:1005B0002C4B10B51A684FF68074224042EA0010A6
:1005C0000843186010BD2849C8617047F0B5254C34
:1005D000002801DAE36900E06368450D2E0185B269
:1005E000C0F30157B540C0F30342032F05D0C60244
:1005F0000AD503269640B34307E023F07062636890
:1006000023F07063636002E0AB4343F0706201B1BA
:100610002A43002801DAE261F0BD6260F0BD10B546
:100620008A0721F003040F49120F21440F238C681D
:1006300093409C438C608B68904003438B6010BD5B
:100640000949C1F8DC00704700080140000C014076
:10065000001001400014014000180140001C01403E
:10066000002001400000014000002042A548016830
:1006700041F0010101604168A34A114041600168F5
:10068000A24A11400160016821F4802101604168A3
:1006900021F4FE0141604FF41F01816070479949C8
:1006A0000A6822F480320A600A6822F480220A6012
:1006B000B0F5803F07D0B0F5802F03D1086840F433
:1006C000A02008607047086840F48030F9E70346CE
:1006D000002059098B4A01290AD002290AD0516AFF
:1006E00003F01F02012393400B4200D0012070470A
:1006F0001168F5E7116AF3E718B500204FF4A0641C
:1007000000903120FFF7E3FF0099491C0091A142BE
:1007100001D00028F5D03120FFF7D9FF002800D004
:10072000012018BD774A116821F0F80141EAC000A4
:1007300010607047764908607047724B5A680843EA
:1007400022F47C1210435860704771490866704764
:100750006C4A516821F003010143516070476948B8
:10076000406800F00C007047664A516821F0F001C3
:10077000014351607047634A516821F4E0610143CD
:10078000516070475F4A516821F4605141EAC000EE
:10079000506070475B4A0029517A01D0014300E064
:1007A0008143517270475A49C1F8D8007047554A81
:1007B000516821F440410143516070475149002282
:1007C00081F8202081F82020012802D0042802D1BD
:1007D000052081F8200070474E490860704749495C
:1007E0000A6A02430A6270474A49443908607047FE
:1007F00030B5444A5168484B11F00C0103D004292C
:1008000001D0082901D0036012E05168536801F457
:1008100070114FF0020413F4803F04EB914102D0B9
:1008200053689B0301D53D4B00E03B4B59430160AE
:1008300051680F2303EA1111394B5C5C0168E140F8
:1008400041605468072505EA14241C5D21FA04F46C
:100850008460546805EAD4241B5DD940C1605268A5
:10086000032303EA92322E4B1B1F9A5CB1FBF2F179
:10087000016130BD234A0029516901D0014300E0E4
:100880008143516170471F4A0029916901D001439A
:1008900000E08143916170471A4A0029D16901D073
:1008A000014300E08143D1617047164A0029D168B5
:1008B00001D0014300E08143D1607047114A002913
:1008C000116901D0014300E0814311617047114972
:1008D0004039086070470E49C86470470949C871BB
:1008E00070470848416A41F0807141627047054A8B
:1008F0000146002092680A4200D001207047014959
:1009000088727047001002400000FFF8FFFFF6FEFB
:10091000000042428004424200127A0000093D0079
:1009200018000020994910B588420AD18414012189
:100930002046FFF7BAFF2046BDE810400021FFF730
:10094000B4BF9349884202D10121041404E09149C3
:1009500088420AD10121C4132046FFF7AFFF204689
:10096000BDE810400021FFF7A9BF10BD30B50288D7
:100970004C8802F441530A88CD8822438C882C434A
:1009800022430C8922434C8922438C892243CC89FF
:1009900022431A430280828B22F400628283098AF6
:1009A000018230BDF0B505460C4602200021AA8B1D
:1009B00085B001264FF240031A40AA832884AF8BEA
:1009C000A268022A21D0A08800B102266846FFF75B
:1009D0000FFFE1880098B1F5007F2CD07101B0FBCA
:1009E000F1F000EB8000A1684000B0FBF1F0401D89
:1009F00080B20A21B0FBF1F000F00101401A4FF67D
:100A0000FF72C0F34F0002EA0121821EFE2A01D3C9
:100A100002200021E288084302432A84208861885A
:100A2000A2890843A18811430843384340F4006079
:100A3000A88305B0F0BD000AD3E700210180418002
:100A40008180C180018141818181C1810721018231
:100A500070470021018041808180C1800222826034
:100A6000818170470029018802D041F0400101E0F6
:100A700021F04001018070470029818B02D041F4B0
:100A8000806101E021F480618183704709090123BD
:100A90008B40002A828899B201D00A4300E08A4341
:100AA00082807047002A828801D00A4300E08A438E
:100AB000828070478181704780897047A1F57E42AE
:100AC0000188FF3A02D041F4807101E021F4807185
:100AD000018070470029818802D041F0040101E0C3
:100AE00021F0040181807047028822F400620280B4
:100AF00002880A4302807047018841F480510180D6
:100B000070470029018802D041F4005101E021F42E
:100B1000005101807047012901D0008B7047808A05
:100B20007047008A7047B1F5804F018803D021F4E7
:100B300080410180704741F48041FAE7024600207D
:100B400012890A4200D001207047C94301817047D1
:100B500030B501F00F030125024605FA03F4002029
:100B6000A3B2090905FA01F49188A4B212892140BF
:100B70001A4202D0002900D0012030BD01F00F023E
:100B800001219140C94301817047000000300140BC
:100B900000380040003C0040C44910B588420AD1EA
:100BA00001218C032046FFF780FE2046BDE810405F
:100BB0000021FFF77ABEBE49884202D101214C04D0
:100BC00010E0BC49884202D101218C040AE0BA49F4
:100BD000884202D10121CC0404E0B84988420AD1FC
:100BE00001210C052046FFF769FE2046BDE81040B4
:100BF0000021FFF763BE10BD30B50446008A85B002
:100C00000D464CF6FF710840E98801432182A08916
:100C10004EF6F3110840A9882A8911436A890243D4
:100C20001143A181A08A4FF6FF410840A9890143E1
:100C3000A1826846FFF7DCFD9C48844201D10398FD
:100C400000E00298A189090400EBC00101EB00104B
:100C5000296801D5490000E08900B0FBF1F0642269
:100C6000B0FBF2F109010B096FF018056B4300EBC3
:100C70008300A3891D044FF0320306D503EBC000A7
:100C8000B0FBF2F000F0070005E003EB0010B0FB52
:100C9000F2F000F00F000843208105B030BD4FF4A2
:100CA0001651016000218180C18001810C224281A6
:100CB0008181704710B5028A4FF2FF031A400B88FA
:100CC0004C8823438C88C9880C43234313430382F5
:100CD00010BD0021018041808180C18070470029C2
:100CE000818902D041F4005101E021F40051818159
:100CF000704710B5C1F3421301F01F040121A14058
:100D0000012B07D0022B07D01430002A026805D02F
:100D10000A4304E00C30F8E71030F6E78A4302603B
:100D200010BD002A828A01D00A4300E08A438282F1
:100D30007047028A22F00F020282028A0A4302826C
:100D40007047828922F40062828182890A4382810B
:100D500070470029818902D041F0020101E021F0B1
:100D6000020181817047028A22F020020282028AF7
:100D70000A43028270470029018A02D041F480416F
:100D800001E021F4804101827047C1F308018180B4
:100D900070478088C0F308007047818941F00101E5
:100DA00081817047028BD2B20283028B42EA012119
:100DB00001837047028B02F47F420283028B0A4355
:100DC000028370470029818A02D041F0200101E0AE
:100DD00021F02001818270470029818A02D041F0F0
:100DE000100101E021F01001818270470029818A01
:100DF00002D041F0080101E021F008018182704732
:100E00000029818902D041F4004101E0C1F30E01C3
:100E1000818170470029818A02D041F4006101E09C
:100E200021F4006181827047828A22F0040282826A
:100E3000828A0A43828270470029818A02D041F067
:100E4000020101E021F00201818270470246002088
:100E500012880A4200D001207047C94301807047C0
:100E600070B501F01F0501260024C1F3421306FAF4
:100E700005F2012B0FD0022B0FD0838A4FEA1121EC
:100E80000088134206FA01F600EA060001D000B11C
:100E90000124204670BD8389F0E7038AEEE70A0A41
:100EA00001219140C9430180704700000038014092
:100EB0000044004000480040004C0040005000400A
:100EC0004FA0B8B00FC80DF1C80C8CE80F00C821B6
:100ED000684605F0CAF913224DA1534803F0C4FF38
:100EE000524D534F504C6E140121284600F0D5F955
:100EF000012806D03146384600F0CFF9012807D046
:100F000018E036AB0F2232A9474804F0FEF811E092
:100F10000021454804F026FA37AB69464248E268AA
:100F200004F044F8404804F00FFA012241A10020E7
:100F300003F075FF0A2001F06CFCD5E71CB502F048
:100F400087FE3D4902200023CDE9000142023BA17A
:100F5000AFF2930001F077FA401C02D0002001F0BC
:100F6000B9FA02F08FFEFEE71CB54FF44070FFF7B0
:100F7000F3F900F087F800F077F900F0B3F800F02B
:100F8000A1F9012230A1314803F049FF0D2811D108
:100F9000002211462CA004F08EFD27490122091FD2
:100FA000087029A1002003F03AFF012226A127485A
:100FB00003F035FF20490120091D0023CDE9000180
:100FC000420223A1AFF28B0001F03DFA401C02D097
:100FD00001F00CFEFEE74FF0FF301CBD1F4B03601D
:100FE00003F1540008608020106070471C4B0360C0
:100FF00003F1540008604FF48070106070470000E7
:10100000C4E3BAC3CBAECBAECBAECBAE210A0000AD
:10101000313ABBD462636465666667676767686711
:101020006867682E747874009417002000080140E7
:1010300000100140313A00002C000020526561642C
:10104000466C617368000000313A000064070020BC
:1010500053746172745461736B000000BC00002013
:10106000100300207047FEE7FEE7FEE7FEE770474B
:1010700010B501F035FF012803D0BDE8104002F0A3
:1010800012BE10BD38B501210820FFF7FCFB20205F
:10109000ADF8000010208DF803000320104C8DF8EF
:1010A000020069462046FFF706FA0121ADF800105C
:1010B00069462046FFF7FFF90221ADF800106946A6
:1010C0002046FFF7F8F920212046FFF75EFA0121BC
:1010D0002046FFF75AFA02212046FFF756FA38BD9C
:1010E000000C014010B586B001210420FFF7CBFBB6
:1010F00001218803FFF7C7FB4FF40070ADF8100023
:1011000018208DF813000320554C8DF8120004A907
:101110002046FFF7D0F92115ADF8101004218DF805
:10112000131004A92046FFF7C6F94FF4E1300090F0
:101130000020ADF80400ADF80600ADF80800ADF8E9
:101140000C000C20474CADF80A0069462046FFF71A
:1011500053FD4FF4A060FFF7FFF825208DF8140031
:1011600001218DF815108DF816108DF8171005A8AF
:10117000FFF7F7F8012240F225512046FFF7B9FDAD
:1011800001212046FFF7ABFD06B010BD10B50446A7
:10119000FFF7FBFD80212046FFF758FE0028F9D01D
:1011A00010BD2DE9F04115460E460746002405E026
:1011B000315D3846FFF7EAFF641CE4B2AC42F7D376
:1011C00040213846FFF742FE0028F9D0BDE8F08103
:1011D00070B50D46064600243046295DFFF7D6FF60
:1011E000641C285D0028F7D140213046FFF72EFE11
:1011F0000028F9D070BD70B50446080ACDB201468A
:101200002046FFF7C2FD80212046FFF71FFE002881
:10121000F9D029462046FFF7B8FD80212046FFF788
:1012200015FE0028F9D070BD70B50E4D0446C1B250
:101230002846FFF7AAFD80212846FFF707FE002871
:10124000F9D0204670BD10B5064C20212046FFF78E
:10125000FDFD0028F9D02046BDE81040FFF799BDFC
:10126000000801400038014038B501211420FFF783
:101270000AFB0120ADF8000004248DF80340694604
:101280000E48FFF718F9E002ADF800008DF80340B2
:1012900069460B48FFF70FF938BD70B50C46054697
:1012A000FFF75FF9012801D0002070BD21462846D4
:1012B000FFF757F90128F9D0012070BD000801405F
:1012C0000010014070B5012186B00803FFF7DBFA7A
:1012D0000121D420FFF7D7FA0124ADF814400320F0
:1012E0008DF816001020FE4D8DF8170005A9284630
:1012F000FFF7E1F82020ADF814001820F94E8DF822
:10130000170005A93046FFF7D6F84021ADF81410B4
:1013100005A93046FFF7CFF88020ADF8140005A9E5
:101320003046FFF7C8F801212846FFF72EF90020C4
:10133000ADF800004FF48271ADF80210ADF8040072
:101340000221ADF80610ADF808400902ADF80A1008
:101350000821ADF80C10ADF80E000720E24CADF8F6
:10136000100069462046FFF701FB01212046FFF7E8
:1013700079FB06B070BD2DE9F041DC4C4FF480558F
:1013800007462560D84E03E02068411E216010D337
:1013900002213046FFF7D2FB0028F5D0394630460F
:1013A000FFF788FB256009E02168481E206005D210
:1013B000012000F0D5F9C0B2BDE8F081012130462E
:1013C000FFF7BCFB0028EFD03046FFF775FBF2E7D4
:1013D00010B5C34C01212046FFF7D9F80520FFF7CF
:1013E000CAFFFF20FFF7C7FFC007FAD12046BDE8BC
:1013F00010400121FFF7C9B810B5B94C01212046B2
:10140000FFF7C5F80620FFF7B6FF2046BDE81040FD
:101410000121FFF7BAB870B50446FFF7EDFFFFF7FB
:10142000D7FFAF4D01212846FFF7B1F82020FFF785
:10143000A2FFC4F30740FFF79EFFC4F30720FFF7A6
:101440009AFFE0B2FFF797FF01212846FFF79DF8CA
:10145000BDE87040BCE710B5FFF7CEFFA04C0121FE
:101460002046FFF794F8C720FFF785FF01212046AB
:10147000FFF78BF8BDE81040AAE72DE9F0411446CC
:101480000F460546FFF7B8FF954E01213046FFF79E
:101490007EF80220FFF76FFFC7F30740FFF76BFFEF
:1014A000C7F30720FFF767FFF8B2FFF764FFB01537
:1014B000844208D904468EA004F00AFF03E028788D
:1014C000FFF759FF6D1C641EA4B2F8D2012130460B
:1014D000FFF75BF8BDE8F0417AE72DE9F0470646F3
:1014E0000D4611F0FF00C0F10001CFB24FEA122407
:1014F00002F0FF094FF4807A13D0E8B24042C0B244
:1015000005EB00080CB3D01B80B2040A00F0FF0901
:101510003A4629463046FFF7B0FF3E444546574617
:101520002CE06CB15746641EE4B20CD33A4629460F
:101530003046FFF7A2FF05F5807506F58076F2E7E5
:10154000294630460EE04A46FAE7B945F8D9A9EBF4
:101550000700C4B23A4629463046FFF78EFF41469F
:10156000F0192246BDE8F04787E73A46294630465B
:10157000FFF783FF05F5807506F58076641EE4B2FB
:10158000F3D2B9F1000001D00246D9E7BDE8F087F7
:101590002DE9F041524E0F460446154601213046D2
:1015A000FEF7F5FF0320FFF7E6FEC7F30740FFF75E
:1015B000E2FEC7F30720FFF7DEFEF8B2FFF7DBFE1F
:1015C00004E0FF20FFF7D7FE04F8010B6D1EADB25B
:1015D000F7D23046BDE8F0410121FEF7D6BF2DE934
:1015E000F0413F4C01212046FEF7D1FF9F20FFF73D
:1015F000C2FEFF20FFF7BFFE0746FF20FFF7BBFE3E
:101600000646FF20FFF7B7FE054601212046FEF7FC
:10161000BCFF380440EA06202843CDE670B5304CC4
:1016200001212046FEF7B3FFAB20FFF7A4FEFF2009
:10163000FFF7A1FEFF20FFF79EFEFF20FFF79BFEB6
:10164000FF20FFF798FE054601212046FEF79DFF8B
:10165000284670BD10B5044601212148FEF797FFCA
:101660000320FFF788FEC4F30740FFF784FEC4F3AE
:101670000720FFF780FEE0B2BDE810407BE6FF20C8
:1016800079E62DE9F041194C4FF480550746256065
:10169000154E05E02068411E216001D2022010E0B5
:1016A00002213046FFF74AFA0028F3D03946304687
:1016B000FFF700FA256008E02168481E206004D288
:1016C0000320BDE8F04100F04BB801213046FFF7A0
:1016D00035FA0028F0D03046BDE8F041FFF7ECB90C
:1016E000001001400008014000300140340000209B
:1016F0003C3C2D464C4153482D4552524F522D3EB5
:101700003E205350495F464C4153485F50616765E6
:10171000577269746520746F6F206C617267652100
:101720000A00000010B5124C01212046FEF72FFFE1
:10173000B920FFF720FE2046BDE810400121FEF74A
:1017400024BF10B50A4C01212046FEF720FFAB2034
:10175000FFF711FE2046BDE810400121FEF715BF3E
:1017600010B5014603A004F0B3FD002010BD000039
:10177000001001403C3C2D464C4153482D455252EF
:101780004F522D3E3E2053504920B5C8B4FDB3AC56
:10179000CAB1216572726F72436F6465203D202566
:1017A000640A000000F108014FF0FF32C0E90112A5
:1017B000C160016100210160704700210161704733
:1017C00042684A6093688B609368596091600861D1
:1017D0000168491C0160704730B50C68621C02D07A
:1017E00000F1080202E0026904E01A4653681D682D
:1017F000A542FAD953684B6099608A6051600861CC
:101800000168491C016030BDD0E9013201699A606C
:10181000D0E901235A604A68824201D182684A6055
:10182000002202610868401E0860704770B50D46CE
:10183000040005D140F21B12F2A1F9A004F048FD0A
:1018400002F006FAD4E90F20216802FB0011616062
:101850000021A1632168A1600A46D4E90F01401E5E
:1018600000FB0121E16021464FF0FF3001F8440FF9
:10187000487004F110004DB1FFF794FF04F124000B
:10188000FFF790FF02F0FEF9012070BD21690029E9
:10189000F8D001F06CFA0028F4D0E5494FF0805000
:1018A0000860BFF34F8FBFF36F8FEBE72DE9F8436D
:1018B0001C46DDF8208016460D46070005D14FF482
:1018C000A972D0A1D6A004F003FD2CB94FF4AB72DD
:1018D000CCA1D3A004F0FCFC1EB14DB94FF4AD7205
:1018E00002E02DB140F25B12C6A1CDA004F0F0FCE5
:1018F000482000904CB1012084F84600434632460F
:1019000029463846009400F09EFC2046BDE8F88346
:10191000F8B517460E46050005D14FF4C472B9A1BB
:10192000BFA004F0D5FC9EB105FB06F0483002F0E4
:1019300039F804000AD0002084F8460004F1480277
:101940003B4631462846009400F07DFC2046F8BD19
:101950000020EBE72DE9F041044602F079F994F913
:10196000455004F1240609E0606A48B1304601F0B0
:10197000FEF908B101F0ADFA6D1E6DB2002DF3DC79
:101980004FF0FF3684F8456002F07CF902F060F910
:1019900094F9445004F1100709E0206948B1384631
:1019A00001F0E5F908B101F094FA6D1E6DB2002D59
:1019B000F3DC84F84460BDE8F04102F063B92DE93E
:1019C000F041856B174604460026026C82B1C7B110
:1019D000E06804F031FCE168206C091AE1602268DB
:1019E000914202D26168081AE060022F16D017E017
:1019F0002068A8B9606801F0CCFA06460020606053
:101A00000EE0A06804F018FC216CA0680844A060F7
:101A10006168884204D32068A06001E005B16D1EB2
:101A20006D1CA5633046BDE8F0812DE9FF4F83B002
:101A30001F468B4604004FF0000605D140F2D92224
:101A400070A177A004F044FCBBF1000F07D1206C1B
:101A500028B140F2DA226BA171A004F039FC022F08
:101A600008D1E06B012805D040F2DB2265A16CA013
:101A700004F02EFC01F034FA38B9059828B140F290
:101A8000DE2260A166A004F023FC4FF0000A4FF0B4
:101A90008058DFF89C9102F0DBF8A06BE16B884284
:101AA00005D3022F03D00598C8B1DEB11EE03A4637
:101AB00059462046FFF783FF616A19B104F12400FB
:101AC00001F055F928B1C9F80080BFF34F8FBFF37B
:101AD0006F8F02F0D7F8012007B0BDE8F08F02F059
:101AE000D1F821E0684601F0B0F9012602F0CAF809
:101AF00000F045FE02F0ACF894F94400401C01D11E
:101B000084F844A094F94500401C01D184F845A014
:101B100002F0B8F805A9684601F0A8F930B12046EE
:101B2000FFF718FF00F080FD0020D5E702F090F8E5
:101B3000A06BE16B884201D1012500E0002502F095
:101B4000A1F895B104F11000059901F0B7F820460D
:101B5000FFF700FF00F068FD00289CD1C9F8008065
:101B6000BFF34F8FBFF36F8F95E72046FFF7F2FE6D
:101B700000F05AFD8FE710B5024600210120FFF763
:101B8000C7FE044600F06AFB204610BD38B50B4680
:101B90000022009011460120FFF788FE044600F065
:101BA0005DFB204638BD10B5040005D140F241224E
:101BB00014A11BA004F08CFB01F08FF9616888422E
:101BC0000BD1E068401EE06005D100231A4619469B
:101BD0002046FFF72AFF012010BD002010BD30B4C1
:101BE000026C0B46002A0BD0C1681144C1604468E6
:101BF000A14201D30168C16030BC184604F01CBB8F
:101C000030BC70472E2E5C2E2E5C46726565525499
:101C10004F535C7372635C71756575652E6300006C
:101C20004572726F723A25732C25640D0A0000000C
:101C300004ED00E02DE9FF4F83B09B468A46040087
:101C40004FF0000607D140F2DC42AFF24801AFF29C
:101C5000300004F03DFBBAF1000F09D1206C38B11F
:101C600040F2DD42AFF26401AFF24C0004F030FB11
:101C700001F036F948B9059838B14FF49C62AFF2DB
:101C80007C01AFF2640004F023FB4FF000094FF039
:101C90008057DFF8F88501F0DBFFA56B35B35146BF
:101CA0002046E668FFF79BFFBBF1000F11D0E6600E
:101CB000606A50B104F1240001F059F828B1C8F865
:101CC0000070BFF34F8FBFF36F8F01F0DBFF012078
:101CD00002E76D1EA563206810B901F0ACF96060E1
:101CE00020690028F1D004F11000E5E7059808B15B
:101CF0001EB106E001F0C6FF27E0684601F0A5F836
:101D0000012601F0BFFF00F03AFD01F0A1FF94F9B8
:101D10004400401C01D184F8449094F94500401CD3
:101D200001D184F8459001F0ADFF05A9684601F0A6
:101D30009DF8002820460AD0FFF70CFE00F074FC46
:101D4000204600F096FA0028A5D00020C4E600F056
:101D500090FAD8B1206830B901F07AFF606801F0DC
:101D6000CAF801F08FFF04F12400059900F0A6FFE6
:101D70002046FFF7EFFD00F057FC00288BD1C8F894
:101D80000070BFF34F8FBFF36F8F84E72046FFF7DC
:101D9000E1FD00F049FC7EE770B50D46040007D177
:101DA0004FF41E72AFF2A411AFF28C1004F090FA4F
:101DB00001F093F86168884204D1E068401CE0605B
:101DC000012070BD00232A4619462046FFF732FF46
:101DD0000028F6D0E168491CE16070BDF8B51646F0
:101DE0000C46050007D140F2A122AFF2E811AFF294
:101DF000D01004F06DFAAC4207D940F2A222AFF243
:101E0000FC11AFF2E41004F063FA0220002200900B
:101E1000334611462846FFF749FD002800D0846369
:101E2000F8BD70B50C46050007D140F2BD22AFF2F7
:101E30002C21AFF2142004F04BFAAC4207D940F247
:101E4000BE22AFF24021AFF2282004F041FA022274
:101E500000212846FFF75CFD002800D0846370BD98
:101E60002DE9F0471F4690468946040007D140F20D
:101E70009F32AFF27021AFF2582004F029FAB9F185
:101E8000000F09D1206C38B14FF46872AFF28C2189
:101E9000AFF2742004F01CFA022F0AD1E06B012883
:101EA00007D040F2A132AFF2A421AFF28C2004F0AF
:101EB0000FFA01F00CFF5020EFF3118680F3118828
:101EC000BFF34F8FBFF36F8FA06BE16B884206D3D8
:101ED000022F04D0002086F31188BDE8F08794F922
:101EE00045503A4649462046FFF769FD681C04D034
:101EF0006D1C84F845500120EDE7606A0028FAD097
:101F000004F1240000F033FF0028F4D0B8F1000FF2
:101F1000F1D00121C8F80010EDE770B50E460400BD
:101F200007D140F23C42AFF22431AFF20C3004F062
:101F3000CFF9206C38B14FF48862AFF23831AFF28C
:101F4000203004F0C5F9206848B9606838B140F223
:101F50004542AFF25031AFF2383004F0B9F901F038
:101F6000B6FE5020EFF3118580F31188BFF34F8F39
:101F7000BFF36F8FA16BE06B884218D994F94500CD
:101F8000491CA163411C04D0401C84F84500012079
:101F90000EE0606A0028FAD004F1240000F0E7FEA9
:101FA0000028F4D0002EF2D001203060EFE70020AE
:101FB00085F3118870BD2DE9F047904689460400ED
:101FC00007D14FF4B462AFF2C431AFF2AC3004F0D9
:101FD0007FF9B9F1000F09D1206C38B140F2A1525C
:101FE000AFF2E031AFF2C83004F072F901F06FFEE9
:101FF0005020EFF3118780F31188BFF34F8FBFF3A9
:102000006F8FA66BF6B194F9445049462046FFF70E
:10201000E6FD761EA663681C04D06D1C84F844504F
:10202000012010E020690028FAD004F1100000F02F
:102030009EFE0028F4D0B8F1000FF1D00121C8F8BD
:102040000010EDE7002087F3118846E72DE9F04105
:102050000E46040007D140F2FC52AFF25841AFF2F5
:10206000404004F035F94EB9206C48B140F2FD52C1
:10207000AFF27041AFF2584004F02AF9206C38B941
:1020800040F2FE52AFF28441AFF26C4004F020F90E
:1020900001F01DFE5020EFF3118580F31188BFF38E
:1020A0004F8FBFF36F8FA06B30B131462046E7688A
:1020B000FFF795FD0120E76085F31188B3E410B5C3
:1020C000040007D140F22F62AFF2C841AFF2B04036
:1020D00004F0FEF801F0BCFDA46B01F0D3FD204636
:1020E00010BD10B5040007D140F24162AFF2EC41DF
:1020F000AFF2D44004F0ECF801F0AAFDD4E90E10E0
:10210000441A01F0BFFD204610BD10B5040007D1F0
:1021100040F25162AFF21451AFF2FC4004F0D8F833
:10212000A06B10BD5A4A002102EBC1035B688342D9
:1021300006D1002042F8310002EBC101486070472F
:10214000491C0A29F0D3704710B5040007D140F2AA
:102150005D62AFF25051AFF2385004F0B9F820464A
:10216000FFF7E0FF94F84600002804D12046BDE8C0
:10217000104001F082BC10BD10B5040007D140F240
:102180009372AFF28051AFF2685004F0A1F8A06BE7
:1021900008B1002010BD012010BD10B5040007D10A
:1021A00040F2BA72AFF2A451AFF28C5004F090F842
:1021B000A06BE16B884201D1012010BD002010BD51
:1021C00010B5334B002253F832401CB1521C0A2A7E
:1021D000F9D310BD43F8321003EBC201486010BDC3
:1021E00010B500242A4A214602EBC1035B688342F2
:1021F00002D152F8314002E0491C0A29F4D32046AA
:1022000010BD70B515460E46044601F021FD94F947
:1022100044100020491C01D184F8440094F9451071
:10222000491C01D184F8450001F02CFDA06B28B9B0
:102230002A46314604F1240000F07EFD2046BDE828
:102240007040FFF787BB0346009829B10260C0E9E0
:102250000F310121FFF7EABA0060F8E7002807D044
:102260000021416001600B460A46C160FFF7DDBBFB
:10227000704710B5044601F0EBFCA06B20B10024C0
:1022800001F000FD204610BD0124F9E704ED00E057
:10229000B82700202DE9F041054601F0D9FCFD4E9C
:1022A000B068401CB0603068FB4F10B1706930B34B
:1022B0002BE03560B068012827D1002404EB8400AE
:1022C00007EB8000FFF76EFA641C202CF6D3F3486E
:1022D000FFF768FAF1481430FFF764FAEF48283046
:1022E000FFF760FAED483C30FFF75CFAEB485030FE
:1022F000FFF758FAE94870631430B06305E03068BE
:10230000E96AC06A884200D83560706A0121401CC1
:102310007062E86A326981401143316100EB8000EC
:1023200007EB8000291DFFF74BFA01F0ABFC706949
:1023300000280CD03068E96AC06A884207D2D849C0
:102340004FF080500860BFF34F8FBFF36F8FBDE831
:10235000F0812DE9F0470E46DDE9098482466FF0F1
:102360000301206B01EB82010844089D20F0070760
:102370009946780705D040F22B32CAA1D0A003F0CD
:10238000A7FF00202218315C82F83410315C11B1B3
:10239000401C1028F6D3002684F84360202D00D37B
:1023A0001F25E562C4E91156201DFFF706FA04F166
:1023B0001800FFF702FA2461C5F120006462A061F1
:1023C000E66484F850604A465146384601F0E1FB25
:1023D0002060B8F1000F01D0C8F80040BDE8F087D8
:1023E0002DE9F04F85B09846DDE90F540E9F9146D8
:1023F0008A4683462DB940F25522AAA1B0A003F027
:1024000067FF0026A4B1CDB10220256384F85100F6
:102410000DF1040C04A800978CE8510043464A468D
:1024200051465846FFF795FF2046FFF733FF06E079
:1024300040F256229BA1A2A003F04AFF0496049802
:1024400005B0BDE8F08F2DE9FF5F8346DDE90E871B
:10245000994616468A46900001F0A4FA05001CD061
:10246000542001F09FFA040014D00020256384F862
:102470005100CDE90240CDE900874B463246514636
:102480005846FFF766FF2046FFF704FF012004B01F
:10249000BDE8F09F284601F0F0FA4FF0FF30F6E774
:1024A00010B5044690F8510058B101280CD002280C
:1024B0000FD0BDE8104040F629627AA180A003F059
:1024C00007BF206B01F0D9FA2046BDE8104001F0AB
:1024D000D4BA10BD70B5044601F0BAFB6D4D04B915
:1024E0002C68201DFFF790F958B9E06A6A4A00EBA2
:1024F000800152F8211021B90121814028698843C7
:102500002861A06A18B104F11800FFF77DF9686A24
:10251000401C68622868844208D16048211D3C3014
:10252000FFF74EF96868401C686007E0A868401E25
:10253000A8602046FFF7B4FF00F03AFF01F0A2FBCD
:102540006869002812D0286884420FD1286B28B10E
:1025500040F2654253A15AA003F0BAFE50494FF031
:1025600080500860BFF34F8FBFF36F8F70BD2DE9B0
:10257000F041484F0026386B38B1B869401CB8614B
:10258000F86900B101263046E1E6FD686D1CFD608A
:1025900011D1786B006828B140F6D91241A148A04A
:1025A00003F096FE786BB96B7963B863386A401CA8
:1025B000386200F0FDFEB86ADFF8DC80854209D39E
:1025C000786B006880B1786BC068C46860688542C9
:1025D0000DD2B8623868C06A00EB800158F821005B
:1025E0000128CDD90126CBE74FF0FF30F1E7201DC0
:1025F000FFF70AF9A06A18B104F11800FFF704F90F
:10260000E06A01213A6981401143396100EB8001A0
:1026100008EB8100211DFFF7D3F8E06A3968C96A29
:102620008842CDD30126CBE72DE9F047194D002490
:102630002746286B28B94FF4FD621AA120A003F0A9
:1026400047FE01F005FB286B401E2863286B00BB8A
:10265000A868124928310126D8B1DFF83C90884695
:10266000D8F80010A1B3D8F80C00C46804F1180021
:10267000FFF7CAF8201DFFF7C7F8E06A2A6906FAD3
:1026800000F11143296100EB800109EB8100211D5C
:102690001FE03EE03800002008280020882A0020A3
:1026A00004ED00E02E2E5C2E2E5C467265655254C1
:1026B0004F535C7372635C7461736B732E630000C1
:1026C0004572726F723A25732C25640D0A00000062
:1026D00008E0FFF775F8E06A2968C96A8842BFD345
:1026E000EE61BDE70CB100F063FEAC693CB1FFF7F1
:1026F0003EFF00B1EE61641EF9D10020A861E869D7
:1027000038B1FF49012738070860BFF34F8FBFF387
:102710006F8F01F0B7FA384660E62DE9F041F94EC7
:102720000F460446F5683068001DFFF76DF838B9AC
:10273000306890F82C100120884031698143316164
:10274000601C07D137B13168BDE8F041EE48091D82
:10275000FFF736B830682C44AC424460316805D28B
:10276000B06BBDE8F041091DFFF736B8706B091D6D
:10277000FFF732F8B06A844200D2B462E7E5E1487C
:10278000016B491C016370472DE9F0410E460500BD
:102790004FF0000407D140F27942AFF2F801AFF2F6
:1027A000E00003F095FD3EB940F27A42AFF20C1121
:1027B000AFF2F40003F08CFDD24F386B38B140F229
:1027C0007B42AFF22011AFF2081003F081FDFFF75A
:1027D000D6FFFA6828688119904202D9884202D847
:1027E00004E0884201D8914200D9012429601CB13B
:1027F000881A0021FFF791FFFFF716FF002807D185
:10280000BF494FF080500860BFF34F8FBFF36F8F09
:102810009DE510B5040014D0BA49096B39B140F2F6
:10282000CF42AFF28011AFF2681003F051FDFFF715
:10283000A6FF00212046FFF770FFFFF7F5FE0028F6
:1028400007D1AF494FF080500860BFF34F8FBFF3FF
:102850006F8F10BD70B5050007D140F2FB42AFF29B
:10286000BC11AFF2A41003F033FDA64E30688542D0
:1028700001D1002070BD01F0EBF96C6901F002FAA2
:10288000706B844202D0B06B844201D1022070BDD3
:102890009D48844204D1A86A0028F7D1032070BD66
:1028A00099481438844202D00CB1012070BD042034
:1028B00070BD10B5044601F0CBF90CB9914804681D
:1028C000E46A01F0DFF9204610BD10B5044601F0BE
:1028D000FEF95020EFF3118180F31188BFF34F8F81
:1028E000BFF36F8F0CB987480468E06A81F31188E1
:1028F00010BD2DE9F04100260D460446202908D3DD
:102900004FF4B062AFF26421AFF24C2003F0E0FC70
:102910001F2501F09DF97B4F04B93C68606CA8420B
:102920003FD03968854206D98C4207D03968C96AD8
:10293000A94202D902E08C4200D10126E16A884610
:10294000884200D1E5626564A069002802DBC5F118
:102950002000A0616D4D08EB8800616905EB8000E7
:10296000814215D1201DFEF74FFF012120B93A69A0
:1029700001FA08F082433A61E06A3A698140114302
:10298000396100EB800005EB8000211DFEF718FF88
:102990003EB15B494FF080500860BFF34F8FBFF3EB
:1029A0006F8FBDE8F04101F06DB970B5554D286BE2
:1029B00010B10120E86170BD0020E8612869534E24
:1029C000B0FA80F0C0F11F0000EB800456F824003C
:1029D00038B940F6F622AFF23431AFF21C3003F0D2
:1029E00077FC06EB840000F1080241684968416009
:1029F000914201D149684160C868286070BD70B5D6
:102A0000044601F025F93F4D04B92C68201DFEF75E
:102A1000FBFE58B9E06A3D4A00EB800152F82110F4
:102A200021B901218140286988432861A06A18B131
:102A300004F11800FEF7E8FE211D3348FEF7C0FE42
:102A400001F020F9686928B101F002F900F0B0FC4A
:102A500001F018F92868844213D1686990B1286B95
:102A600038B140F25762AFF2C431AFF2AC3003F08C
:102A70002FFC23494FF080500860BFF34F8FBFF306
:102A80006F8F70BD2048A9680068884202D100207D
:102A9000286070BDBDE8704087E770B50025040070
:102AA00007D140F28162AFF20441AFF2EC3003F0A3
:102AB0000FFC15496069884205D1A06A283988420F
:102AC00001D000B90125284670BD70B5040035D08D
:102AD0000C4D286884423BD001F0BAF82046FFF73D
:102AE000DCFF38B3201DFEF78FFEE06A01212A6962
:102AF00081401143296100EB8000044908E0000097
:102B000004ED00E038000020D82A0020082800202A
:102B100001EB8000211DFEF753FEE06A2968C96AB7
:102B2000884207D3FF494FF080500860BFF34F8FB2
:102B3000BFF36F8FBDE8704001F0A4B840F2AB6204
:102B4000AFF2A041AFF28840BDE8704003F0C0BBD7
:102B500070BD2DE9F0410026040007D140F2E26289
:102B6000AFF2C041AFF2A84003F0B2FB01F0AFF802
:102B70005020EFF3118580F31188BFF34F8FBFF31F
:102B80006F8F2046FFF789FFE8B1E74F386B18B128
:102B900004F11801E54814E0E06A3968C96A88421E
:102BA00000D30126201DFEF72FFEE06A01213A69BD
:102BB000814011433961DE4900EB800001EB800068
:102BC000211DFEF7FDFD85F311883046DCE4D84E6B
:102BD0004FF08054D34D00F0F8FB30680128FAD94B
:102BE0002C60BFF34F8FBFF36F8FF4E730B587B022
:102BF0000025039505AA04A903A80495FEF7EEF99C
:102C0000DDE903010095CDE901100023C9A1CB48FE
:102C1000059AFFF7E5FBC44CE06218B100F0DCFC5C
:102C200001280CD0401C1CD140F28472AFF28C51B0
:102C3000AFF2745007B0BDE8304003F049BB5020FC
:102C400080F31188BFF34F8FBFF36F8F4FF0FF30CA
:102C5000A06201206061E56007B0BDE8304000F08F
:102C6000B5BF07B030BD502080F31188BFF34F8F40
:102C7000BFF36F8FAC490020486100F0DDBFAA4868
:102C8000C068704710B501F022F8A748C06810BDB1
:102C9000A5488068704710B510B104461CB10AE021
:102CA000A1480468FAE740F68C02AFF20861AFF27F
:102CB000F05003F00DFB04F1340010BD70B50D466B
:102CC000040007D140F60632AFF22861AFF210607F
:102CD00003F0FEFA9448016820461831FEF77CFDA7
:102CE0002846BDE87040012117E52DE9F04117465F
:102CF0000E46050007D140F61732AFF25861AFF229
:102D0000406003F0E5FA884C206B38B940F61B327E
:102D1000AFF27061AFF2586003F0DAFA216846F062
:102D200000408861216828461831FEF749FD384681
:102D3000BDE8F0410121F0E470B514460E460500EF
:102D400007D140F63132AFF2A461AFF28C6003F0EC
:102D5000BFFA7548016828461831FEF731FD0CB1FD
:102D60004FF0FF3621463046BDE87040D5E42DE9EE
:102D7000F041C068C4683CB940F66132AFF2DC6132
:102D8000AFF2C46003F0A4FA04F118000746FEF79E
:102D90003BFD654D286B012658B139466348FEF767
:102DA0000FFDE06A2968C96A884212D90120EE61E4
:102DB000E4E4201DFEF728FDE06A2A6906FA00F126
:102DC000114329615A4900EB800001EB8000211D6D
:102DD000E5E70020D2E470B5534D06460C46286B5B
:102DE00038B940F69932AFF24471AFF22C7003F06B
:102DF0006FFA44F000403060F4683CB940F6A1320C
:102E0000AFF26071AFF2487003F062FA3046FEF73D
:102E1000FBFC201DFEF7F8FCE06A01262A6906FA91
:102E200000F111432961424900EB800001EB800071
:102E3000211DFEF7C5FCE06A2968C96A884202D9EB
:102E40000120EE6170BD002070BD10B5040007D1F7
:102E500040F6C132AFF2B471AFF29C7003F038FAB1
:102E60003148016A2160C068606010BD70B50D46D0
:102E7000040007D140F6CB32AFF2D871AFF2C07088
:102E800003F026FA3DB940F6CC32AFF2E871AFF26A
:102E9000D07003F01DFA00F0DBFE234AD0682968E9
:102EA0004B1C0FD02368126A934202D062688242A0
:102EB0000AD96268801A884206D2081A2860204619
:102EC000FFF7C3FF002400E0012400F0DBFE2046F2
:102ED00070BD15490120C8617047134800687047EC
:102EE0001148416919B1006B18B1002070470120E9
:102EF00070470220704770B5040049D00A4DE06A5F
:102F00002968C96A884243D2A069002804DB28687E
:102F1000C06AC0F12000A061E06A054E00EB8000AD
:102F20000EE0000004ED00E038000020B02A002090
:102F30000828002049444C4500000000CF2B000821
:102F4000616906EB800081421FD1201DFEF75CFC09
:102F5000012150B9E06A00EB800256F8222022B924
:102F60002A6901FA00F082432A612868C06AE06297
:102F70002A6981401143296100EB800006EB800043
:102F8000211DBDE87040FEF71BBC2868C06AE062E6
:102F900070BD70B504004FF0000640D0FC4D2868AD
:102FA000844207D040F6C762AFF60811AFF6F000D2
:102FB00003F08EF9A06C38B940F6C962AFF61C1167
:102FC000AFF6041003F084F9A06C401EA064626C9C
:102FD000E16A914223D010BB201DFEF715FCED499C
:102FE000012250B9E06A00EB800351F8233023B985
:102FF0002B6902FA00F083432B61606CE062C0F140
:103000002000A061E06A2B6982401A432A6100EB2C
:10301000800001EB8000211DFEF7D2FB0126304627
:1030200070BDDB4908680A688069D26A0968C2F124
:1030300020028A617047D649086818B10868826C16
:10304000521C82640868704770B50C46064600F052
:10305000FFFDCF4D2868C06C80B92968012081F838
:1030600050005CB101212046FFF757FBCA494FF0E1
:1030700080500860BFF34F8FBFF36F8F00F002FEE8
:1030800000F0E6FD2868C46C002034B116B1296850
:10309000C86402E02A68611ED164296881F8500082
:1030A00000F0F0FD204670BD2DE9F0411E461546AA
:1030B0008846074600F0CCFDB54C206890F85000DB
:1030C000022814D02068C16CB943C1642168012072
:1030D00081F850005EB101213046FFF71EFBAE497A
:1030E0004FF080500860BFF34F8FBFF36F8F00F039
:1030F000C9FD00F0ADFD15B12068C06C28602068E6
:1031000090F8500001280DD02068C16C21EA080118
:10311000C16401252168002081F8500000F0B2FD53
:10312000284653E50025F5E72DE9F0411F46904676
:103130000D4604004FF0010607D141F2FD02AFF643
:103140009C21AFF6842003F0C3F800F081FD0FB19D
:10315000E06C386094F85000022184F85010B8F107
:10316000050F0ED2DFE808F00D03060C0A00E16C33
:10317000294301E0E16C491CE16402E0022803D02C
:10318000E564012802D02AE0002628E0201DFEF791
:103190003BFB7F4DE06A01212A698140114329618F
:1031A0007C4900EB800001EB8000211DFEF708FB4D
:1031B000A06A38B141F23512AFF61831AFF60030DF
:1031C00003F086F8E06A2968C96A884207D972491B
:1031D0004FF080500860BFF34F8FBFF36F8F00F048
:1031E00051FD3046F2E42DE9F0471F46DDF820900E
:1031F00092460D4604004FF0010807D141F26812D3
:10320000AFF66031AFF6483003F062F800F05FFDD2
:103210005020EFF3118680F31188BFF34F8FBFF377
:103220006F8F0FB1E06C386094F85000022184F881
:103230005010BAF1050F0ED2DFE80AF00D03060CAC
:103240000A00E16C294301E0E16C491CE16402E001
:10325000022803D0E564012803D031E04FF00008D4
:103260002EE0A06A38B141F2AF12AFF6C831AFF626
:10327000B03003F02DF8464D286B012778B104F1EA
:1032800018014648FEF79CFAE06A2968C96A884234
:1032900016D9B9F1000F12D0C9F8007010E0201D46
:1032A000FEF7B2FAE06A2A6907FA00F111432961D0
:1032B00000EB8001374800EB8100211DE2E7EF6160
:1032C00086F311884046BDE8F0872DE9F041884635
:1032D000040007D141F2E312AFF63841AFF62040C7
:1032E00002F0F6FF00F0F3FC5020EFF3118780F3BB
:1032F0001188BFF34F8FBFF36F8F94F850000221F6
:1033000084F85010E16C491CE16401282ED1A06AB8
:1033100038B141F20922AFF67441AFF65C4002F0D9
:10332000D7FF1B4D286B012678B104F118011B480B
:10333000FEF746FAE06A2968C96A884216D9B8F1E8
:10334000000F12D0C8F8006010E0201DFEF75CFAF4
:10335000E06A2A6906FA00F1114329610D4900EB80
:10336000800001EB8000211DE2E7EE6187F3118808
:103370002CE410B5A0B1044600F06AFC94F85000AB
:10338000022810D0002400F07DFC204610BD000073
:10339000380000200828002004ED00E0B02A0020BA
:1033A0001C480468E8E7002084F850000124EAE79C
:1033B0001848416B096829B1416BC968C9684968F7
:1033C000816270474FF0FF31FAE770B5124E114D30
:1033D0001CE0FFF7D4F9306820B10024FFF724F98E
:1033E000A4B901E00124F9E700F032FCF068C468F8
:1033F000201DFEF709FAA868401EA8606868401EF4
:10340000686000F03FFC2046FFF74AF86868002833
:10341000DFD170BD38000020C42A002070B5002420
:103420004160FB4D0061914206D8D11A82699142F8
:1034300006D2011D286907E09A4203D2994201D3BE
:10344000012403E0011DE868FEF7C6F9204670BDBF
:103450002DE9FE4F9946DDF830A090460D46060056
:103460004FF0000705D14FF4D372EAA1F0A002F0AB
:103470002FFFE74C206880B1CDE900580296062D59
:1034800010DAFFF72DFD02284FF0000308D00022CC
:1034900069462068FEF7C9FA07463846BDE8FE8F40
:1034A0005246F5E700234A466946FEF7D9FCF3E7A2
:1034B00070B586B0D64E50E0019800284DDB039CD5
:1034C000606910B1201DFEF79FF904A800F067F9AC
:1034D000054601980A2840D2DFE800F00505053FBF
:1034E000283905053F280298A169034601442A4668
:1034F0002046FFF793FF00282FD0616A20468847B7
:10350000E069012829D1002000900298A1690023D8
:10351000421819462046FFF79BFF00281DD140F2B4
:103520002132BCA1C2A002F0D3FE16E00298A06135
:1035300028B94FF44E72B7A1BDA002F0C9FEA06930
:103540002B4641191A462046FFF768FF05E094F81C
:10355000280010B9204600F090FA00231A4601A96D
:103560003068FEF767FB0028A6D106B070BDA84CF6
:10357000E068016839B1002139B1002000F021F97B
:10358000FFF796FFF4E70121F6E7C0680068F5E76A
:1035900038B500F05DFB9E4C2068C8B9A848FEF71E
:1035A00001F9A7481430FEF7FDF8A548E060143093
:1035B0002061A34B0020C03B009003F148020C2186
:1035C0000A20FEF773F9206010B19EA1FEF7F8FD06
:1035D000BDE8384000F056BB30B587B00024FFF797
:1035E000D7FF8B4D2868B0B100200390049005AA46
:1035F00004A903A8FDF7FAFCDDE903211F208DE8EB
:103600000700002391A19348059AFEF7E9FE686040
:1036100008B1012405E040F233127EA184A002F03B
:1036200057FE07B0204630BD2DE9F0471E46DDE9C4
:10363000089417460D00804605D14FF4C67275A157
:103640007BA002F045FE002C0CD0FFF7A1FFC4F8D0
:103650000080C4E90657C4E90869201DBDE8F047A9
:10366000FEF7ABB8BDE8F0872DE9FC4781461E4662
:10367000174688462C200A9D00F094F904000AD0D1
:10368000CDE9005433463A4641464846FFF7CCFF61
:10369000002084F828002046BDE8FC872DE9FC477F
:1036A0008146DDE90A542C201E46174688460090C4
:1036B0002CB94FF4B77257A15DA002F009FE54B1C6
:1036C000CDE9005433463A4641464846FFF7ACFF41
:1036D000012084F828002046DEE710B54C4C6068D5
:1036E00028B94FF4E8724BA151A002F0F1FD6068D7
:1036F00010BD10B5040005D140F2D91245A14CA06F
:1037000002F0E6FDA06910BD10B5040005D140F23D
:10371000E31240A146A002F0DBFD606810BD10B5C9
:10372000040005D140F2ED123AA141A002F0D0FD13
:10373000206810BD10B5040005D140F2DA3235A181
:103740003BA002F0C5FD00F083FA606908B10124D6
:1037500000E0002400F096FA204610BD10B50400E9
:1037600005D140F2EF322BA131A002F0B1FD00F003
:103770006FFA246A00F086FA204610BD70B50D4637
:10378000040005D140F2FF3222A129A002F0A0FDE1
:1037900000F05EFA2562BDE8704000F073BA70B5C3
:1037A0000546FFF76CFA1A4E0446B068844203D20D
:1037B00000F060F8012000E0002028602046B4609E
:1037C00070BDF8B50D460646FEF7D9FF6846FFF70F
:1037D000E6FF0446009810B1FEF726FFF8BD0C483E
:1037E000ADB101690968C9B30025311B2A460068DB
:1037F000FEF707FDFEF718FF0028EFD116494FF03E
:1038000080500860BFF34F8FBFF36F8FF8BD26E085
:10381000740000202E2E5C2E2E5C4672656552547C
:103820004F535C7372635C74696D6572732E6300D1
:103830004572726F723A25732C25640D0A000000E0
:10384000AC2B0020546D725100000000546D7220AA
:10385000537663006F35000804ED00E008E0A642EF
:10386000C3D8FEF7E1FE2146304600F034F8F8BD3B
:103870000125BAE7F8B52D4E25E0C068C468056893
:10388000201DFDF7C1FF616A20468847E0690128D5
:1038900019D1A0692844A84206D924616060211D7D
:1038A000F068FDF799FF0EE0002003460146009006
:1038B0002A462046FFF7CCFD28B940F292321CA1DF
:1038C00022A002F005FDF06801680029D5D1316918
:1038D000C6E90310F8BDF8B5054614480E46C068A1
:1038E000C068C468201DFDF78FFFE069012816D16C
:1038F000A0692B46411932462046FFF78FFD70B173
:1039000000200346014600902A462046FFF7A0FD0E
:1039100028B94FF4027206A10CA002F0D9FC616A2A
:1039200001B02046BDE8F0400847000074000020C8
:103930002E2E5C2E2E5C4672656552544F535C737E
:1039400072635C74696D6572732E63004572726F89
:10395000723A25732C25640D0A00000030B57449B5
:1039600000E011460A688242FBD34B685C1884422F
:1039700003D1406818444860084643681C189442C4
:1039800009D16B4C103C2468A24209D052681A44F9
:1039900042600A6812680260814200D0086030BD4F
:1039A0000460F9E72DE9F04105460026FEF7E7FE41
:1039B0005F4F103F386808B900F098F8F868054282
:1039C0004ED1002D4CD0083568070BD005F007000C
:1039D000C0F108000544680704D0BF2255A15FA0CC
:1039E00002F076FC002D3BD07868854238D85049EB
:1039F0000846046801E0214604466068A84202D2F5
:103A000020680028F7D13868B846844228D00E686C
:103A10002068086060680836401B10280ED96719B6
:103A2000780704D0EC2243A14CA002F051FC60685E
:103A3000401B786038466560FFF790FF6168D8F8F2
:103A400004004246401AC8F80400D8F808309842EA
:103A500000D29060D8F80C0001430020C4E90001B6
:103A6000FEF7E2FD700705D04FF4967231A13BA03E
:103A700002F02EFC3046BDE8F08170B500282BD056
:103A80002B4DA0F10804103D6068E968084205D19B
:103A90004FF4A07227A131A002F01AFC206828B1CF
:103AA00040F2411223A12DA002F012FC6068E968E7
:103AB000084211D02268002A0ED188436060FEF7C8
:103AC0005EFE60686968084468602046FFF746FF4C
:103AD000BDE87040FEF7A8BD70BD154810384068BD
:103AE0007047134810388068704770471F484FF47C
:103AF0001041420706D0C01D1C4920F00700411AA2
:103B0000C1F510410A4A00230144C2E90003083903
:103B1000103A21F0070111604B600B600B1AC0E9ED
:103B2000001393604FF000405360D0607047000076
:103B3000980000202E2E5C2E2E5C46726565525435
:103B40004F535C706F72745C4D656D4D616E675C58
:103B5000686561705F342E63000000004572726F0B
:103B6000723A25732C25640D0A000000D42B002026
:103B700069484068401C04D0F42268A171A002F09A
:103B8000A7FB502080F31188BFF34F8FBFF36F8FD7
:103B9000FEE710B5031F4FF080741C601B1F21F05F
:103BA00001011960191F6B4B0B60143940380A6012
:103BB00010BD69484FF47A710068B0FBF1F14FF025
:103BC000E020491E41610721016170471CB563492E
:103BD00008780190FF20087008788DF800009DF8A3
:103BE00000004D4A00F0500010700720906007E080
:103BF0009068401E90609DF8000040008DF8000025
:103C00009DF800000006F3D4107A000200F4E06092
:103C10009060019808705248016841F47001016099
:103C2000016841F070410160FFF7C3FF0020506060
:103C3000FCF79AFA00201CBD37484068B0F57A7F3F
:103C400005D04FF4B57235A13EA002F041BB7047DC
:103C5000502080F31188BFF34F8FBFF36F8F2E4931
:103C60004868401C486001280BD13D481C3800685A
:103C700010F0FF0F05D04FF4BD7228A131A002F063
:103C800027BB704710B5244C606828B940F28112F8
:103C900022A12CA002F01CFB6068401E606001D1D4
:103CA00080F3118810BD10B5502080F31188BFF348
:103CB0004F8FBFF36F8FFEF75AFC20B128494FF0AA
:103CC00080501C390860002080F3118810BD10B5A9
:103CD000FCF780FA104C10280CD300F1E02090F88B
:103CE000F0032178884205D24FF42A720BA115A067
:103CF00002F0EEFA1A4814380068A16800F4E06097
:103D0000884207D9BDE810404FF42E7203A10DA0E0
:103D100002F0DEBA10BD0000A00000202E2E5C2EA6
:103D20002E5C4672656552544F535C706F72745CC2
:103D3000525644535C41524D5F434D335C706F7239
:103D4000742E63004572726F723A25732C25640DD0
:103D50000A000000713B00080000002000E400E0C1
:103D600020ED00E010B510B1012809D101E00846AE
:103D700010BDFDF734FC3249884201D1002010BD4E
:103D8000012010BD10B5040002D0012C01D001208B
:103D900010BDFDF797FAFDF7D4FC2046BDE81040B2
:103DA000E0E770B50D4618B1012803D0042070BDBE
:103DB000284670BD14464FF6FF7000EA0332210317
:103DC000284601F50011FDF7E3FB002070BD70B53A
:103DD0001E460D4618B1012803D0042070BD2846A8
:103DE00070BD1003144600F50010FDF714FB4FF6EC
:103DF000FF7000EA06322103284601F50011FDF7A5
:103E00006CFB002070BD18B1012803D0042070475E
:103E10000846704779B1012904D0022905D0032949
:103E200009D106E04FF4C06004E04FF480501080E8
:103E300001E0012010600020704700207047000062
:103E40001740EF002DE9F041044600790027F8B152
:103E5000E66A04F130016078012332468846FFF7B4
:103E6000B6FF08B1012713E000202071206AA16984
:103E7000301A88420CD2E57808E0A0690123064494
:103E8000607832464146FFF7A2FF6D1E022DF4D244
:103E90003846BDE8F08170B50446C06A0E4600257C
:103EA000B0420FD02046FFF7CDFF05000AD1607861
:103EB0000123324604F13001FFF773FF08B16E1E93
:103EC0000125E662284670BD70B50446FFF7BAFFCB
:103ED00005004FD12078032845D16079012842D1CF
:103EE00004F1300062890021064602F091F8552065
:103EF00084F82E02AA2084F82F02522084F8300081
:103F000084F83100612284F83220412084F83300A3
:103F1000722184F8141284F8151284F8160284F8B9
:103F20001722206984F81802010A84F81912010C7A
:103F300084F81A12000E84F81B02E06884F81C0250
:103F4000010A84F81D12010C84F81E12000E84F878
:103F50001F02E2690123521CE26260783146FFF7DA
:103F600036FF00206071002260781146FFF74BFF9A
:103F700000B10125284670BD4269891E921E8A4201
:103F800001D800207047826A807801FB00207047CA
:103F90002DE9F0410D46044602290BD36069A84281
:103FA00008D920784FF0FF36012806D0022833D0F8
:103FB000032845D0012630466BE7608905EB55079D
:103FC000B7FBF0F0216A01442046FFF764FF0028A8
:103FD000F1D16089B7FBF0F100FB11717F1CB7FBD9
:103FE000F0F0214491F83080216A01442046FFF727
:103FF00052FF0028DFD16089B7FBF0F100FB1170A0
:10400000204490F8301048EA0120E90701D0060961
:10401000D1E7C0F30B06CEE76089216A4008B5FB03
:10402000F0F001442046FFF736FF0028C3D1618934
:104030006800B0FBF1F201FB12002044068EBAE7E3
:104040006089216A8008B5FBF0F001442046FFF743
:1040500022FF0028AFD16189A800B0FBF1F201FB7B
:104060001200204490F83010D0F8310041EA0020CE
:1040700020F070469FE72DE9F04716460D460446AE
:10408000022902D36069A84202D80220BDE8F08765
:10409000207806F0FF084FF00109012825D00228FA
:1040A0005FD00328F1D16089216A8008B5FBF0F068
:1040B00001442046FFF7EFFE0028E7D16289A900FE
:1040C000B1FBF2F302FB131121444FF07043D1F81E
:1040D000312003EA0222324301F8302F130A4B70D9
:1040E000130C8B70120ECA7052E0608905EB5507F5
:1040F000B7FBF0F0216A01442046FFF7CCFE002810
:10410000C4D16089B7FBF0F100FB1170204430305E
:104110007F1CE90703D0017868F31F1100E03146E6
:10412000017084F804906089216AB7FBF0F00144C3
:104130002046FFF7B0FE0028A8D16189B7FBF1F255
:1041400001FB127121443031EA0702D0C6F3071295
:1041500005E00A78C6F3032302F0F0021A430A705E
:1041600016E06089216A4008B5FBF0F00144204662
:10417000FFF791FE002889D162896900B1FBF2F353
:1041800002FB13112144320A81F8308081F831207A
:1041900084F804907AE72DE9F0410F46044602299D
:1041A00016D36069B84213D900261FE0394620466D
:1041B000FFF7EEFE05001CD0012D09D0681C09D0C8
:1041C000002239462046FFF756FF060011D103E0D2
:1041D00002260EE001260CE02069411C05D0401C9F
:1041E0002061607940F0010060712F466069B8423B
:1041F000DCD830464DE62DE9F0410F00064605D0EB
:10420000FFF7C6FE022808D2012042E6F56815B184
:104210007069A84207D8012505E0411CF5D07169F5
:104220008142F2D83D462C467069641CA04202D8F7
:104230000224022D0AD321463046FFF7A9FE38B1E9
:10424000411CE2D00128E0D0AC42EDD1002020E6B4
:104250006FF0704221463046FFF70DFF30B957B17D
:10426000224639463046FFF706FF20B101280DD01F
:10427000012420460DE6F4603069411CF9D0401E4F
:104280003061707940F001007071F2E74FF0FF3457
:10429000EFE770B5C18083680D460446012B3DD021
:1042A00020684169994239D923B90178032906D197
:1042B000436A23B1418980784E09464310E0018961
:1042C000A9422BD9406A11E0FFF762FE0346401C69
:1042D00022D0022B22D32068406998421ED9AD1B00
:1042E0002068B5421946EFD2FFF746FEE360A8B159
:1042F00021684A895209B5FBF2F2104420614889CD
:104300004009B5FBF0F200FB1250302202EB4010E6
:1043100008446061002070BD012070BD022070BDA6
:104320002DE9F041C78804467F1C38040E46000C76
:1043300033D0216989B3206842895209B7FBF2F36F
:1043400002FB1372002A58D1491C2161E16809B3AC
:10435000428983785209B7FBF2F25B1E1A424CD1B4
:10436000FFF716FE054601281BD9681C31D02068CE
:104370004169A9423BD886B1E168FFF73CFF0500DF
:104380000DD0012D0DD0681C23D02068FFF75AFDF9
:10439000F8B908E00089B8422FD8042079E5072051
:1043A00077E5022075E5206800214289303001F070
:1043B0002FFE29462068FFF7DFFD216800264FF019
:1043C0000108C8620CE080F804802068FFF73AFD1D
:1043D00008B101205DE52068C16A491C761CC162F4
:1043E00020688178B142EED8C16A891BC162E5605C
:1043F00029462068FFF7C0FD2061E78020684189D9
:104400004909B7FBF1F201FB1271302202EB4111B5
:104410000844606100203CE52DE9F0470446002196
:10442000FFF737FF002857D1FF254FF6FF79A84641
:10443000A4F8209021692068FFF72DFD07004AD1DC
:104440006669307848B1F17AE52801F03F0139D04A
:104450000A0704D50F2935D105E004273BE00F29D1
:1044600001D0D5B11EE0E2697AB3410606D596F8CF
:104470000D8020F04000E18805462184A84209D142
:10448000717B414506D13146104601F0E1FD08B18E
:104490006D1E00E0FF25EDB217E0304601F057FE3B
:1044A000404518D0A069C17AC9070BD10B21002261
:1044B000491E06D316F8012B10F8013BD21AF7D08B
:1044C00000E042B1FF25A4F8209000212046FFF72C
:1044D00027FF0700AED03846D8E52DE9F35FFF256A
:1044E00004462E4604274FF6FF7A4FF0000B6CE08F
:1044F0002068FFF7D0FC07006BD16269107888B1A3
:10450000D17AE52801F03F010AD02E2808D021F009
:104510002003082B08D00023DDF804C0634505D034
:10452000FF2543E0042754E00123F5E70F2901D0DC
:10453000C5BB42E0410605D5567B20F04000E1882E
:1045400005462184A8422FD1507BB0422CD1508BFC
:10455000E76940BB1078012300F03F00401E00EBEC
:10456000800101EBC001DFF87C970020D44619F8E8
:1045700000809044B8F8008033B1FF2914D227F8A6
:1045800011804346491C01E0E0450DD1401C0D2837
:10459000EDD31078400603D5FF2905D227F811B0D6
:1045A0006D1E02E00EE0FFE7FF25EDB20021204680
:1045B000FFF7B6FE070008D00BE0104601F0C7FD7C
:1045C000B04208D0A4F820A005E0216900298FD1CD
:1045D0000FB1C4F810B03846BDE8FC9F2DE9FF5F6D
:1045E00004460C22D4E906763946684601F008FDF7
:1045F0009DF80B00C00718D00020F8720125E0617B
:104600002B4632466946384601F05EFD2046FFF7EC
:1046100003FF10B96D1C642DF2D3642D0BD0042858
:104620000AD19DF80B00F872E6619DF80B00800737
:104630000FD5002004E0072004B0BDE8F09F401C27
:1046400036F810100029FAD10D211930B0FBF1F520
:1046500000E0012500212046FFF71BFE88B9002756
:1046600021692068FFF717FC58B961690978E529C5
:104670000AD049B1002701212046FFF751FE00284A
:10468000EED0042804D004E07F1CAF4201D0F2E752
:10469000072006006BD16D1E50D0E088411B2046DC
:1046A000FFF7F7FD060062D1A06901F050FD4FF65B
:1046B000FF7A039021692068FFF7EDFB060056D1D1
:1046C0006169D4F81C90039848730F20C8720020C9
:1046D00008738876EEB2C876701E00EB800202EB9B
:1046E000C0030022DFF8FCB501F1010801E05045EC
:1046F00002D039F813005B1C1BF802C001F80C0053
:104700001BF802704FEA102C07F808C000B9504699
:10471000521C0D2AEBD3504502D039F8130008B9CA
:1047200046F040060E7021680120087100212046E5
:10473000FFF7F6FD06001AD16D1EBBD12169206876
:10474000FFF7A9FB060012D120220021606901F0C9
:104750005FFCD4E905010B2201F052FCA0696169FC
:10476000C07A00F0180008732168012008713046F3
:1047700062E72DE9F041018C0446C688A1F57F402F
:10478000FF3800D131462046FFF783FD05001ED1DA
:10479000E5274FF0010821692068FFF77CFB050041
:1047A00012D120220021606901F032FC606907709B
:1047B000216881F80480E088B04208D200212046B8
:1047C000FFF7AEFD0500E6D0042D00D102252846F6
:1047D00010E52DE9F0410E4601F10905016969B3C3
:1047E000002143692E275A5C491C202A18D0052A2B
:1047F00000D1E522092901D105F8017BA2F141048C
:10480000192C0BD893F80CC0092901D3102400E00F
:1048100008241CEA040F01D02032D2B205F8012B83
:104820000B29E0D3D97A3172197FD3F81D2041EAE0
:1048300002213160198BB180D98AF1804FF00008D4
:1048400085F80080B769002F22D001690024E9B102
:10485000F169D9B1018CA1F57F42FF3A16D0C56943
:1048600010E0002101F09AFC40B1FF2802D9010AB2
:104870003955641CF169491EA14201D8002405E0A4
:104880003855641C35F8020B0028EAD107F804807B
:10489000B0E42DE9F35F88460E6800E0761C3078BE
:1048A0002F28FBD05C28F9D0009800242546D0F8AA
:1048B0001CB0705D6D1C202825D32F2823D05C28C8
:1048C00021D0FF2C3FD2A0F181017D290BD8715D51
:1048D0006D1C01EB0020A1F1400280B23F2A02D3FF
:1048E00080397F292FD2012101F058FC07002AD0FE
:1048F000802F04D20146FCA001F091FB18BB2BF8DD
:104900001470641CD5E77219C8F80020202801D261
:10491000042516E0002514E00BEB440030F8020CEF
:1049200020280DD02E280BD06CB100212BF81410AC
:1049300000980B222021806901F06AFB002705E026
:10494000641E002CE8D1062046E67F1C3BF81700C9
:104950002028FAD02E28F8D01FB145F0030500E03A
:10496000641E2CB10BEB440030F8020C2E28F7D15A
:104970004FF00008C1464FF0080A3BF817607F1C53
:1049800006B3202E03D02E2E04D1A74202D045F02C
:104990000305F2E7D04501D2A74219D1BAF10B0FB6
:1049A0000ED0A74201D045F003050BD84FEA89602D
:1049B00027464FF008084FF00B0A4FEA1069DCE772
:1049C00045F00305009880690178E5293DD03EE077
:1049D000802E08D3304601F003FC002101F0DEFBFD
:1049E000064645F00205FF2E0FD9AAF101008045C9
:1049F00003D345F00305D046BFE70098310A82692A
:104A000002F8081008F1010818E026B13146B9A0F3
:104A100001F005FB18B15F2645F003050EE0A6F195
:104A20004100192802D849F0020907E0A6F1610007
:104A3000192803D8203E49F00109B6B200988169CF
:104A400001F8086008F1010897E705210170BAF143
:104A5000080F03D14FEA89604FEA1069C9F381005A
:104A6000032803D06FEA0901890701D145F0020547
:104A7000A90709D409F00301012901D145F0100566
:104A8000012801D145F0080500988069C572002011
:104A9000A2E573B50446019908782F2801D05C2857
:104AA00001D1491C01910025A560019800782028BA
:104AB00005D200212046FFF7ECFB65617CBD01A912
:104AC0002046FFF7E6FE0028F8D12046FFF7A4FCB9
:104AD000A169C97A28B10428F0D14907EED405208C
:104AE0007CBD4907FCD46169C87AC006F7D5206847
:104AF00001F09DFAA060E2E710B503464FF0FF30E9
:104B00001C68002C13D0214600E0491C0A78202A9A
:104B10000ED33A2AF9D114F8012B303A0A2A06D2D8
:104B20008C4204D1022A02D2491C1046196010BDE1
:104B3000002010BD10B5044600202071401EE06228
:104B40002046FFF7A8F908B1032010BDB4F82E02E3
:104B5000A0F52A41553901D0022010BD94F8660015
:104B6000B4F8671040EA01216448B0EB012F08D087
:104B700094F88210B4F8832041EA0221B0EB012FAF
:104B800001D1002010BD012010BD2DE9FF474FF0DD
:104B9000000A0746C0F800A016460846FFF7ACFF1B
:104BA000050002D50B2004B096E4554850F8254086
:104BB0008CB13C60207820B16078FFF7D3F8C10752
:104BC0000BD084F800A0E8B26070FFF7DBF8C107F3
:104BD00008D00320E7E70C20E5E70EB1400704D436
:104BE0000020E0E71EB1400701D50A20DBE760782E
:104BF00004F10A020221FFF706F9A0BB6089B0F5B3
:104C0000007F31D3B0F5805F2ED80025294620469D
:104C1000FFF790FF012822D100206E4604EB00111F
:104C200091F8F22101F5F7712AB10A7AD1F8091049
:104C300042EA012100E0002146F82010401C04282F
:104C4000ECD3002756F8275025B129462046FFF718
:104C500071FF00E0022048B17F1C042FF2D303282B
:104C600002D0E8BB02E0FFE701209CE7B4F83B007C
:104C70006289904273D1B4F8460028B994F8540080
:104C8000D4F8551040EA0120A06194F840708146A4
:104C9000E770012F01D0022F61D194F83D604743A6
:104CA000A670EEB1701E064259D1B4F841104FEA19
:104CB000521CB1FBFCF00CFB1010218180B9B4F840
:104CC000430028B994F85000D4F8513040EA03204A
:104CD000E38F2BB1B1FBFCFC03EB0708C44411E0EC
:104CE0003DE00000C8640008222A3A3C3E3F7C7F39
:104CF000000000002B2C3B3D5B5D00000046415452
:104D0000B000002060452AD3A0EB0C00B0FBF6F009
:104D100028B3012640F6F678404500D302264FF628
:104D2000F678404500D30326801CAC44C4F828C064
:104D30002B446061C4E90753032E12D079B1D9190D
:104D40006162022E18D000F0010100EB400001EB7F
:104D50005000401E1044B0FBF2F149450ED90D2021
:104D600021E70029FBD194F85C10D4F85D30800075
:104D700041EA03216162ECE74000EAE74FF0FF30CF
:104D80002061E06080206071032E30D1B4F86000B3
:104D900001282CD12046691CFFF77DF838BB84F828
:104DA00005A0B4F82E02A0F52A4155391FD194F878
:104DB0003000D4F8311040EA0120FE49884216D173
:104DC00094F81402D4F8151240EA0120FA498842F6
:104DD0000DD194F81802D4F8191240EA012020618C
:104DE00094F81C02D4F81D1240EA0120E060F34957
:104DF00026700888401C0880E080F1E610B560B19C
:104E0000016851B10A7842B1CA888088824204D1CF
:104E10004878FEF7A7FFC00700D0092010BD17B5DE
:104E200081B01446029800906846FFF765FE00289E
:104E300002DA0B2004B010BDE04B1B1D002253F81A
:104E4000201001B10A700199002900D00A7043F8BE
:104E5000201001D0012C01D00020EBE7002202A994
:104E600001A8FFF792FEE5E72DE9F7478DB00600B0
:104E70000ED04FF0000802F01F0727F001020EA924
:104E80006846C6F80080FFF780FE050004D08BE07E
:104E9000092010B0BDE8F08709A80690C84807901F
:104EA00068460E99FFF7F5FD059C050001D104B990
:104EB000062517F01C0F4ED055B1042D03D16846BE
:104EC000FFF78CFB0546059C47F0080745B16BE0F2
:104ED000E07A10F0110F48D1780701D5082563E07A
:104EE000380748D5FEF7A9FFA073010AE173020C49
:104EF0002274030E6374A075E1752276637684F8DC
:104F00000B8084F81C8084F81D8084F81E8084F84F
:104F10001F802146009801F08AF881460021204632
:104F200001F08EF800990120B9F1000F087120D02E
:104F300000984946D0F82CA0FFF72DF9050033D191
:104F40000099A9F10100C86051460098FEF7A3FF3F
:104F500005000CD028E03DBBE07AC10601D5042550
:104F600022E0B90703D5C00701D007251CE03807A8
:104F700001D547F0200700982146C06AC6E907041A
:104F8000B77186F807804746009801F050F8306105
:104F9000207FD4F81D1040EA0120C6E90270B761F5
:104FA00000983060C088B080284672E72DE9F84F3D
:104FB000894600219A46164604461960FFF71EFFEF
:104FC000002812D1E07900280FD1A079C0070BD0BA
:104FD000D4E90210401A04F124014FF0010B0091B2
:104FE000864200D906468BE00720BDE8F88F22688C
:104FF000A0685189B0FBF1F301FB1303002B60D1D2
:10500000B0FBF1F193785B1E194011F0FF0509D157
:1050100008B310466169FEF7BBFF02281DD3411C8F
:1050200049D0606161692068FEF7A6FFA8B100EB76
:10503000050820684189B6FBF1F727B38178EA19A2
:105040008A4200D94F1B40783B4642464946FEF70C
:10505000A8FE80BB04E02069DFE70220E071C4E71E
:10506000A07940060BD5A169A1EB0800B84206D291
:1050700021684A89009900FB029000F0C1FF206876
:1050800045897D4332E0A269424518D0A17949069D
:1050900009D5407801230099FEF799FE58B9A07907
:1050A00020F04000A071206801234246407800991A
:1050B000FEF777FE18B184F807B0012095E7C4F831
:1050C00018802068A1684089B1FBF0F200FB121241
:1050D000851AB54200D93546B1FBF0F200FB12103B
:1050E00001192A464846243100F08AFFA068A944E5
:1050F0002844A060DAF800004119761BCAF80010B5
:10510000002E7FF474AF00206FE72DE9F84F894639
:1051100000219A46154604461960FFF76FFE0028E5
:1051200006D1E079002803D1A079800701D40720B7
:105130005BE7A06804F1240142194FF0010B0091D4
:1051400082426ED3A6E02268A0685189B0FBF1F3D9
:1051500001FB1303002B7AD1B0FBF1F193785B1EB6
:10516000194011F0FF0612D108B1616902E020690F
:1051700028B900211046FFF73EF8002851D0012839
:1051800037D0411C5CD06061216901B92061A079F0
:1051900040060BD520680123A26940780099FEF7EC
:1051A00016FEE8BBA07920F04000A071616920687C
:1051B00008E000005252614172724161AC0000206F
:1051C000D4BB0020FEF7D8FE98B100EB060820689B
:1051D0004189B5FBF1F72FB38178F2198A4200D9E2
:1051E0008F1B40783B4642464946FEF7F0FDB8B972
:1051F00002E00220E071F8E6A169A1EB0800B842E4
:105200000AD221684A8900FB0291009800F0F8FE5A
:10521000A07920F04000A071206846897E432FE0ED
:105220000EE03AE0A26942450FD0D4E90212914261
:105230000BD24078012342460099FEF7B2FD20B11F
:1052400084F807B00120D0E601E0C4F81880206897
:10525000A1684089B1FBF0F200FB1212861AAE423F
:1052600000D92E46B1FBF0F200FB1210204432466A
:105270004946243000F0C4FEA07940F04000A071FF
:10528000A068B1443044A060DAF800008119AD1B79
:10529000CAF80010002D7FF456AFD4E9020188420D
:1052A00000D9E060A07940F02000A07100209CE6C9
:1052B00070B50446FFF7A2FD00280ED1A1798A0639
:1052C0000BD548060ED52068012304F1240140784F
:1052D000A269FEF77CFD08B1012070BDA07920F025
:1052E0004000A071E1692068FEF7D5FD0028F4D1E7
:1052F000256AE87A40F02000E872207B2877A089B0
:10530000000A6877E068000CA877E068000EE8778C
:105310002846216900F094FEFEF78FFDA875010A6A
:10532000E975010C2976000E68760020A874E874EF
:10533000A07920F02000A071216801200871206868
:10534000BDE87040FEF7C0BD10B50446FFF7B0FFE2
:10535000002806D12046FFF751FD002801D1002189
:10536000216010BD2DE9F0470D460446FFF746FDCC
:105370005FEA000877D1E079002874D1E068A8429C
:1053800003D2A179890700D405460027A1684FF010
:105390000109A7600DB320684FF0020A86784289A0
:1053A000564369B16A1E491EB2FBF6F2B1FBF6F331
:1053B0009A4205D3701E81436D1AA16061690BE0AA
:1053C000216941B90021FEF716FF014601284BD0A3
:1053D000481C59D021616161D1B92DE0A0798007C5
:1053E000206805D5FEF707FF010004D1354611E01E
:1053F000FEF7CEFD0146481C46D0012934D920686D
:105400004069884230D96161A068AD1B3044A0601A
:10541000B542E3D8A0682844A06020684289B5FB63
:10542000F2F302FB13523AB1FEF7A6FDE0B1216898
:105430004989B5FBF1F10F182068A1684289B1FBD9
:10544000F2F302FB131121B3A269BA4221D0A17970
:1054500004F1240549060FD5407801232946FEF7BB
:10546000B6FC88B904E002E084F807A0022011E548
:10547000A07920F04000A071206801233A464078CE
:105480002946FEF78EFC18B184F80790012001E54B
:10549000A761D4E90201884204D9E060A07940F014
:1054A0002000A0714046F5E413B584B0040006D096
:1054B000002205A96846FFF768FB18B121E0092022
:1054C00006B010BD0098206001A8A061F748E06117
:1054D00020460599FFF7DDFA78B9616931B1C87ADC
:1054E000C00611D5009800F0A2FDA0600098002130
:1054F000C088A0802046FEF7CCFE042804D00028F7
:10550000DED000212160DBE70520FAE710B5044674
:10551000FFF774FC002801D10021216010BDFEB509
:105520000E460446FFF76AFC002819D1CEB1C4F834
:1055300018D0DE48E06100212046FEF7CEFF0025AE
:10554000042813D000280BD131462046FFF741F93B
:1055500000212046FEF7E4FE042801D10020256149
:10556000FEBD00212046FEF794FEFEBD2561EBE75F
:1055700033B58DB00D4600220DA96846FFF705FB37
:10558000040012D109A80690C848079068460D99F2
:10559000FFF77FFA040008D1059828B12DB12946FC
:1055A0006846FFF716F900E0062420460FB030BD2C
:1055B0002DE9F74F14468A46002269462046FFF738
:1055C000E4FA25685FEA00084ED1D5E90407B91E60
:1055D000884202D8CAF8000046E095F800900024FE
:1055E000B9F1010F01D02E6A16E002263146284695
:1055F000FEF7CEFC411C03D0012803D028B105E002
:10560000012000E00220804627E0641C6869761CC7
:105610008642EBD321E051B93146761C2846FEF78D
:105620003AFC5FEA000818D1698905F13000B9F148
:10563000020F07D00278D0F8013042EA03221201AB
:1056400006D006E0028802B9641C801C891E02E0B4
:10565000641C001D091F7F1EDDD12C61687940F09C
:1056600001006871CAF800404046BDE8FE8F70B581
:105670000446FFF7C3FB05003DD1E07918B10546AC
:10568000280005D037E0A079800701D4072532E053
:10569000D4E9020181422ED9E060A17941F02001D4
:1056A000A17150B161692068FEF772FC0646401C8A
:1056B0000BD0012E0BD065B11CE021692068FEF7EC
:1056C0006AFD05460020206113E0012512E0022555
:1056D00010E020684169B1420FD96FF070426169F2
:1056E000FEF7C9FC050005D131462068FEF753FDE1
:1056F000054615B1E571284670BDA0794006FAD57A
:105700002068012304F124014078A269FEF75FFBC1
:105710000028DAD1A07920F04000A071EBE731B584
:1057200096B0012216A96846FFF72FFA002810D17B
:1057300012A806905D48079068461699FFF7A9F9E8
:10574000002806D1059D1DB1E87AC00731D102E0DD
:10575000062017B030BD2946009800F068FC040010
:1057600017D0E87AC00614D52422694609A800F0AB
:1057700047FC022109A80B94FEF78BFD0028E8D115
:10578000002109A8FEF7A9FE98B1042801D000283D
:10579000DFD16846FEF7EDFF0028DAD12CB12146B3
:1057A0000098FEF7F8FC0028D3D10098FEF78CFB98
:1057B000CFE70720CDE72DE9F14F8EB0FEF73DFB97
:1057C000064601220EA96846FFF7DFF904000BD157
:1057D0000BA806903548079068460E99FFF759F9CF
:1057E000040002D0042C02D096E0082494E00021AA
:1057F0000098FEF700FD5FEA00084FF0000403D0B8
:10580000B8F1010F02D002E0072400E00224B8F151
:10581000FF3F01D014B165E0012463E00098FEF77A
:1058200011FB04005ED141460098FEF7A5FB009DE8
:10583000074600216A893035284600F0E9FB0B2233
:105840002021284600F0E4FB2E242C701020E87262
:10585000F0B20A90A875C6F307200990E875C6F360
:10586000074B85F818B04FEA166A85F819A041462B
:10587000284600F0E5FB05F12000202229460646D7
:1058800000F0BEFB85F821400098029900780328BB
:1058900004D10098406A884200D10021304600F0CF
:1058A000CFFB00984FF00109867814E0D4BB0020AC
:1058B0000098C76200997F1C81F804900098FEF759
:1058C000C1FA04000ED1009800214289284600F058
:1058D0009FFB761EF6B2002EEAD16846FEF77EFEEA
:1058E000040004D041460098FEF755FC14E00598EA
:1058F0001021C1720A9981750999C17580F818B093
:1059000080F819A0414600F09BFB009981F80490B3
:105910000098FEF7D9FA04460FB02046BDE8F08F94
:1059200037B58CB015460C4601220CA96846FFF726
:105930002CF9002818D109A80690FE48079068465F
:105940000C99FFF7A6F800280ED1059868B105F06C
:105950002702C17A144091430C43C472009901207C
:1059600008710098FEF7B0FA20E606201EE633B56F
:105970009DB001221DA902A8FFF707F9002859D1FF
:1059800002980B901AA80890EA48099002A81D995D
:10599000FFF77FF800284DD10798E8B300F10B011D
:1059A000152214A800F02CFB242202A90BA800F059
:1059B00027FB1EA8FFF7A0F800283DDB0BA81E99C7
:1059C000FFF767F848B3042834D10BA8FEF706FEAA
:1059D00000282FD1109C13220DF1520104F10D006B
:1059E00000F00EFB9DF85000012540F02000E07211
:1059F00002980571E07AC0062AD50D99049888426C
:105A000026D02146029800F012FB01460298FEF7CC
:105A1000B3FA010014D001E00BE00FE00298FEF7AA
:105A20003AFA029A5032002804D150782E2809D030
:105A30000EE004201FB030BD0B20FBE70820F9E783
:105A40000220F7E710460D9900F0FAFA0298057166
:105A500002A8FEF78EFE0028ECD10298FEF734FA79
:105A6000E8E713B58CB00C4601220CA96846FFF795
:105A70008CF800281BD109A80690AE48079068460C
:105A80000C99FFF706F8002811D1059888B1A17983
:105A90008175E188090AC17521790176A188090A11
:105AA00041760099012008710098FEF70DFA0EB0BA
:105AB00010BD0620FBE72DE9F74F86B0904607980A
:105AC000012802D9132009B028E706A8FFF714F827
:105AD000002801DA0B20F6E7974951F820604EB113
