:020000040800F2
:10000000709F0020DD010008450E0008470E000823
:10001000490E00084B0E00084D0E000800000000BD
:100020000000000000000000000000004501000882
:100030004F0E00080000000089010008510E000862
:10004000F7010008F7010008F7010008F7010008B0
:10005000F7010008F7010008F7010008F7010008A0
:10006000F7010008F7010008F7010008F701000890
:10007000F7010008F7010008F7010008F701000880
:10008000F7010008F7010008F7010008F701000870
:10009000F7010008F7010008F7010008F701000860
:1000A000F7010008F7010008F7010008F701000850
:1000B000F7010008F7010008F7010008F701000840
:1000C000F7010008F7010008F7010008F701000830
:1000D000F7010008F7010008F7010008F701000820
:1000E000F7010008F7010008F7010008F701000810
:1000F000F7010008F7010008F7010008F701000800
:10010000F7010008F7010008F7010008F7010008EF
:10011000F7010008F7010008F7010008F7010008DF
:10012000F7010008F7010008F7010008F7010008CF
:10013000DFF80CD003F0BEFA004800472F0D00088E
:10014000709F0020224B19680868B0E8F00F80F318
:100150000988BFF36F8F4FF0000080F311884EF0D5
:100160000D0E70470000000006480068006880F32C
:10017000088862B661B6BFF34F8FBFF36F8F00DFA1
:1001800000BF00BF08ED00E0EFF30980BFF36F8F01
:100190000F4B1A6820E9F00F106008B54FF05000BF
:1001A00080F31188BFF34F8FBFF36F8F02F07DF89C
:1001B0004FF0000080F31188BDE808401968086816
:1001C000B0E8F00F80F30988BFF36F8F704700BF6E
:1001D00034000020EFF30580704700000648804798
:1001E00006480047FEE7FEE7FEE7FEE7FEE7FEE71C
:1001F000FEE7FEE7FEE7FEE7A10200083101000886
:100200000CB500224C4800920192016841F4803103
:1002100001604FF4A063016801F40031019100997D
:10022000491C0091019911B900999942F3D10168D3
:10023000890333D50121019140490A6842F0100237
:100240000A600A6822F003020A600A6842F00202A9
:100250000A604168416041684160416841F48061E1
:100260004160416821F47C114160416841F4E8112A
:100270004160016841F08071016001688901FCD52D
:10028000416821F003014160416841F00201416091
:100290004168C1F381010229FAD10CBD01920CBD64
:1002A000254810B5016841F0010101604168244A08
:1002B000114041600168234A11400160016821F446
:1002C00080210160416821F4FE0141604FF41F016B
:1002D0008160FFF795FF1C494FF00060086010BD7A
:1002E000154A10B55068194B10F00C01184803D08E
:1002F000042901D0082901D0036012E05168536835
:1003000001F470114FF0020413F4803F04EB9141AB
:1003100002D053689B0301D50E4B00E00B4B5943B1
:10032000016051680A4AC1F30311121D515C026851
:10033000CA40026010BD00000010024000200240D0
:100340000000FFF8FFFFF6FE08ED00E000127A0063
:100350000000002000093D002849084328490860A2
:10036000704730B50F23C27801780125F2B1244AD5
:10037000126801F1E02102F4E062C2F5E062120AC3
:10038000C2F10404D3404278A24084781C40144354
:10039000220181F80024007800F01F018D404009FF
:1003A000800000F1E020C0F8005130BD01F01F00D6
:1003B00085404809800000F1E020C0F8805130BD40
:1003C000104A114001430E48001F016070470C4A5B
:1003D000121D0029116801D0014300E08143116022
:1003E00070474FF0E0210428086903D020F0040092
:1003F0000861704740F00400FAE700000000FA05C9
:100400000CED00E080FFFF1F8F4910B5884206D138
:100410000121042000F049FA002104203BE08B492F
:10042000884206D10121082000F03FFA002108206F
:1004300031E08749884206D10121102000F035FAC9
:100440000021102027E08349884206D10121202085
:1004500000F02BFA002120201DE07F49884206D1C0
:100460000121402000F021FA0021402013E07B49C7
:10047000884206D10121802000F017FA0021802057
:1004800009E0774988420AD184150121204600F00D
:100490000CFA00212046BDE8104000F006BA10BD5D
:1004A00010B50121084600F000FA0021BDE8104017
:1004B000012000F0FAB9F0B5CC78002204F00F0367
:1004C000E40601D58C7823430C784FF00F0C14F020
:1004D000FF0F4FF0010E1BD005680E880EFA02F4D4
:1004E0002640A64210D196000CFA06F725EA070727
:1004F00003FA06F5CE783D43282E02D0482E02D0CE
:1005000002E0446100E00461521C082AE5D3056062
:100510000A88FF2A1CD94468002202F108060EFA54
:1005200006F50E882E40AE420ED196000CFA06F764
:10053000BC4303FA06F7CE783C43282E00D1456130
:10054000CE78482E00D10561521C082AE5D34460BC
:10055000F0BD4FF6FF710180022181700421C1704E
:1005600070470246002092680A4200D0012070477E
:10057000806880B2704702460020D2680A4200D0EC
:1005800001207047C06880B27047016170474161C7
:1005900070470AB10161704741617047C16070479F
:1005A00041F4803282618161826181698069704732
:1005B0002C4B10B51A684FF68074224042EA0010A6
:1005C0000843186010BD2849C8617047F0B5254C34
:1005D000002801DAE36900E06368450D2E0185B269
:1005E000C0F30157B540C0F30342032F05D0C60244
:1005F0000AD503269640B34307E023F07062636890
:1006000023F07063636002E0AB4343F0706201B1BA
:100610002A43002801DAE261F0BD6260F0BD10B546
:100620008A0721F003040F49120F21440F238C681D
:1006300093409C438C608B68904003438B6010BD5B
:100640000949C1F8DC00704700080140000C014076
:10065000001001400014014000180140001C01403E
:10066000002001400000014000002042A548016830
:1006700041F0010101604168A34A114041600168F5
:10068000A24A11400160016821F4802101604168A3
:1006900021F4FE0141604FF41F01816070479949C8
:1006A0000A6822F480320A600A6822F480220A6012
:1006B000B0F5803F07D0B0F5802F03D1086840F433
:1006C000A02008607047086840F48030F9E70346CE
:1006D000002059098B4A01290AD002290AD0516AFF
:1006E00003F01F02012393400B4200D0012070470A
:1006F0001168F5E7116AF3E718B500204FF4A0641C
:1007000000903120FFF7E3FF0099491C0091A142BE
:1007100001D00028F5D03120FFF7D9FF002800D004
:10072000012018BD774A116821F0F80141EAC000A4
:1007300010607047764908607047724B5A680843EA
:1007400022F47C1210435860704771490866704764
:100750006C4A516821F003010143516070476948B8
:10076000406800F00C007047664A516821F0F001C3
:10077000014351607047634A516821F4E0610143CD
:10078000516070475F4A516821F4605141EAC000EE
:10079000506070475B4A0029517A01D0014300E064
:1007A0008143517270475A49C1F8D8007047554A81
:1007B000516821F440410143516070475149002282
:1007C00081F8202081F82020012802D0042802D1BD
:1007D000052081F8200070474E490860704749495C
:1007E0000A6A02430A6270474A49443908607047FE
:1007F00030B5444A5168484B11F00C0103D004292C
:1008000001D0082901D0036012E05168536801F457
:1008100070114FF0020413F4803F04EB914102D0B9
:1008200053689B0301D53D4B00E03B4B59430160AE
:1008300051680F2303EA1111394B5C5C0168E140F8
:1008400041605468072505EA14241C5D21FA04F46C
:100850008460546805EAD4241B5DD940C1605268A5
:10086000032303EA92322E4B1B1F9A5CB1FBF2F179
:10087000016130BD234A0029516901D0014300E0E4
:100880008143516170471F4A0029916901D001439A
:1008900000E08143916170471A4A0029D16901D073
:1008A000014300E08143D1617047164A0029D168B5
:1008B00001D0014300E08143D1607047114A002913
:1008C000116901D0014300E0814311617047114972
:1008D0004039086070470E49C86470470949C871BB
:1008E00070470848416A41F0807141627047054A8B
:1008F0000146002092680A4200D001207047014959
:1009000088727047001002400000FFF8FFFFF6FEFB
:10091000000042428004424200127A0000093D0079
:1009200018000020C44910B588420AD101218C0367
:100930002046FFF7BAFF2046BDE810400021FFF730
:10094000B4BFBE49884202D101214C0410E0BC4929
:10095000884202D101218C040AE0BA49884202D1BE
:100960000121CC0404E0B84988420AD101210C05D8
:100970002046FFF7A3FF2046BDE810400021FFF707
:100980009DBF10BD30B50446008A85B00D464CF6BB
:10099000FF710840E98801432182A0894EF6F311D6
:1009A0000840A9882A8911436A8902431143A18119
:1009B000A08A4FF6FF410840A9890143A1826846F9
:1009C000FFF716FF9C48844201D1039800E002988B
:1009D000A189090400EBC00101EB0010296801D5D1
:1009E000490000E08900B0FBF1F06422B0FBF2F1B5
:1009F00009010B096FF018056B4300EB8300A38915
:100A00001D044FF0320306D503EBC000B0FBF2F03B
:100A100000F0070005E003EB0010B0FBF2F000F07F
:100A20000F000843208105B030BD4FF4165101601E
:100A300000218180C18001810C2242818181704727
:100A400010B5028A4FF2FF031A400B884C882343EB
:100A50008C88C9880C4323431343038210BD0021B3
:100A6000018041808180C18070470029818902D046
:100A700041F4005101E021F400518181704710B52B
:100A8000C1F3421301F01F040121A140012B07D043
:100A9000022B07D01430002A026805D00A4304E074
:100AA0000C30F8E71030F6E78A43026010BD002AE8
:100AB000828A01D00A4300E08A4382827047028A18
:100AC00022F00F020282028A0A4302827047828960
:100AD00022F40062828182890A4382817047002960
:100AE000818902D041F0020101E021F002018181FF
:100AF0007047028A22F020020282028A0A4302829E
:100B000070470029018A02D041F4804101E021F4BC
:100B1000804101827047C1F308018180704780885D
:100B2000C0F308007047818941F00101818170475D
:100B3000028BD2B20283028B42EA01210183704709
:100B4000028B02F47F420283028B0A4302837047C6
:100B50000029818A02D041F0200101E021F020012A
:100B6000818270470029818A02D041F0100101E0A2
:100B700021F01001818270470029818A02D041F062
:100B8000080101E021F00801818270470029818974
:100B900002D041F4004101E0C1F30E0181817047B0
:100BA0000029818A02D041F4006101E021F4006152
:100BB00081827047828A22F004028282828A0A43FA
:100BC000828270470029818A02D041F0020101E04F
:100BD00021F00201818270470246002012880A42F9
:100BE00000D001207047C9430180704770B501F003
:100BF0001F0501260024C1F3421306FA05F2012B5A
:100C00000FD0022B0FD0838A4FEA112100881342A4
:100C100006FA01F600EA060001D000B101242046E0
:100C200070BD8389F0E7038AEEE70A0A012191404B
:100C3000C943018070470000003801400044004073
:100C400000480040004C00400050004008B5002023
:100C50004E4E0446451E009029462B466A4600200B
:100C600001F0A2FE012801D100980443032C04D016
:100C7000009C142001F04DFAEEE7002444A002F09D
:100C80002BFD306880F020003060F2E7464D474F82
:100C9000474C6E140121284600F0EFF9012808D1D5
:100CA00044A002F019FD012200231146A06801F0C2
:100CB000BBFE3146384600F0E0F9012808D141A0DA
:100CC00002F00AFD002301220221A06801F0ACFE1F
:100CD000142001F01EFADDE71CB502F039FC34499E
:100CE0000220091D0023CDE90001802239A1AFF2C5
:100CF000630001F028F8401C02D039A002F0ECFC9F
:100D00002B49012008310023CDE9000180223CA1BC
:100D1000AFF2C70001F017F8401C02D03BA002F070
:100D2000DBFC002001F056F802F02CFCFEE71CB5BD
:100D30004FF44070FFF710FB00F094F800F084F9D6
:100D400000F0C0F81A4901200023CDE90001420259
:100D500037A1AFF27B0000F0F6FF401C02D001F09B
:100D6000C5FBFEE74FF0FF301CBD344B036003F1C1
:100D700054000860802010607047314B036003F11D
:100D8000540008604FF48070106070470C0C0140F4
:100D90004B65793120D3EB204B65793220B6BCB05E
:100DA000B4CFC20A0000000000080140001001405A
:100DB000280000204B45593120B1BBB0B4CFC20A46
:100DC000000000004B45593220B1BBB0B4CFC20A7D
:100DD00000000000476976655461736B00000000F5
:100DE000476976655461736B204372656174652051
:100DF0005375636365737366756C6C7909000000E5
:100E000054616B655461736B0000000054616B6545
:100E10005461736B2043726561746520537563631D
:100E200065737366756C6C79090D0A0A0000000021
:100E300053746172745461736B000000AC00002045
:100E4000000300207047FEE7FEE7FEE7FEE770477D
:100E500010B501F0C5FC012803D0BDE8104002F038
:100E6000A2BB10BD38B501210820FFF70CFD2020E2
:100E7000ADF8000010208DF803000320104C8DF811
:100E8000020069462046FFF716FB0121ADF800106D
:100E900069462046FFF70FFB0221ADF800106946B6
:100EA0002046FFF708FB20212046FFF76EFB0121BB
:100EB0002046FFF76AFB02212046FFF766FB38BD9C
:100EC000000C014010B586B001210420FFF7DBFCC7
:100ED00001218803FFF7D7FC4FF40070ADF8100034
:100EE00018208DF813000320554C8DF8120004A92A
:100EF0002046FFF7E0FA2115ADF8101004218DF817
:100F0000131004A92046FFF7D6FA4FF4E130009001
:100F10000020ADF80400ADF80600ADF80800ADF80B
:100F20000C000C20474CADF80A0069462046FFF73C
:100F300029FD4FF4A060FFF70FFA25208DF814006B
:100F400001218DF815108DF816108DF8171005A8D1
:100F5000FFF707FA012240F225512046FFF78FFDE7
:100F600001212046FFF781FD06B010BD10B50446F3
:100F7000FFF7D1FD80212046FFF72EFE0028F9D093
:100F800010BD2DE9F04115460E460746002405E048
:100F9000315D3846FFF7EAFF641CE4B2AC42F7D398
:100FA00040213846FFF718FE0028F9D0BDE8F0814F
:100FB00070B50D46064600243046295DFFF7D6FF82
:100FC000641C285D0028F7D140213046FFF704FE5D
:100FD0000028F9D070BD70B50446080ACDB20146AC
:100FE0002046FFF798FD80212046FFF7F5FD0028F9
:100FF000F9D029462046FFF78EFD80212046FFF7D5
:10100000EBFD0028F9D070BD70B50E4D0446C1B29D
:101010002846FFF780FD80212846FFF7DDFD0028E8
:10102000F9D0204670BD10B5064C20212046FFF7B0
:10103000D3FD0028F9D02046BDE81040FFF76FBD72
:10104000000801400038014038B501211420FFF7A5
:101050001AFC0120ADF8000004248DF80340694615
:101060000E48FFF728FAE002ADF800008DF80340C3
:1010700069460B48FFF71FFA38BD70B50C460546A8
:10108000FFF76FFA012801D0002070BD21462846E5
:10109000FFF767FA0128F9D0012070BD0008014070
:1010A0000010014000F108014FF0FF32C0E90112C9
:1010B000C16001610021016070470021016170473A
:1010C00042684A6093688B609368596091600861D8
:1010D0000168491C0160704730B50C68621C02D081
:1010E00000F1080202E0026904E01A4653681D6834
:1010F000A542FAD953684B6099608A6051600861D3
:101100000168491C016030BDD0E9013201699A6073
:10111000D0E901235A604A68824201D182684A605C
:10112000002202610868401E0860704770B50D46D5
:10113000040005D140F21B12F2A1F9A002F0CCFA92
:1011400002F006FAD4E90F20216802FB0011616069
:101150000021A1632168A1600A46D4E90F01401E65
:1011600000FB0121E16021464FF0FF3001F8440F00
:10117000487004F110004DB1FFF794FF04F1240012
:10118000FFF790FF02F0FEF9012070BD21690029F0
:10119000F8D001F06CFA0028F4D0E5494FF0805007
:1011A0000860BFF34F8FBFF36F8FEBE72DE9F84374
:1011B0001C46DDF8208016460D46070005D14FF489
:1011C000A972D0A1D6A002F087FA2CB94FF4AB7265
:1011D000CCA1D3A002F080FA1EB14DB94FF4AD728C
:1011E00002E02DB140F25B12C6A1CDA002F074FA6C
:1011F000482000904CB1012084F846004346324616
:1012000029463846009400F09EFC2046BDE8F8834D
:10121000F8B517460E46050005D14FF4C472B9A1C2
:10122000BFA002F059FA9EB105FB06F0483002F06B
:1012300039F804000AD0002084F8460004F148027E
:101240003B4631462846009400F07DFC2046F8BD20
:101250000020EBE72DE9F041044602F079F994F91A
:10126000455004F1240609E0606A48B1304601F0B7
:10127000FEF908B101F0ADFA6D1E6DB2002DF3DC80
:101280004FF0FF3684F8456002F07CF902F060F917
:1012900094F9445004F1100709E0206948B1384638
:1012A00001F0E5F908B101F094FA6D1E6DB2002D60
:1012B000F3DC84F84460BDE8F04102F063B92DE945
:1012C000F041856B174604460026026C82B1C7B117
:1012D000E06802F0C7F9E168206C091AE160226851
:1012E000914202D26168081AE060022F16D017E01E
:1012F0002068A8B9606801F0CCFA0646002060605A
:101300000EE0A06802F0AEF9216CA0680844A0606D
:101310006168884204D32068A06001E005B16D1EB9
:101320006D1CA5633046BDE8F0812DE9FF4F83B009
:101330001F468B4604004FF0000605D140F2D9222B
:1013400070A177A002F0C8F9BBF1000F07D1206CA3
:1013500028B140F2DA226BA171A002F0BDF9022F90
:1013600008D1E06B012805D040F2DB2265A16CA01A
:1013700002F0B2F901F034FA38B9059828B140F218
:10138000DE2260A166A002F0A7F94FF0000A4FF03C
:101390008058DFF89C9102F0DBF8A06BE16B88428B
:1013A00005D3022F03D00598C8B1DEB11EE03A463E
:1013B00059462046FFF783FF616A19B104F1240002
:1013C00001F055F928B1C9F80080BFF34F8FBFF382
:1013D0006F8F02F0D7F8012007B0BDE8F08F02F060
:1013E000D1F821E0684601F0B0F9012602F0CAF810
:1013F00000F045FE02F0ACF894F94400401C01D125
:1014000084F844A094F94500401C01D184F845A01B
:1014100002F0B8F805A9684601F0A8F930B12046F5
:10142000FFF718FF00F080FD0020D5E702F090F8EC
:10143000A06BE16B884201D1012500E0002502F09C
:10144000A1F895B104F11000059901F0B7F8204614
:10145000FFF700FF00F068FD00289CD1C9F800806C
:10146000BFF34F8FBFF36F8F95E72046FFF7F2FE74
:1014700000F05AFD8FE710B5024600210120FFF76A
:10148000C7FE044600F06AFB204610BD38B50B4687
:101490000022009011460120FFF788FE044600F06C
:1014A0005DFB204638BD10B5040005D140F2412255
:1014B00014A11BA002F010F901F08FF961688842B5
:1014C0000BD1E068401EE06005D100231A461946A2
:1014D0002046FFF72AFF012010BD002010BD30B4C8
:1014E000026C0B46002A0BD0C1681144C1604468ED
:1014F000A14201D30168C16030BC184602F0B2B805
:1015000030BC70472E2E5C2E2E5C467265655254A0
:101510004F535C7372635C71756575652E63000073
:101520004572726F723A25732C25640D0A00000013
:1015300004ED00E02DE9FF4F83B09B468A4604008E
:101540004FF0000607D140F2DC42AFF24801AFF2A3
:10155000300002F0C1F8BAF1000F09D1206C38B1A7
:1015600040F2DD42AFF26401AFF24C0002F0B4F899
:1015700001F036F948B9059838B14FF49C62AFF2E2
:101580007C01AFF2640002F0A7F84FF000094FF0C1
:101590008057DFF8F88501F0DBFFA56B35B35146C6
:1015A0002046E668FFF79BFFBBF1000F11D0E66015
:1015B000606A50B104F1240001F059F828B1C8F86C
:1015C0000070BFF34F8FBFF36F8F01F0DBFF01207F
:1015D00002E76D1EA563206810B901F0ACF96060E8
:1015E00020690028F1D004F11000E5E7059808B162
:1015F0001EB106E001F0C6FF27E0684601F0A5F83D
:10160000012601F0BFFF00F03AFD01F0A1FF94F9BF
:101610004400401C01D184F8449094F94500401CDA
:1016200001D184F8459001F0ADFF05A9684601F0AD
:101630009DF8002820460AD0FFF70CFE00F074FC4D
:10164000204600F096FA0028A5D00020C4E600F05D
:1016500090FAD8B1206830B901F07AFF606801F0E3
:10166000CAF801F08FFF04F12400059900F0A6FFED
:101670002046FFF7EFFD00F057FC00288BD1C8F89B
:101680000070BFF34F8FBFF36F8F84E72046FFF7E3
:10169000E1FD00F049FC7EE770B50D46040007D17E
:1016A0004FF41E72AFF2A411AFF28C1002F014F8D6
:1016B00001F093F86168884204D1E068401CE06062
:1016C000012070BD00232A4619462046FFF732FF4D
:1016D0000028F6D0E168491CE16070BDF8B51646F7
:1016E0000C46050007D140F2A122AFF2E811AFF29B
:1016F000D01001F0F1FFAC4207D940F2A222AFF2C4
:10170000FC11AFF2E41001F0E7FF0220002200908C
:10171000334611462846FFF749FD002800D0846370
:10172000F8BD70B50C46050007D140F2BD22AFF2FE
:101730002C21AFF2142001F0CFFFAC4207D940F2C8
:10174000BE22AFF24021AFF2282001F0C5FF0222F5
:1017500000212846FFF75CFD002800D0846370BD9F
:101760002DE9F0471F4690468946040007D140F214
:101770009F32AFF27021AFF2582001F0ADFFB9F106
:10178000000F09D1206C38B14FF46872AFF28C2190
:10179000AFF2742001F0A0FF022F0AD1E06B012804
:1017A00007D040F2A132AFF2A421AFF28C2001F0B9
:1017B00093FF01F00CFF5020EFF3118680F31188A6
:1017C000BFF34F8FBFF36F8FA06BE16B884206D3DF
:1017D000022F04D0002086F31188BDE8F08794F929
:1017E00045503A4649462046FFF769FD681C04D03B
:1017F0006D1C84F845500120EDE7606A0028FAD09E
:1018000004F1240000F033FF0028F4D0B8F1000FF9
:10181000F1D00121C8F80010EDE770B50E460400C4
:1018200007D140F23C42AFF22431AFF20C3001F06C
:1018300053FF206C38B14FF48862AFF23831AFF209
:10184000203001F049FF206848B9606838B140F2A3
:101850004542AFF25031AFF2383001F03DFF01F0B8
:10186000B6FE5020EFF3118580F31188BFF34F8F40
:10187000BFF36F8FA16BE06B884218D994F94500D4
:10188000491CA163411C04D0401C84F84500012080
:101890000EE0606A0028FAD004F1240000F0E7FEB0
:1018A0000028F4D0002EF2D001203060EFE70020B5
:1018B00085F3118870BD2DE9F047904689460400F4
:1018C00007D14FF4B462AFF2C431AFF2AC3001F0E3
:1018D00003FFB9F1000F09D1206C38B140F2A152D9
:1018E000AFF2E031AFF2C83001F0F6FE01F06FFE6A
:1018F0005020EFF3118780F31188BFF34F8FBFF3B0
:101900006F8FA66BF6B194F9445049462046FFF715
:10191000E6FD761EA663681C04D06D1C84F8445056
:10192000012010E020690028FAD004F1100000F036
:101930009EFE0028F4D0B8F1000FF1D00121C8F8C4
:101940000010EDE7002087F3118846E72DE9F0410C
:101950000E46040007D140F2FC52AFF25841AFF2FC
:10196000404001F0B9FE4EB9206C48B140F2FD5242
:10197000AFF27041AFF2584001F0AEFE206C38B9C2
:1019800040F2FE52AFF28441AFF26C4001F0A4FE8F
:1019900001F01DFE5020EFF3118580F31188BFF395
:1019A0004F8FBFF36F8FA06B30B131462046E76891
:1019B000FFF795FD0120E76085F31188B3E410B5CA
:1019C000040007D140F22F62AFF2C841AFF2B0403D
:1019D00001F082FE01F0BCFDA46B01F0D3FD2046B6
:1019E00010BD10B5040007D140F24162AFF2EC41E6
:1019F000AFF2D44001F070FE01F0AAFDD4E90E1060
:101A0000441A01F0BFFD204610BD10B5040007D1F7
:101A100040F25162AFF21451AFF2FC4001F05CFEB3
:101A2000A06B10BD5A4A002102EBC1035B688342E0
:101A300006D1002042F8310002EBC1014860704736
:101A4000491C0A29F0D3704710B5040007D140F2B1
:101A50005D62AFF25051AFF2385001F03DFE2046CA
:101A6000FFF7E0FF94F84600002804D12046BDE8C7
:101A7000104001F082BC10BD10B5040007D140F247
:101A80009372AFF28051AFF2685001F025FEA06B67
:101A900008B1002010BD012010BD10B5040007D111
:101AA00040F2BA72AFF2A451AFF28C5001F014FEC2
:101AB000A06BE16B884201D1012010BD002010BD58
:101AC00010B5334B002253F832401CB1521C0A2A85
:101AD000F9D310BD43F8321003EBC201486010BDCA
:101AE00010B500242A4A214602EBC1035B688342F9
:101AF00002D152F8314002E0491C0A29F4D32046B1
:101B000010BD70B515460E46044601F021FD94F94E
:101B100044100020491C01D184F8440094F9451078
:101B2000491C01D184F8450001F02CFDA06B28B9B7
:101B30002A46314604F1240000F07EFD2046BDE82F
:101B40007040FFF787BB0346009829B10260C0E9E7
:101B50000F310121FFF7EABA0060F8E7002807D04B
:101B60000021416001600B460A46C160FFF7DDBB02
:101B7000704710B5044601F0EBFCA06B20B10024C7
:101B800001F000FD204610BD0124F9E704ED00E05E
:101B9000540700202DE9F041054601F0D9FCFD4E27
:101BA000B068401CB0603068FB4F10B1706930B352
:101BB0002BE03560B068012827D1002404EB8400B5
:101BC00007EB8000FFF76EFA641C202CF6D3F34875
:101BD000FFF768FAF1481430FFF764FAEF4828304D
:101BE000FFF760FAED483C30FFF75CFAEB48503005
:101BF000FFF758FAE94870631430B06305E03068C5
:101C0000E96AC06A884200D83560706A0121401CC8
:101C10007062E86A326981401143316100EB8000F3
:101C200007EB8000291DFFF74BFA01F0ABFC706950
:101C300000280CD03068E96AC06A884207D2D849C7
:101C40004FF080500860BFF34F8FBFF36F8FBDE838
:101C5000F0812DE9F0470E46DDE9098482466FF0F8
:101C60000301206B01EB82010844089D20F0070767
:101C70009946780705D040F22B32CAA1D0A001F0D6
:101C80002BFD00202218315C82F83410315C11B138
:101C9000401C1028F6D3002684F84360202D00D382
:101CA0001F25E562C4E91156201DFFF706FA04F16D
:101CB0001800FFF702FA2461C5F120006462A061F8
:101CC000E66484F850604A465146384601F0E1FB2C
:101CD0002060B8F1000F01D0C8F80040BDE8F087DF
:101CE0002DE9F04F85B09846DDE90F540E9F9146DF
:101CF0008A4683462DB940F25522AAA1B0A001F030
:101D0000EBFC0026A4B1CDB10220256384F851007C
:101D10000DF1040C04A800978CE8510043464A4694
:101D200051465846FFF795FF2046FFF733FF06E080
:101D300040F256229BA1A2A001F0CEFC049604988A
:101D400005B0BDE8F08F2DE9FF5F8346DDE90E8722
:101D5000994616468A46900001F0A4FA05001CD068
:101D6000542001F09FFA040014D00020256384F869
:101D70005100CDE90240CDE900874B46324651463D
:101D80005846FFF766FF2046FFF704FF012004B026
:101D9000BDE8F09F284601F0F0FA4FF0FF30F6E77B
:101DA00010B5044690F8510058B101280CD0022813
:101DB0000FD0BDE8104040F629627AA180A001F062
:101DC0008BBC206B01F0D9FA2046BDE8104001F031
:101DD000D4BA10BD70B5044601F0BAFB6D4D04B91C
:101DE0002C68201DFFF790F958B9E06A6A4A00EBA9
:101DF000800152F8211021B90121814028698843CE
:101E00002861A06A18B104F11800FFF77DF9686A2B
:101E1000401C68622868844208D16048211D3C301B
:101E2000FFF74EF96868401C686007E0A868401E2C
:101E3000A8602046FFF7B4FF00F03AFF01F0A2FBD4
:101E40006869002812D0286884420FD1286B28B115
:101E500040F2654253A15AA001F03EFC50494FF0B8
:101E600080500860BFF34F8FBFF36F8F70BD2DE9B7
:101E7000F041484F0026386B38B1B869401CB86152
:101E8000F86900B101263046E1E6FD686D1CFD6091
:101E900011D1786B006828B140F6D91241A148A051
:101EA00001F01AFC786BB96B7963B863386A401C2F
:101EB000386200F0FDFEB86ADFF8DC80854209D3A5
:101EC000786B006880B1786BC068C46860688542D0
:101ED0000DD2B8623868C06A00EB800158F8210062
:101EE0000128CDD90126CBE74FF0FF30F1E7201DC7
:101EF000FFF70AF9A06A18B104F11800FFF704F916
:101F0000E06A01213A6981401143396100EB8001A7
:101F100008EB8100211DFFF7D3F8E06A3968C96A30
:101F20008842CDD30126CBE72DE9F047194D002497
:101F30002746286B28B94FF4FD621AA120A001F0B2
:101F4000CBFB01F005FB286B401E2863286B00BB10
:101F5000A868124928310126D8B1DFF83C9088469C
:101F6000D8F80010A1B3D8F80C00C46804F1180028
:101F7000FFF7CAF8201DFFF7C7F8E06A2A6906FADA
:101F800000F11143296100EB800109EB8100211D63
:101F90001FE03EE034000020A4070020240A0020B7
:101FA00004ED00E02E2E5C2E2E5C467265655254C8
:101FB0004F535C7372635C7461736B732E630000C8
:101FC0004572726F723A25732C25640D0A00000069
:101FD00008E0FFF775F8E06A2968C96A8842BFD34C
:101FE000EE61BDE70CB100F063FEAC693CB1FFF7F8
:101FF0003EFF00B1EE61641EF9D10020A861E869DE
:1020000038B1FF49012738070860BFF34F8FBFF38E
:102010006F8F01F0B7FA384660E62DE9F041F94ECE
:102020000F460446F5683068001DFFF76DF838B9B3
:10203000306890F82C10012088403169814331616B
:10204000601C07D137B13168BDE8F041EE48091D89
:10205000FFF736B830682C44AC424460316805D292
:10206000B06BBDE8F041091DFFF736B8706B091D74
:10207000FFF732F8B06A844200D2B462E7E5E14883
:10208000016B491C016370472DE9F0410E460500C4
:102090004FF0000407D140F27942AFF2F801AFF2FD
:1020A000E00001F019FB3EB940F27A42AFF20C11A8
:1020B000AFF2F40001F010FBD24F386B38B140F2B0
:1020C0007B42AFF22011AFF2081001F005FBFFF7E1
:1020D000D6FFFA6828688119904202D9884202D84E
:1020E00004E0884201D8914200D9012429601CB142
:1020F000881A0021FFF791FFFFF716FF002807D18C
:10210000BF494FF080500860BFF34F8FBFF36F8F10
:102110009DE510B5040014D0BA49096B39B140F2FD
:10212000CF42AFF28011AFF2681001F0D5FAFFF79D
:10213000A6FF00212046FFF770FFFFF7F5FE0028FD
:1021400007D1AF494FF080500860BFF34F8FBFF306
:102150006F8F10BD70B5050007D140F2FB42AFF2A2
:10216000BC11AFF2A41001F0B7FAA64E3068854258
:1021700001D1002070BD01F0EBF96C6901F002FAA9
:10218000706B844202D0B06B844201D1022070BDDA
:102190009D48844204D1A86A0028F7D1032070BD6D
:1021A00099481438844202D00CB1012070BD04203B
:1021B00070BD10B5044601F0CBF90CB99148046824
:1021C000E46A01F0DFF9204610BD10B5044601F0C5
:1021D000FEF95020EFF3118180F31188BFF34F8F88
:1021E000BFF36F8F0CB987480468E06A81F31188E8
:1021F00010BD2DE9F04100260D460446202908D3E4
:102200004FF4B062AFF26421AFF24C2001F064FAF7
:102210001F2501F09DF97B4F04B93C68606CA84212
:102220003FD03968854206D98C4207D03968C96ADF
:10223000A94202D902E08C4200D10126E16A884617
:10224000884200D1E5626564A069002802DBC5F11F
:102250002000A0616D4D08EB8800616905EB8000EE
:10226000814215D1201DFEF74FFF012120B93A69A7
:1022700001FA08F082433A61E06A3A698140114309
:10228000396100EB800005EB8000211DFEF718FF8F
:102290003EB15B494FF080500860BFF34F8FBFF3F2
:1022A0006F8FBDE8F04101F06DB970B5554D286BE9
:1022B00010B10120E86170BD0020E8612869534E2B
:1022C000B0FA80F0C0F11F0000EB800456F8240043
:1022D00038B940F6F622AFF23431AFF21C3001F0DB
:1022E000FBF906EB840000F108024168496841608F
:1022F000914201D149684160C868286070BD70B5DD
:10230000044601F025F93F4D04B92C68201DFEF765
:10231000FBFE58B9E06A3D4A00EB800152F82110FB
:1023200021B901218140286988432861A06A18B138
:1023300004F11800FEF7E8FE211D3348FEF7C0FE49
:1023400001F020F9686928B101F002F900F0B0FC51
:1023500001F018F92868844213D1686990B1286B9C
:1023600038B140F25762AFF2C431AFF2AC3001F095
:10237000B3F923494FF080500860BFF34F8FBFF38C
:102380006F8F70BD2048A9680068884202D1002084
:10239000286070BDBDE8704087E770B50025040077
:1023A00007D140F28162AFF20441AFF2EC3001F0AC
:1023B00093F915496069884205D1A06A2839884295
:1023C00001D000B90125284670BD70B5040035D094
:1023D0000C4D286884423BD001F0BAF82046FFF744
:1023E000DCFF38B3201DFEF78FFEE06A01212A6969
:1023F00081401143296100EB8000044908E000009E
:1024000004ED00E034000020740A0020A40700203E
:1024100001EB8000211DFEF753FEE06A2968C96ABE
:10242000884207D3FF494FF080500860BFF34F8FB9
:10243000BFF36F8FBDE8704001F0A4B840F2AB620B
:10244000AFF2A041AFF28840BDE8704001F044B95E
:1024500070BD2DE9F0410026040007D140F2E26290
:10246000AFF2C041AFF2A84001F036F901F0AFF889
:102470005020EFF3118580F31188BFF34F8FBFF326
:102480006F8F2046FFF789FFE8B1E74F386B18B12F
:1024900004F11801E54814E0E06A3968C96A884225
:1024A00000D30126201DFEF72FFEE06A01213A69C4
:1024B000814011433961DE4900EB800001EB80006F
:1024C000211DFEF7FDFD85F311883046DCE4D84E72
:1024D0004FF08054D34D00F0F8FB30680128FAD952
:1024E0002C60BFF34F8FBFF36F8FF4E730B587B029
:1024F0000025039505AA04A903A80495FEF735FC59
:10250000DDE903010095CDE901100023C9A1CB4805
:10251000059AFFF7E5FBC44CE06218B100F0DCFC63
:1025200001280CD0401C1CD140F28472AFF28C51B7
:10253000AFF2745007B0BDE8304001F0CDB8502084
:1025400080F31188BFF34F8FBFF36F8F4FF0FF30D1
:10255000A06201206061E56007B0BDE8304000F096
:10256000B5BF07B030BD502080F31188BFF34F8F47
:10257000BFF36F8FAC490020486100F0DDBFAA486F
:10258000C068704710B501F022F8A748C06810BDB8
:10259000A5488068704710B510B104461CB10AE028
:1025A000A1480468FAE740F68C02AFF20861AFF286
:1025B000F05001F091F804F1340010BD70B50D46F3
:1025C000040007D140F60632AFF22861AFF2106086
:1025D00001F082F89448016820461831FEF77CFD2E
:1025E0002846BDE87040012117E52DE9F041174666
:1025F0000E46050007D140F61732AFF25861AFF230
:10260000406001F069F8884C206B38B940F61B3205
:10261000AFF27061AFF2586001F05EF8216846F0E9
:1026200000408861216828461831FEF749FD384688
:10263000BDE8F0410121F0E470B514460E460500F6
:1026400007D140F63132AFF2A461AFF28C6001F0F5
:1026500043F87548016828461831FEF731FD0CB182
:102660004FF0FF3621463046BDE87040D5E42DE9F5
:10267000F041C068C4683CB940F66132AFF2DC6139
:10268000AFF2C46001F028F804F118000746FEF725
:102690003BFD654D286B012658B139466348FEF76E
:1026A0000FFDE06A2968C96A884212D90120EE61EB
:1026B000E4E4201DFEF728FDE06A2A6906FA00F12D
:1026C000114329615A4900EB800001EB8000211D74
:1026D000E5E70020D2E470B5534D06460C46286B62
:1026E00038B940F69932AFF24471AFF22C7000F075
:1026F000F3FF44F000403060F4683CB940F6A1328A
:10270000AFF26071AFF2487000F0E6FF3046FEF7BE
:10271000FBFC201DFEF7F8FCE06A01262A6906FA98
:1027200000F111432961424900EB800001EB800078
:10273000211DFEF7C5FCE06A2968C96A884202D9F2
:102740000120EE6170BD002070BD10B5040007D1FE
:1027500040F6C132AFF2B471AFF29C7000F0BCFF32
:102760003148016A2160C068606010BD70B50D46D7
:10277000040007D140F6CB32AFF2D871AFF2C0708F
:1027800000F0AAFF3DB940F6CC32AFF2E871AFF2EB
:10279000D07000F0A1FF00F0DBFE234AD06829686A
:1027A0004B1C0FD02368126A934202D062688242A7
:1027B0000AD96268801A884206D2081A2860204620
:1027C000FFF7C3FF002400E0012400F0DBFE2046F9
:1027D00070BD15490120C8617047134800687047F3
:1027E0001148416919B1006B18B1002070470120F0
:1027F00070470220704770B5040049D00A4DE06A66
:102800002968C96A884243D2A069002804DB286885
:10281000C06AC0F12000A061E06A054E00EB8000B4
:102820000EE0000004ED00E0340000204C0A00201F
:10283000A407002049444C4500000000CF240008B4
:10284000616906EB800081421FD1201DFEF75CFC10
:10285000012150B9E06A00EB800256F8222022B92B
:102860002A6901FA00F082432A612868C06AE0629E
:102870002A6981401143296100EB800006EB80004A
:10288000211DBDE87040FEF71BBC2868C06AE062ED
:1028900070BD70B504004FF0000640D0FC4D2868B4
:1028A000844207D040F6C762AFF60811AFF6F000D9
:1028B00000F012FFA06C38B940F6C962AFF61C11E7
:1028C000AFF6041000F008FFA06C401EA064626C1C
:1028D000E16A914223D010BB201DFEF715FCED49A3
:1028E000012250B9E06A00EB800351F8233023B98C
:1028F0002B6902FA00F083432B61606CE062C0F147
:102900002000A061E06A2B6982401A432A6100EB33
:10291000800001EB8000211DFEF7D2FB012630462E
:1029200070BDDB4908680A688069D26A0968C2F12B
:1029300020028A617047D649086818B10868826C1D
:10294000521C82640868704770B50C46064600F059
:10295000FFFDCF4D2868C06C80B92968012081F83F
:1029600050005CB101212046FFF757FBCA494FF0E8
:1029700080500860BFF34F8FBFF36F8F00F002FEEF
:1029800000F0E6FD2868C46C002034B116B1296857
:10299000C86402E02A68611ED164296881F8500089
:1029A00000F0F0FD204670BD2DE9F0411E461546B1
:1029B0008846074600F0CCFDB54C206890F85000E2
:1029C000022814D02068C16CB943C1642168012079
:1029D00081F850005EB101213046FFF71EFBAE4981
:1029E0004FF080500860BFF34F8FBFF36F8F00F040
:1029F000C9FD00F0ADFD15B12068C06C28602068ED
:102A000090F8500001280DD02068C16C21EA08011F
:102A1000C16401252168002081F8500000F0B2FD5A
:102A2000284653E50025F5E72DE9F0411F4690467D
:102A30000D4604004FF0010607D141F2FD02AFF64A
:102A40009C21AFF6842000F047FE00F081FD0FB11D
:102A5000E06C386094F85000022184F85010B8F10E
:102A6000050F0ED2DFE808F00D03060C0A00E16C3A
:102A7000294301E0E16C491CE16402E0022803D033
:102A8000E564012802D02AE0002628E0201DFEF798
:102A90003BFB7F4DE06A01212A6981401143296196
:102AA0007C4900EB800001EB8000211DFEF708FB54
:102AB000A06A38B141F23512AFF61831AFF60030E6
:102AC00000F00AFEE06A2968C96A884207D972499B
:102AD0004FF080500860BFF34F8FBFF36F8F00F04F
:102AE00051FD3046F2E42DE9F0471F46DDF8209015
:102AF00092460D4604004FF0010807D141F26812DA
:102B0000AFF66031AFF6483000F0E6FD00F05FFD53
:102B10005020EFF3118680F31188BFF34F8FBFF37E
:102B20006F8F0FB1E06C386094F85000022184F888
:102B30005010BAF1050F0ED2DFE80AF00D03060CB3
:102B40000A00E16C294301E0E16C491CE16402E008
:102B5000022803D0E564012803D031E04FF00008DB
:102B60002EE0A06A38B141F2AF12AFF6C831AFF62D
:102B7000B03000F0B1FD464D286B012778B104F16B
:102B800018014648FEF79CFAE06A2968C96A88423B
:102B900016D9B9F1000F12D0C9F8007010E0201D4D
:102BA000FEF7B2FAE06A2A6907FA00F111432961D7
:102BB00000EB8001374800EB8100211DE2E7EF6167
:102BC00086F311884046BDE8F0872DE9F04188463C
:102BD000040007D141F2E312AFF63841AFF62040CE
:102BE00000F07AFD00F0F3FC5020EFF3118780F342
:102BF0001188BFF34F8FBFF36F8F94F850000221FD
:102C000084F85010E16C491CE16401282ED1A06ABF
:102C100038B141F20922AFF67441AFF65C4000F0E2
:102C20005BFD1B4D286B012678B104F118011B4890
:102C3000FEF746FAE06A2968C96A884216D9B8F1EF
:102C4000000F12D0C8F8006010E0201DFEF75CFAFB
:102C5000E06A2A6906FA00F1114329610D4900EB87
:102C6000800001EB8000211DE2E7EE6187F311880F
:102C70002CE410B5A0B1044600F06AFC94F85000B2
:102C8000022810D0002400F07DFC204610BD00007A
:102C900034000020A407002004ED00E04C0A0020CE
:102CA0001C480468E8E7002084F850000124EAE7A3
:102CB0001848416B096829B1416BC968C9684968FE
:102CC000816270474FF0FF31FAE770B5124E114D37
:102CD0001CE0FFF7D4F9306820B10024FFF724F995
:102CE000A4B901E00124F9E700F032FCF068C468FF
:102CF000201DFEF709FAA868401EA8606868401EFB
:102D0000686000F03FFC2046FFF74AF8686800283A
:102D1000DFD170BD34000020600A002070B50024AF
:102D20004160FB4D0061914206D8D11A82699142FF
:102D300006D2011D286907E09A4203D2994201D3C5
:102D4000012403E0011DE868FEF7C6F9204670BDC6
:102D50002DE9FE4F9946DDF830A090460D4606005D
:102D60004FF0000705D14FF4D372EAA1F0A000F0B4
:102D7000B3FCE74C206880B1CDE900580296062DDF
:102D800010DAFFF72DFD02284FF0000308D00022D3
:102D900069462068FEF7C9FA07463846BDE8FE8F47
:102DA0005246F5E700234A466946FEF7D9FCF3E7A9
:102DB00070B586B0D64E50E0019800284DDB039CDC
:102DC000606910B1201DFEF79FF904A800F067F9B3
:102DD000054601980A2840D2DFE800F00505053FC6
:102DE000283905053F280298A169034601442A466F
:102DF0002046FFF793FF00282FD0616A20468847BE
:102E0000E069012829D1002000900298A1690023DF
:102E1000421819462046FFF79BFF00281DD140F2BB
:102E20002132BCA1C2A000F057FC16E00298A061BC
:102E300028B94FF44E72B7A1BDA000F04DFCA069B7
:102E40002B4641191A462046FFF768FF05E094F823
:102E5000280010B9204600F090FA00231A4601A974
:102E60003068FEF767FB0028A6D106B070BDA84CFD
:102E7000E068016839B1002139B1002000F021F982
:102E8000FFF796FFF4E70121F6E7C0680068F5E771
:102E900038B500F05DFB9E4C2068C8B9A848FEF725
:102EA00001F9A7481430FEF7FDF8A548E06014309A
:102EB0002061A34B0020C03B009003F148020C218D
:102EC0000A20FEF773F9206010B19EA1FEF7F8FD0D
:102ED000BDE8384000F056BB30B587B00024FFF79E
:102EE000D7FF8B4D2868B0B100200390049005AA4D
:102EF00004A903A8FDF741FFDDE903211F208DE8A8
:102F00000700002391A19348059AFEF7E9FE686047
:102F100008B1012405E040F233127EA184A000F044
:102F2000DBFB07B0204630BD2DE9F0471E46DDE94A
:102F3000089417460D00804605D14FF4C67275A15E
:102F40007BA000F0C9FB002C0CD0FFF7A1FFC4F858
:102F50000080C4E90657C4E90869201DBDE8F047B0
:102F6000FEF7ABB8BDE8F0872DE9FC4781461E4669
:102F7000174688462C200A9D00F094F904000AD0D8
:102F8000CDE9005433463A4641464846FFF7CCFF68
:102F9000002084F828002046BDE8FC872DE9FC4786
:102FA0008146DDE90A542C201E46174688460090CB
:102FB0002CB94FF4B77257A15DA000F08DFB54B14E
:102FC000CDE9005433463A4641464846FFF7ACFF48
:102FD000012084F828002046DEE710B54C4C6068DC
:102FE00028B94FF4E8724BA151A000F075FB60685E
:102FF00010BD10B5040005D140F2D91245A14CA076
:1030000000F06AFBA06910BD10B5040005D140F2C4
:10301000E31240A146A000F05FFB606810BD10B550
:10302000040005D140F2ED123AA141A000F054FB9A
:10303000206810BD10B5040005D140F2DA3235A188
:103040003BA000F049FB00F083FA606908B101245D
:1030500000E0002400F096FA204610BD10B50400F0
:1030600005D140F2EF322BA131A000F035FB00F08A
:103070006FFA246A00F086FA204610BD70B50D463E
:10308000040005D140F2FF3222A129A000F024FB68
:1030900000F05EFA2562BDE8704000F073BA70B5CA
:1030A0000546FFF76CFA1A4E0446B068844203D214
:1030B00000F060F8012000E0002028602046B460A5
:1030C00070BDF8B50D460646FEF7D9FF6846FFF716
:1030D000E6FF0446009810B1FEF726FFF8BD0C4845
:1030E000ADB101690968C9B30025311B2A460068E2
:1030F000FEF707FDFEF718FF0028EFD116494FF045
:1031000080500860BFF34F8FBFF36F8FF8BD26E08C
:10311000700000202E2E5C2E2E5C46726565525487
:103120004F535C7372635C74696D6572732E6300D8
:103130004572726F723A25732C25640D0A000000E7
:10314000480B0020546D725100000000546D722035
:10315000537663006F2E000804ED00E008E0A642FD
:10316000C3D8FEF7E1FE2146304600F034F8F8BD42
:103170000125BAE7F8B52D4E25E0C068C46805689A
:10318000201DFDF7C1FF616A20468847E0690128DC
:1031900019D1A0692844A84206D924616060211D84
:1031A000F068FDF799FF0EE000200346014600900D
:1031B0002A462046FFF7CCFD28B940F292321CA1E6
:1031C00022A000F089FAF06801680029D5D13169A0
:1031D000C6E90310F8BDF8B5054614480E46C068A8
:1031E000C068C468201DFDF78FFFE069012816D173
:1031F000A0692B46411932462046FFF78FFD70B17A
:1032000000200346014600902A462046FFF7A0FD15
:1032100028B94FF4027206A10CA000F05DFA616AB1
:1032200001B02046BDE8F0400847000070000020D3
:103230002E2E5C2E2E5C4672656552544F535C7385
:1032400072635C74696D6572732E63004572726F90
:10325000723A25732C25640D0A00000030B57449BC
:1032600000E011460A688242FBD34B685C18844236
:1032700003D1406818444860084643681C189442CB
:1032800009D16B4C103C2468A24209D052681A4400
:1032900042600A6812680260814200D0086030BD56
:1032A0000460F9E72DE9F04105460026FEF7E7FE48
:1032B0005F4F103F386808B900F098F8F868054289
:1032C0004ED1002D4CD0083568070BD005F0070013
:1032D000C0F108000544680704D0BF2255A15FA0D3
:1032E00000F0FAF9002D3BD07868854238D8504973
:1032F0000846046801E0214604466068A84202D2FC
:1033000020680028F7D13868B846844228D00E6873
:103310002068086060680836401B10280ED96719BD
:10332000780704D0EC2243A14CA000F0D5F96068E6
:10333000401B786038466560FFF790FF6168D8F8F9
:1033400004004246401AC8F80400D8F808309842F1
:1033500000D29060D8F80C0001430020C4E90001BD
:10336000FEF7E2FD700705D04FF4967231A13BA045
:1033700000F0B2F93046BDE8F08170B500282BD0DE
:103380002B4DA0F10804103D6068E968084205D1A2
:103390004FF4A07227A131A000F09EF9206828B157
:1033A00040F2411223A12DA000F096F96068E9686F
:1033B000084211D02268002A0ED188436060FEF7CF
:1033C0005EFE60686968084468602046FFF746FF53
:1033D000BDE87040FEF7A8BD70BD154810384068C4
:1033E0007047134810388068704770471F484FF483
:1033F0001041420706D0C01D1C4920F00700411AA9
:10340000C1F510410A4A00230144C2E9000308390A
:10341000103A21F0070111604B600B600B1AC0E9F4
:10342000001393604FF000405360D060704700007D
:10343000940000202E2E5C2E2E5C46726565525440
:103440004F535C706F72745C4D656D4D616E675C5F
:10345000686561705F342E63000000004572726F12
:10346000723A25732C25640D0A000000700B0020B1
:1034700069484068401C04D0F42268A171A000F0A3
:103480002BF9502080F31188BFF34F8FBFF36F8F5C
:10349000FEE710B5031F4FF080741C601B1F21F066
:1034A00001011960191F6B4B0B60143940380A6019
:1034B00010BD69484FF47A710068B0FBF1F14FF02C
:1034C000E020491E41610721016170471CB5634935
:1034D00008780190FF20087008788DF800009DF8AA
:1034E00000004D4A00F0500010700720906007E087
:1034F0009068401E90609DF8000040008DF800002C
:103500009DF800000006F3D4107A000200F4E06099
:103510009060019808705248016841F470010160A0
:10352000016841F070410160FFF7C3FF0020506067
:10353000FCF71AFE00201CBD37484068B0F57A7FC2
:1035400005D04FF4B57235A13EA000F0C5B8704764
:10355000502080F31188BFF34F8FBFF36F8F2E4938
:103560004868401C486001280BD13D481C38006861
:1035700010F0FF0F05D04FF4BD7228A131A000F06C
:10358000ABB8704710B5244C606828B940F281127E
:1035900022A12CA000F0A0F86068401E606001D15C
:1035A00080F3118810BD10B5502080F31188BFF34F
:1035B0004F8FBFF36F8FFEF75AFC20B128494FF0B1
:1035C00080501C390860002080F3118810BD10B5B0
:1035D000FCF700FE104C10280CD300F1E02090F80E
:1035E000F0032178884205D24FF42A720BA115A06E
:1035F00000F072F81A4814380068A16800F4E0601E
:10360000884207D9BDE810404FF42E7203A10DA0E7
:1036100000F062B810BD00009C0000202E2E5C2E31
:103620002E5C4672656552544F535C706F72745CC9
:10363000525644535C41524D5F434D335C706F7240
:10364000742E63004572726F723A25732C25640DD7
:103650000A000000713400080000002000E400E0CF
:1036600020ED00E040EA01039B0703D009E008C910
:10367000121F08C0042AFAD203E011F8013B00F837
:10368000013B521EF9D2704730B50B46014600206F
:103690002022012409E021FA02F59D4205D303FA14
:1036A00002F5491B04FA02F52844151EA2F1010295
:1036B000F1DC30BD064C074D06E0E06840F0010348
:1036C00094E8070098471034AC42F6D3FCF734FD79
:1036D000D0380008F03800080FB4054B10B503A926
:1036E000044A029800F018F810BC5DF814FB0000C2
:1036F00009100008A800002002E008C8121F08C135
:10370000002AFAD170477047002001E001C1121F62
:10371000002AFBD1704700002DE9FF4F8BB09A467D
:103720000F460546002606E025280BD052460D9987
:1037300090476D1C761C28780028F5D10FB03046D4
:10374000BDE8F08F0024A0460122604900E0044358
:1037500015F8013F203B02FA03F00842F7D1287820
:103760002E2817D115F8010F44F004042A280ED092
:103770006FF02F022878A0F1300109290AD808EB50
:10378000880102EB410100EB01086D1CF2E757F8DC
:10379000048B6D1C287869283ED006DC0028CDD02B
:1037A00063280BD0642804D136E0732810D0752824
:1037B0004BD052460D999047761C85E017F8040BC4
:1037C0008DF8000000208DF80100E946012003E09B
:1037D00057F8049B4FF0FF3061074FF0000401D40D
:1037E0000AE0641C44450DDA8442FADB19F804103F
:1037F0000029F6D106E0641C8442FCDB19F80410B1
:103800000029F8D1264404E019F8010B52460D991D
:103810009047641EF8D257E001CF4FF00A0B002802
:1038200002DA40422D2102E0210504D52B218DF83A
:103830002410012103E0E10705D02021F7E70DF175
:10384000200908910CE00021F9E701CF4FF00A0BA5
:10385000F9E75946FFF718FF01F1300209F8012D89
:103860000028F6D1ADEB090000F1200B600701D470
:103870004FF00108D84502DDA8EB0B0000E0002066
:103880008046002406E009A85246005D0D99904745
:10389000641C761C08988442F5DB04E03020524614
:1038A0000D999047761CB8F10001A8F10108F5DCEC
:1038B00005E019F8010B52460D999047761CBBF1B3
:1038C0000001ABF1010BF4DC6D1C34E709280100A9
:1038D000F038000800000020AC000000F8360008B6
:1038E0009C390008AC000020C49E00000837000886
:1038F00000A24A04000000000000000001020304CE
:10390000060708090204060800000000010203047B
:10391000010203040607080900000000000000007F
:103920000000000000000000000000000000000097
:103930000000000000000000000000000000000087
:103940000000000000000000000000000000000077
:103950000000000000000000000000000000000067
:103960000000000000000000000000000000000057
:103970000000000000000000000000000000000047
:103980000000000000000000000000000000000037
:0C399000AAAAAAAA000000000000000083
:0400000508000131BD
:00000001FF
