:020000040800F2
:10000000D8990020DD010008810E0008830E000849
:10001000850E0008870E0008890E00080000000009
:100020000000000000000000000000004501000882
:100030008B0E000800000000890100088D0E0008EA
:10004000F7010008F7010008F7010008F7010008B0
:10005000F7010008F7010008F7010008F7010008A0
:10006000F7010008F7010008F7010008F701000890
:10007000F7010008F7010008F7010008F701000880
:10008000F7010008F7010008F7010008F701000870
:10009000F7010008F7010008F7010008F701000860
:1000A000F7010008F7010008F7010008F701000850
:1000B000F7010008F7010008F7010008F701000840
:1000C000F7010008F7010008F7010008F701000830
:1000D000F7010008F7010008F7010008F701000820
:1000E000F7010008F7010008F7010008F701000810
:1000F000F7010008F7010008F7010008F701000800
:10010000F7010008F7010008F7010008F7010008EF
:10011000F7010008F7010008F7010008F7010008DF
:10012000F7010008F7010008F7010008F7010008CF
:10013000DFF80CD002F070FC00480047430D0008C7
:10014000D8990020224B19680868B0E8F00F80F3B6
:100150000988BFF36F8F4FF0000080F311884EF0D5
:100160000D0E70470000000006480068006880F32C
:10017000088862B661B6BFF34F8FBFF36F8F00DFA1
:1001800000BF00BF08ED00E0EFF30980BFF36F8F01
:100190000F4B1A6820E9F00F106008B54FF05000BF
:1001A00080F31188BFF34F8FBFF36F8F01F00FFD06
:1001B0004FF0000080F31188BDE808401968086816
:1001C000B0E8F00F80F30988BFF36F8F704700BF6E
:1001D00038000020EFF30580704700000648804794
:1001E00006480047FEE7FEE7FEE7FEE7FEE7FEE71C
:1001F000FEE7FEE7FEE7FEE7A10200083101000886
:100200000CB500224C4800920192016841F4803103
:1002100001604FF4A063016801F40031019100997D
:10022000491C0091019911B900999942F3D10168D3
:10023000890333D50121019140490A6842F0100237
:100240000A600A6822F003020A600A6842F00202A9
:100250000A604168416041684160416841F48061E1
:100260004160416821F47C114160416841F4E8112A
:100270004160016841F08071016001688901FCD52D
:10028000416821F003014160416841F00201416091
:100290004168C1F381010229FAD10CBD01920CBD64
:1002A000254810B5016841F0010101604168244A08
:1002B000114041600168234A11400160016821F446
:1002C00080210160416821F4FE0141604FF41F016B
:1002D0008160FFF795FF1C494FF00060086010BD7A
:1002E000154A10B55068194B10F00C01184803D08E
:1002F000042901D0082901D0036012E05168536835
:1003000001F470114FF0020413F4803F04EB9141AB
:1003100002D053689B0301D50E4B00E00B4B5943B1
:10032000016051680A4AC1F30311121D515C026851
:10033000CA40026010BD00000010024000200240D0
:100340000000FFF8FFFFF6FE08ED00E000127A0063
:100350000000002000093D002849084328490860A2
:10036000704730B50F23C27801780125F2B1244AD5
:10037000126801F1E02102F4E062C2F5E062120AC3
:10038000C2F10404D3404278A24084781C40144354
:10039000220181F80024007800F01F018D404009FF
:1003A000800000F1E020C0F8005130BD01F01F00D6
:1003B00085404809800000F1E020C0F8805130BD40
:1003C000104A114001430E48001F016070470C4A5B
:1003D000121D0029116801D0014300E08143116022
:1003E00070474FF0E0210428086903D020F0040092
:1003F0000861704740F00400FAE700000000FA05C9
:100400000CED00E080FFFF1F8F4910B5884206D138
:100410000121042000F049FA002104203BE08B492F
:10042000884206D10121082000F03FFA002108206F
:1004300031E08749884206D10121102000F035FAC9
:100440000021102027E08349884206D10121202085
:1004500000F02BFA002120201DE07F49884206D1C0
:100460000121402000F021FA0021402013E07B49C7
:10047000884206D10121802000F017FA0021802057
:1004800009E0774988420AD184150121204600F00D
:100490000CFA00212046BDE8104000F006BA10BD5D
:1004A00010B50121084600F000FA0021BDE8104017
:1004B000012000F0FAB9F0B5CC78002204F00F0367
:1004C000E40601D58C7823430C784FF00F0C14F020
:1004D000FF0F4FF0010E1BD005680E880EFA02F4D4
:1004E0002640A64210D196000CFA06F725EA070727
:1004F00003FA06F5CE783D43282E02D0482E02D0CE
:1005000002E0446100E00461521C082AE5D3056062
:100510000A88FF2A1CD94468002202F108060EFA54
:1005200006F50E882E40AE420ED196000CFA06F764
:10053000BC4303FA06F7CE783C43282E00D1456130
:10054000CE78482E00D10561521C082AE5D34460BC
:10055000F0BD4FF6FF710180022181700421C1704E
:1005600070470246002092680A4200D0012070477E
:10057000806880B2704702460020D2680A4200D0EC
:1005800001207047C06880B27047016170474161C7
:1005900070470AB10161704741617047C16070479F
:1005A00041F4803282618161826181698069704732
:1005B0002C4B10B51A684FF68074224042EA0010A6
:1005C0000843186010BD2849C8617047F0B5254C34
:1005D000002801DAE36900E06368450D2E0185B269
:1005E000C0F30157B540C0F30342032F05D0C60244
:1005F0000AD503269640B34307E023F07062636890
:1006000023F07063636002E0AB4343F0706201B1BA
:100610002A43002801DAE261F0BD6260F0BD10B546
:100620008A0721F003040F49120F21440F238C681D
:1006300093409C438C608B68904003438B6010BD5B
:100640000949C1F8DC00704700080140000C014076
:10065000001001400014014000180140001C01403E
:10066000002001400000014000002042A548016830
:1006700041F0010101604168A34A114041600168F5
:10068000A24A11400160016821F4802101604168A3
:1006900021F4FE0141604FF41F01816070479949C8
:1006A0000A6822F480320A600A6822F480220A6012
:1006B000B0F5803F07D0B0F5802F03D1086840F433
:1006C000A02008607047086840F48030F9E70346CE
:1006D000002059098B4A01290AD002290AD0516AFF
:1006E00003F01F02012393400B4200D0012070470A
:1006F0001168F5E7116AF3E718B500204FF4A0641C
:1007000000903120FFF7E3FF0099491C0091A142BE
:1007100001D00028F5D03120FFF7D9FF002800D004
:10072000012018BD774A116821F0F80141EAC000A4
:1007300010607047764908607047724B5A680843EA
:1007400022F47C1210435860704771490866704764
:100750006C4A516821F003010143516070476948B8
:10076000406800F00C007047664A516821F0F001C3
:10077000014351607047634A516821F4E0610143CD
:10078000516070475F4A516821F4605141EAC000EE
:10079000506070475B4A0029517A01D0014300E064
:1007A0008143517270475A49C1F8D8007047554A81
:1007B000516821F440410143516070475149002282
:1007C00081F8202081F82020012802D0042802D1BD
:1007D000052081F8200070474E490860704749495C
:1007E0000A6A02430A6270474A49443908607047FE
:1007F00030B5444A5168484B11F00C0103D004292C
:1008000001D0082901D0036012E05168536801F457
:1008100070114FF0020413F4803F04EB914102D0B9
:1008200053689B0301D53D4B00E03B4B59430160AE
:1008300051680F2303EA1111394B5C5C0168E140F8
:1008400041605468072505EA14241C5D21FA04F46C
:100850008460546805EAD4241B5DD940C1605268A5
:10086000032303EA92322E4B1B1F9A5CB1FBF2F179
:10087000016130BD234A0029516901D0014300E0E4
:100880008143516170471F4A0029916901D001439A
:1008900000E08143916170471A4A0029D16901D073
:1008A000014300E08143D1617047164A0029D168B5
:1008B00001D0014300E08143D1607047114A002913
:1008C000116901D0014300E0814311617047114972
:1008D0004039086070470E49C86470470949C871BB
:1008E00070470848416A41F0807141627047054A8B
:1008F0000146002092680A4200D001207047014959
:1009000088727047001002400000FFF8FFFFF6FEFB
:10091000000042428004424200127A0000093D0079
:1009200018000020C44910B588420AD101218C0367
:100930002046FFF7BAFF2046BDE810400021FFF730
:10094000B4BFBE49884202D101214C0410E0BC4929
:10095000884202D101218C040AE0BA49884202D1BE
:100960000121CC0404E0B84988420AD101210C05D8
:100970002046FFF7A3FF2046BDE810400021FFF707
:100980009DBF10BD30B50446008A85B00D464CF6BB
:10099000FF710840E98801432182A0894EF6F311D6
:1009A0000840A9882A8911436A8902431143A18119
:1009B000A08A4FF6FF410840A9890143A1826846F9
:1009C000FFF716FF9C48844201D1039800E002988B
:1009D000A189090400EBC00101EB0010296801D5D1
:1009E000490000E08900B0FBF1F06422B0FBF2F1B5
:1009F00009010B096FF018056B4300EB8300A38915
:100A00001D044FF0320306D503EBC000B0FBF2F03B
:100A100000F0070005E003EB0010B0FBF2F000F07F
:100A20000F000843208105B030BD4FF4165101601E
:100A300000218180C18001810C2242818181704727
:100A400010B5028A4FF2FF031A400B884C882343EB
:100A50008C88C9880C4323431343038210BD0021B3
:100A6000018041808180C18070470029818902D046
:100A700041F4005101E021F400518181704710B52B
:100A8000C1F3421301F01F040121A140012B07D043
:100A9000022B07D01430002A026805D00A4304E074
:100AA0000C30F8E71030F6E78A43026010BD002AE8
:100AB000828A01D00A4300E08A4382827047028A18
:100AC00022F00F020282028A0A4302827047828960
:100AD00022F40062828182890A4382817047002960
:100AE000818902D041F0020101E021F002018181FF
:100AF0007047028A22F020020282028A0A4302829E
:100B000070470029018A02D041F4804101E021F4BC
:100B1000804101827047C1F308018180704780885D
:100B2000C0F308007047818941F00101818170475D
:100B3000028BD2B20283028B42EA01210183704709
:100B4000028B02F47F420283028B0A4302837047C6
:100B50000029818A02D041F0200101E021F020012A
:100B6000818270470029818A02D041F0100101E0A2
:100B700021F01001818270470029818A02D041F062
:100B8000080101E021F00801818270470029818974
:100B900002D041F4004101E0C1F30E0181817047B0
:100BA0000029818A02D041F4006101E021F4006152
:100BB00081827047828A22F004028282828A0A43FA
:100BC000828270470029818A02D041F0020101E04F
:100BD00021F00201818270470246002012880A42F9
:100BE00000D001207047C9430180704770B501F003
:100BF0001F0501260024C1F3421306FA05F2012B5A
:100C00000FD0022B0FD0838A4FEA112100881342A4
:100C100006FA01F600EA060001D000B101242046E0
:100C200070BD8389F0E7038AEEE70A0A012191404B
:100C3000C943018070470000003801400044004073
:100C400000480040004C004000500040504D514FC3
:100C5000514C6E140121284600F02DFA012806D1CE
:100C60000121E06800F05CFA4CA001F0E7FE31469B
:100C7000384600F020FA012806D10221E06800F091
:100C80004FFA4AA001F0DAFE142000F0D4FEE1E7AA
:100C900008B50024404F494D661E012300961A46B0
:100CA0000321F86800F0D5FAC043800701D044A0C2
:100CB0000EE045A001F0C2FE286880F02000286008
:100CC0001CB100241CB146A002E00124FAE747A0B1
:100CD00001F0B4FE142000F0AEFEDEE71CB501F01A
:100CE000FBFD2D49012008310023CDE9000132220E
:100CF00041A1AFF2630000F0B8FC401C02D040A05C
:100D000001F09CFE24490220091D0023CDE90001C9
:100D1000802243A1AFF2CB0000F0A7FC401C02D020
:100D200041A001F08BFE00F0EDF91B49C86010B145
:100D300045A001F083FE002000F0DEFC01F0E6FD9E
:100D4000FEE71CB54FF44070FFF706FB00F0A8F873
:100D500000F098F900F0D4F80F4901200023CDE904
:100D60000001420242A1AFF28B0000F07EFC401C69
:100D700002D001F04DF8FEE74FF0FF301CBD3F4BB5
:100D8000036003F154000860802010607047000089
:100D90000008014000100140280000204B65793117
:100DA0005072657373210D0A000000004B657932A3
:100DB0005072657373210D0A000000000C0C014095
:100DC000455252210D0A00004B657931BACD4B6571
:100DD0007932B6BCB1BBB0B4CFC2210D0A0000005D
:100DE0004C4544204F4E0D0A000000004C45442065
:100DF0004F46460D0A0000004C65645461736B0059
:100E00004C65645461736B20437265617465207333
:100E100075636365737366756C6C792109000000F6
:100E20004B65795461736B004B65795461736B202A
:100E3000437265617465207375636365737366756A
:100E40006C6C7921090000004576656E745F48611D
:100E50006E646C65204372656174652073756363AD
:100E600065737366756C6C79210D0A0A00000000C9
:100E700053746172745461736B0000009C00002015
:100E80007047FEE7FEE7FEE7FEE7704710B501F0AA
:100E90000EF9012803D0BDE8104001F048BD10BD97
:100EA00038B501210820FFF7EEFC2020ADF8000046
:100EB00010208DF803000320104C8DF802006946C5
:100EC0002046FFF7F8FA0121ADF8001069462046E8
:100ED000FFF7F1FA0221ADF8001069462046FFF74E
:100EE000EAFA20212046FFF750FB01212046FFF7B8
:100EF0004CFB02212046FFF748FB38BD000C0140A7
:100F000010B586B001210420FFF7BDFC0121880344
:100F1000FFF7B9FC4FF40070ADF8100018208DF801
:100F200013000320554C8DF8120004A92046FFF74A
:100F3000C2FA2115ADF8101004218DF8131004A980
:100F40002046FFF7B8FA4FF4E13000900020ADF8EA
:100F50000400ADF80600ADF80800ADF80C000C2058
:100F6000474CADF80A0069462046FFF70BFD4FF4E9
:100F7000A060FFF7F1F925208DF8140001218DF80C
:100F800015108DF816108DF8171005A8FFF7E9F960
:100F9000012240F225512046FFF771FD0121204634
:100FA000FFF763FD06B010BD10B50446FFF7B3FDB3
:100FB00080212046FFF710FE0028F9D010BD2DE952
:100FC000F04115460E460746002405E0315D3846DF
:100FD000FFF7EAFF641CE4B2AC42F7D34021384685
:100FE000FFF7FAFD0028F9D0BDE8F08170B50D4695
:100FF000064600243046295DFFF7D6FF641C285DB5
:101000000028F7D140213046FFF7E6FD0028F9D04F
:1010100070BD70B50446080ACDB201462046FFF700
:101020007AFD80212046FFF7D7FD0028F9D0294618
:101030002046FFF770FD80212046FFF7CDFD0028F8
:10104000F9D070BD70B50E4D0446C1B22846FFF709
:1010500062FD80212846FFF7BFFD0028F9D0204619
:1010600070BD10B5064C20212046FFF7B5FD0028C5
:10107000F9D02046BDE81040FFF751BD00080140FF
:101080000038014038B501211420FFF7FCFB012096
:10109000ADF8000004248DF8034069460E48FFF7C0
:1010A0000AFAE002ADF800008DF8034069460B48EB
:1010B000FFF701FA38BD70B50C460546FFF751FA47
:1010C000012801D0002070BD21462846FFF749FACB
:1010D0000128F9D0012070BD000801400010014036
:1010E00010B5040004D18C22C3A1CCA001F0A6FC51
:1010F00034B100202060201D00F09AF901202076F4
:10110000204610BD70B51C2001F090FA040005D0F7
:101110000025201D256000F08BF92576204670BD46
:101120002DE9F04100258846040005D140F21D223A
:10113000B1A1BAA001F082FC5FEA186005D040F2CC
:101140001E22ADA1B5A001F079FC261D04F10C070B
:1011500000F027FC2168F06841EA0801216017E0EF
:10116000D0E9001601F07F425301236821F07F414E
:1011700002D40B4203D10AE031EA030307D1D201C2
:1011800000D50D43216841F0007100F00BFF30469F
:10119000B842E5D12068A843206000F057FB2068E2
:1011A000BDE8F0812DE9F04104461F46154688460A
:1011B000100E04D0D72290A198A001F03FFC25B9D1
:1011C000D8228DA195A001F039FC00F070FF28B95C
:1011D00027B1DB2288A191A001F030FC00F0E1FBF7
:1011E000204641462668FFF79BFF46EA080635EA97
:1011F000060008D067B145F0A0613A46201D00F016
:1012000076FE002605E02068A8430027206000E065
:10121000266800F01BFBD7B138B984494FF08050E5
:101220000860BFF34F8FBFF36F8F00F0DFFF0646FC
:1012300080010AD401F050FB266835EA060002D18D
:1012400026EA0500206001F061FB26F07F4630466B
:10125000A6E72DE9F0479A46089F91460D460400FF
:101260004FF0000605D140F24D1263A16BA001F0D2
:10127000E5FB280E05D04FF4A7725FA167A001F02F
:10128000DDFB2DB940F24F125BA164A001F0D6FB4B
:1012900000F00DFF30B92FB14FF4A97256A15FA035
:1012A00001F0CCFB00F07DFBD4F8008052462946CB
:1012B000404600F096F840B100274646B9F1000FCD
:1012C00015D02068A843206011E0AFB1B9F1000F3C
:1012D00001D04FF08076BAF1000F01D046F0806661
:1012E00045EA06013A46201D00F001FE002600F006
:1012F000ADFA1FB310B109E04646F8E74B494FF08D
:1013000080500860BFF34F8FBFF36F8F00F06EFF08
:101310000646800110D401F0DFFA266852462946BD
:10132000304600F05EF828B1B9F1000F02D0206815
:10133000A843206001F0EAFA26F07F463046BDE877
:10134000F08770B50E46040005D140F2DF122AA1E5
:1013500032A001F073FB300E05D04FF4F07226A1DD
:101360002EA001F06BFB01F0B7FA256825EA060014
:10137000206001F0CBFA284670BD5022EFF31181B6
:1013800082F31188BFF34F8FBFF36F8F006881F333
:10139000118870472DE9F0410646041D00F001FB5D
:1013A00004F1080540F27D274FF000780BE0E0687B
:1013B000A84204D13A4610A118A001F03FFB4146D3
:1013C000E06800F0EFFD20680028F0D1307E10B911
:1013D000304601F096F9BDE8F04100F037BA9FE6DB
:1013E000AFE70346002012B1994302D070470B4289
:1013F000FCD00120704700002E2E5C2E2E5C467221
:10140000656552544F535C7372635C6576656E74A8
:101410005F67726F7570732E630000004572726FA4
:10142000723A25732C25640D0A00000004ED00E0DB
:1014300000F108014FF0FF32C0E90112C160016103
:1014400000210160704700210161704742684A60D5
:1014500093688B6093685960916008610168491CCA
:101460000160704730B50C68621C02D000F10802C0
:1014700002E0026904E01A4653681D68A542FAD9E1
:1014800053684B6099608A60516008610168491C2B
:10149000016030BDD0E9013201699A60D0E90123D1
:1014A0005A604A68824201D182684A600022026121
:1014B0000868401E086070472DE9F041054601F0BC
:1014C0000BFAFD4EB068401CB0603068FB4F10B1A5
:1014D000706930B32BE03560B068012827D1002453
:1014E00004EB840007EB8000FFF7A2FF641C202CB4
:1014F000F6D3F348FFF79CFFF1481430FFF798FF4D
:10150000EF482830FFF794FFED483C30FFF790FF9D
:10151000EB485030FFF78CFFE94870631430B0633C
:1015200005E03068E96AC06A884200D83560706AB0
:101530000121401C7062E86A3269814011433161C7
:1015400000EB800007EB8000291DFFF77FFF01F013
:10155000DDF9706900280CD03068E96AC06A8842F9
:1015600007D2D8494FF080500860BFF34F8FBFF3C8
:101570006F8FBDE8F0812DE9F0470E46DDE9098463
:1015800082466FF00301206B01EB82010844089D45
:1015900020F007079946780705D040F22B32CAA100
:1015A000D0A001F04BFA00202218315C82F83410F0
:1015B000315C11B1401C1028F6D3002684F843603A
:1015C000202D00D31F25E562C4E91156201DFFF729
:1015D0003AFF04F11800FFF736FF2461C5F120003F
:1015E0006462A061E66484F850604A465146384619
:1015F00001F013F92060B8F1000F01D0C8F80040E5
:10160000BDE8F0872DE9F04F85B09846DDE90F542D
:101610000E9F91468A4683462DB940F25522AAA1D3
:10162000B0A001F00BFA0026A4B1CDB102202563D1
:1016300084F851000DF1040C04A800978CE85100C7
:1016400043464A4651465846FFF795FF2046FFF766
:1016500033FF06E040F256229BA1A2A001F0EEF972
:101660000496049805B0BDE8F08F2DE9FF5F83462E
:10167000DDE90E87994616468A46900000F0D6FFAF
:1016800005001CD0542000F0D1FF040014D000202D
:10169000256384F85100CDE90240CDE900874B462F
:1016A000324651465846FFF766FF2046FFF704FFD3
:1016B000012004B0BDE8F09F284601F022F84FF069
:1016C000FF30F6E710B5044690F8510058B10128F4
:1016D0000CD002280FD0BDE8104040F629627AA154
:1016E00080A001F0ABB9206B01F00BF82046BDE8FB
:1016F000104001F006B810BD70B5044601F0ECF8DA
:101700006D4D04B92C68201DFFF7C4FE58B9E06A7E
:101710006A4A00EB800152F8211021B90121814071
:10172000286988432861A06A18B104F11800FFF7FE
:10173000B1FE686A401C68622868844208D160482B
:10174000211D3C30FFF782FE6868401C686007E09E
:10175000A868401EA8602046FFF7B4FF00F00CFF09
:1017600001F0D4F86869002812D0286884420FD1AB
:10177000286B28B140F2654253A15AA001F05EF9EE
:1017800050494FF080500860BFF34F8FBFF36F8F09
:1017900070BD2DE9F041484F0026386B38B1B8696B
:1017A000401CB861F86900B101263046E1E6FD68E9
:1017B0006D1CFD6011D1786B006828B140F6D9121C
:1017C00041A148A001F03AF9786BB96B7963B8632D
:1017D000386A401C386200F0CFFEB86ADFF8DC805F
:1017E000854209D3786B006880B1786BC068C468A3
:1017F000606885420DD2B8623868C06A00EB80012B
:1018000058F821000128CDD90126CBE74FF0FF3051
:10181000F1E7201DFFF73EFEA06A18B104F11800A1
:10182000FFF738FEE06A01213A69814011433961CE
:1018300000EB800108EB8100211DFFF707FEE06A45
:101840003968C96A8842CDD30126CBE72DE9F04734
:10185000194D00242746286B28B94FF4FD621AA1C0
:1018600020A001F0EBF801F037F8286B401E286348
:10187000286B00BBA868124928310126D8B1DFF8CF
:101880003C908846D8F80010A1B3D8F80C00C46882
:1018900004F11800FFF7FEFD201DFFF7FBFDE06AD5
:1018A0002A6906FA00F11143296100EB800109EB76
:1018B0008100211D1FE03EE038000020F0020020E2
:1018C0007005002004ED00E02E2E5C2E2E5C46728A
:1018D000656552544F535C7372635C7461736B73D0
:1018E0002E6300004572726F723A25732C25640DC9
:1018F0000A00000008E0FFF7A9FDE06A2968C96A4C
:101900008842BFD3EE61BDE70CB100F035FEAC6993
:101910003CB1FFF73EFF00B1EE61641EF9D100203B
:10192000A861E86938B1FF49012738070860BFF3AB
:101930004F8FBFF36F8F00F0E9FF384660E62DE967
:10194000F041F94E0F460446F5683068001DFFF778
:10195000A1FD38B9306890F82C1001208840316919
:1019600081433161601C07D137B13168BDE8F04176
:10197000EE48091DFFF76ABD30682C44AC42446054
:10198000316805D2B06BBDE8F041091DFFF76ABDB3
:10199000706B091DFFF766FDB06A844200D2B46225
:1019A000E7E5E148016B491C016370472DE9F0410F
:1019B0000E4605004FF0000407D140F27942AFF225
:1019C000F801AFF2E00001F039F83EB940F27A4296
:1019D000AFF20C11AFF2F40001F030F8D24F386BD7
:1019E00038B140F27B42AFF22011AFF2081001F0A3
:1019F00025F8FFF7D6FFFA6828688119904202D9C6
:101A0000884202D804E0884201D8914200D90124DA
:101A100029601CB1881A0021FFF791FFFFF716FF1C
:101A2000002807D1BF494FF080500860BFF34F8FA7
:101A3000BFF36F8F9DE510B5040014D0BA49096B50
:101A400039B140F2CF42AFF28011AFF2681000F02E
:101A5000F5FFFFF7A6FF00212046FFF770FFFFF715
:101A6000F5FE002807D1AF494FF080500860BFF362
:101A70004F8FBFF36F8F10BD70B5050007D140F2D7
:101A8000FB42AFF2BC11AFF2A41000F0D7FFA64E9C
:101A90003068854201D1002070BD00F01DFF6C69E7
:101AA00000F034FF706B844202D0B06B844201D1ED
:101AB000022070BD9D48844204D1A86A0028F7D155
:101AC000032070BD99481438844202D00CB1012023
:101AD00070BD042070BD10B5044600F0FDFE0CB9C9
:101AE00091480468E46A00F011FF204610BD10B56B
:101AF000044600F030FF5020EFF3118180F311888D
:101B0000BFF34F8FBFF36F8F0CB987480468E06A4B
:101B100081F3118810BD2DE9F04100260D460446E1
:101B2000202908D34FF4B062AFF26421AFF24C2009
:101B300000F084FF1F2500F0CFFE7B4F04B93C6806
:101B4000606CA8423FD03968854206D98C4207D0E4
:101B50003968C96AA94202D902E08C4200D1012643
:101B6000E16A8846884200D1E5626564A069002880
:101B700002DBC5F12000A0616D4D08EB88006169B2
:101B800005EB8000814215D1201DFFF783FC012168
:101B900020B93A6901FA08F082433A61E06A3A6989
:101BA00081401143396100EB800005EB8000211D6D
:101BB000FFF74CFC3EB15B494FF080500860BFF32B
:101BC0004F8FBFF36F8FBDE8F04100F09FBE70B53F
:101BD000554D286B10B10120E86170BD0020E8610F
:101BE0002869534EB0FA80F0C0F11F0000EB80046A
:101BF00056F8240038B940F6F622AFF23431AFF28D
:101C00001C3000F01BFF06EB840000F10802416865
:101C100049684160914201D149684160C8682860C3
:101C200070BD70B5044600F057FE3F4D04B92C68F6
:101C3000201DFFF72FFC58B9E06A3D4A00EB8001F8
:101C400052F8211021B90121814028698843286177
:101C5000A06A18B104F11800FFF71CFC211D3348DD
:101C6000FFF7F4FB00F052FE686928B100F034FE83
:101C700000F082FC00F04AFE2868844213D16869B3
:101C800090B1286B38B140F25762AFF2C431AFF275
:101C9000AC3000F0D3FE23494FF080500860BFF312
:101CA0004F8FBFF36F8F70BD2048A96800688842CE
:101CB00002D10020286070BDBDE8704087E770B594
:101CC0000025040007D140F28162AFF20441AFF277
:101CD000EC3000F0B3FE15496069884205D1A06A76
:101CE0002839884201D000B90125284670BD70B559
:101CF000040035D00C4D286884423BD000F0ECFD48
:101D00002046FFF7DCFF38B3201DFFF7C3FBE06A76
:101D100001212A6981401143296100EB80000449B7
:101D200008E0000004ED00E038000020C0050020BD
:101D3000F002002001EB8000211DFFF787FBE06A25
:101D40002968C96A884207D3FD494FF0805008606E
:101D5000BFF34F8FBFF36F8FBDE8704000F0D6BD6B
:101D600040F2AB62AFF2A041AFF28840BDE87040F4
:101D700000F064BE70BD2DE9F0410026040007D1DB
:101D800040F2E262AFF2C041AFF2A84000F056FE6E
:101D900000F0E1FD5020EFF3118580F31188BFF3CF
:101DA0004F8FBFF36F8F2046FFF789FFE8B1E54FF4
:101DB000386B18B104F11801E34814E0E06A39689F
:101DC000C96A884200D30126201DFFF763FBE06A41
:101DD00001213A69814011433961DC4900EB8000FF
:101DE00001EB8000211DFFF731FB85F311883046A0
:101DF000DCE4D64E4FF08054D14D00F0CAFB306881
:101E00000128FAD92C60BFF34F8FBFF36F8FF4E72F
:101E100010B586B00024039405AA04A903A804946D
:101E2000FEF7ADFFDDE903010094CDE901100023C9
:101E3000C7A1C948059AFFF7E5FBC2490028C86257
:101E400011D0502080F31188BFF34F8FBFF36F8FF5
:101E50004FF0FF30886201204861CC6006B0BDE8D9
:101E6000104000F0F7BC06B010BD502080F3118880
:101E7000BFF34F8FBFF36F8FB2490020486100F06E
:101E80001FBDB048C068704710B500F064FDAD4894
:101E9000C06810BDAB488068704710B510B10446EB
:101EA0001CB10AE0A7480468FAE740F68C02AFF2DA
:101EB000E851AFF2D05000F0C1FD04F1340010BD84
:101EC00070B50D46040007D140F60632AFF2086146
:101ED000AFF2F05000F0B2FD9A4801682046183188
:101EE000FFF7C0FA2846BDE87040012127E52DE93B
:101EF000F04117460E46050007D140F61732AFF203
:101F00003861AFF2206000F099FD8E4C206B38B93B
:101F100040F61B32AFF25061AFF2386000F08EFD38
:101F2000216846F000408861216828461831FFF793
:101F30008DFA3846BDE8F041012100E52DE9F04178
:101F4000C068C4683CB940F66132AFF28461AFF258
:101F50006C6000F073FD04F118000746FFF79AFA71
:101F6000784D286B012658B139467748FFF76EFA4D
:101F7000E06A2968C96A884212D90120EE6115E435
:101F8000201DFFF787FAE06A2A6906FA00F111437B
:101F900029616E4900EB800001EB8000211DE5E71F
:101FA000002003E470B5674D06460C46286B38B92F
:101FB00040F69932AFF2F061AFF2D86000F03EFD2A
:101FC00044F000403060F4683CB940F6A132AFF212
:101FD0000871AFF2F06000F031FD3046FFF75AFAB9
:101FE000201DFFF757FAE06A01262A6906FA00F178
:101FF00011432961554900EB800001EB8000211D50
:10200000FFF724FAE06A2968C96A884202D90120E8
:10201000EE6170BD002070BD10B5040007D140F620
:10202000C132AFF25C71AFF2447000F007FD454879
:10203000016A2160C068606010BD70B50D46040083
:1020400007D140F6CB32AFF28071AFF2687000F08A
:10205000F5FC3DB940F6CC32AFF29471AFF27C7032
:1020600000F0ECFC00F038FC364AD06829684B1CC4
:102070000FD02368126A934202D0626882420AD962
:102080006268801A884206D2081A28602046FFF744
:10209000C3FF002400E0012400F038FC204670BD9E
:1020A00028490120C86170472648006870472548C4
:1020B000416919B1006B18B10020704701207047C9
:1020C0000220704770B5040039D01E4DE06A2968BF
:1020D000C96A884233D2A069002804DB2868C06A34
:1020E000C0F12000A061E06A184E00EB8000616939
:1020F00006EB800081421FD1201DFFF7CBF90121A3
:1021000050B9E06A00EB800256F8222022B92A6911
:1021100001FA00F082432A612868C06AE0622A69F5
:1021200081401143296100EB800006EB8000211DF6
:10213000BDE87040FFF78AB92868C06AE06270BDE8
:1021400004ED00E03800002098050020F002002097
:1021500049444C4500000000F31D000870B5040020
:102160004FF0000640D0FC4D2868844207D040F66E
:10217000C762AFF6AC01AFF6940000F05FFCA06C54
:1021800038B940F6C962AFF6C001AFF6A80000F05A
:1021900055FCA06C401EA064626CE16A914223D0A1
:1021A00010BB201DFFF776F9EC49012250B9E06A17
:1021B00000EB800351F8233023B92B6902FA00F0B9
:1021C00083432B61606CE062C0F12000A061E06A93
:1021D0002B6982401A432A6100EB800001EB8000EA
:1021E000211DFFF733F901263046A8E7DA490868D0
:1021F0000A688069D26A0968C2F120028A61704760
:10220000D549086818B10868826C521C8264086855
:10221000704770B50C46064600F05EFBCE4D286850
:10222000C06C80B92968012081F850005CB101219F
:102230002046FFF784FBCA494FF080500860BFF387
:102240004F8FBFF36F8F00F061FB00F045FB2868F4
:10225000C46C002034B116B12968C86402E02A6851
:10226000611ED164296881F8500000F04FFB2046C0
:1022700065E72DE9F0411E4615468846074600F001
:102280002BFBB54C206890F85000022814D0206831
:10229000C16CB943C1642168012081F850005EB16E
:1022A00001213046FFF74BFBAD494FF080500860ED
:1022B000BFF34F8FBFF36F8F00F028FB00F00CFBD4
:1022C00015B12068C06C2860206890F85000012883
:1022D0000DD02068C16C21EA0801C1640125216884
:1022E000002081F8500000F011FB284680E5002511
:1022F000F5E72DE9F0411F4690460D4604004FF0EA
:10230000010607D141F2FD02AFF64421AFF62C20C1
:1023100000F094FB00F0E0FA0FB1E06C386094F844
:102320005000022184F85010B8F1050F0ED2DFE8FA
:1023300008F00D03060C0A00E16C294301E0E16C92
:10234000491CE16402E0022803D0E564012802D0C0
:102350002AE0002628E0201DFFF79CF87E4DE06A69
:1023600001212A698140114329617C4900EB8000E9
:1023700001EB8000211DFFF769F8A06A38B141F236
:102380003512AFF6BC21AFF6A42000F057FBE06A8F
:102390002968C96A884207D971494FF0805008609E
:1023A000BFF34F8FBFF36F8F00F0B0FA30461FE5D9
:1023B0002DE9F0471F46DDF8209092460D460400B7
:1023C0004FF0010807D141F26812AFF60431AFF6C1
:1023D000EC2000F033FB00F0BEFA5020EFF3118642
:1023E00080F31188BFF34F8FBFF36F8F0FB1E06C95
:1023F000386094F85000022184F85010BAF1050FAB
:102400000ED2DFE80AF00D03060C0A00E16C294346
:1024100001E0E16C491CE16402E0022803D0E564BC
:10242000012803D031E04FF000082EE0A06A38B157
:1024300041F2AF12AFF67031AFF6583000F0FEFA4D
:10244000454D286B012778B104F118014548FEF786
:10245000FDFFE06A2968C96A884216D9B9F1000F00
:1024600012D0C9F8007010E0201DFFF713F8E06AE1
:102470002A6907FA00F11143296100EB800137480E
:1024800000EB8100211DE2E7EF6186F311884046F1
:10249000BDE8F0872DE9F0418846040007D141F2FC
:1024A000E312AFF6DC31AFF6C43000F0C7FA00F04B
:1024B00052FA5020EFF3118780F31188BFF34F8F4A
:1024C000BFF36F8F94F85000022184F85010E16C34
:1024D000491CE16401282ED1A06A38B141F20922D9
:1024E000AFF61C41AFF6044000F0A8FA1A4D286B75
:1024F000012678B104F118011A48FEF7A7FFE06A37
:102500002968C96A884216D9B8F1000F12D0C8F8F4
:10251000006010E0201DFEF7BDFFE06A2A6906FAA0
:1025200000F1114329610D4900EB800001EB8000AF
:10253000211DE2E7EE6187F3118859E410B598B1E7
:10254000044600F0C9F994F8500002280FD0002486
:1025500000F0DCF9204610BD38000020F002002019
:1025600004ED00E0980500201C480468E9E700201D
:1025700084F850000124EBE71848416B096829B141
:10258000416BC968C9684968816270474FF0FF3183
:10259000FAE770B5124E114D1CE0FFF702FA3068F1
:1025A00020B10024FFF752F9A4B901E00124F9E7B2
:1025B00000F092F9F068C468201DFEF76BFFA86870
:1025C000401EA8606868401E686000F09FF92046C1
:1025D000FFF778F868680028DFD1B0E53800002000
:1025E000AC05002030B5744900E011460A6882420B
:1025F000FBD34B685C18844203D1406818444860A0
:10260000084643681C18944209D16B4C103C24685E
:10261000A24209D052681A4442600A6812680260F5
:10262000814200D0086030BD0460F9E72DE9F04137
:1026300005460026FFF7B5F95F4F103F386808B927
:1026400000F098F8F86805424ED1002D4CD00835BE
:1026500068070BD005F00700C0F1080005446807C3
:1026600004D0BF2255A15FA000F0E8F9002D3BD0B7
:102670007868854238D850490846046801E0214608
:1026800004466068A84202D220680028F7D1386862
:10269000B846844228D00E68206808606068083612
:1026A000401B10280ED96719780704D0EC2243A1EB
:1026B0004CA000F0C3F96068401B78603846656044
:1026C000FFF790FF6168D8F804004246401AC8F846
:1026D0000400D8F80830984200D29060D8F80C0076
:1026E00001430020C4E90001FFF7B0F8700705D0EE
:1026F0004FF4967231A13BA000F0A0F93046BDE83E
:10270000F08170B500282BD02B4DA0F10804103DAE
:102710006068E968084205D14FF4A07227A131A092
:1027200000F08CF9206828B140F2411223A12DA0BD
:1027300000F084F96068E968084211D02268002A34
:102740000ED188436060FFF72CF96068696808441F
:1027500068602046FFF746FFBDE87040FFF776B897
:1027600070BD1548103840687047134810388068AD
:10277000704770471F484FF41041420706D0C01DF4
:102780001C4920F00700411AC1F510410A4A0023F4
:102790000144C2E900030839103A21F00701116031
:1027A0004B600B600B1AC0E9001393604FF00040C0
:1027B0005360D06070470000840000202E2E5C2EF5
:1027C0002E5C4672656552544F535C706F72745C38
:1027D0004D656D4D616E675C686561705F342E6339
:1027E000000000004572726F723A25732C25640D4B
:1027F0000A000000D405002069484068401C04D04D
:10280000F42268A171A000F019F9502080F311881A
:10281000BFF34F8FBFF36F8FFEE710B5031F4FF06D
:1028200080741C601B1F21F001011960191F6B4B84
:102830000B60143940380A6010BD69484FF47A7152
:102840000068B0FBF1F14FF0E020491E4161072123
:10285000016170471CB5634908780190FF2008703A
:1028600008788DF800009DF800004D4A00F05000F7
:1028700010700720906007E09068401E90609DF8FF
:10288000000040008DF800009DF800000006F3D421
:10289000107A000200F4E0609060019808705248DD
:1028A000016841F470010160016841F0704101600C
:1028B000FFF7C3FF00205060FDF756FC00201CBD51
:1028C00037484068B0F57A7F05D04FF4B57235A12E
:1028D0003EA000F0B3B87047502080F31188BFF3DA
:1028E0004F8FBFF36F8F2E494868401C4860012806
:1028F0000BD13D481C38006810F0FF0F05D04FF495
:10290000BD7228A131A000F099B8704710B5244CD1
:10291000606828B940F2811222A12CA000F08EF844
:102920006068401E606001D180F3118810BD10B551
:10293000502080F31188BFF34F8FBFF36F8FFEF7E6
:1029400028FF20B128494FF080501C390860002032
:1029500080F3118810BD10B5FDF73CFC104C102819
:102960000CD300F1E02090F8F0032178884205D2E2
:102970004FF42A720BA115A000F060F81A48143821
:102980000068A16800F4E060884207D9BDE8104003
:102990004FF42E7203A10DA000F050B810BD00003E
:1029A0008C0000202E2E5C2E2E5C467265655254E3
:1029B0004F535C706F72745C525644535C41524D7D
:1029C0005F434D335C706F72742E63004572726F9B
:1029D000723A25732C25640D0A000000F9270008BF
:1029E0000000002000E400E020ED00E030B50B46E0
:1029F000014600202022012409E021FA02F59D422F
:102A000005D303FA02F5491B04FA02F52844151E02
:102A1000A2F10102F1DC30BD064C074D06E0E06892
:102A200040F0010394E8070098471034AC42F6D315
:102A3000FDF782FB342C0008542C00080FB4054B22
:102A400010B503A9044A029800F018F810BC5DF80C
:102A500014FB0000451000089800002002E008C8A0
:102A6000121F08C1002AFAD170477047002001E008
:102A700001C1121F002AFBD1704700002DE9FF4F52
:102A80008BB09A460F460546002606E025280BD057
:102A900052460D9990476D1C761C28780028F5D178
:102AA0000FB03046BDE8F08F0024A04601226049F7
:102AB00000E0044315F8013F203B02FA03F008420E
:102AC000F7D128782E2817D115F8010F44F0040407
:102AD0002A280ED06FF02F022878A0F130010929A2
:102AE0000AD808EB880102EB410100EB01086D1CDC
:102AF000F2E757F8048B6D1C287869283ED006DC75
:102B00000028CDD063280BD0642804D136E0732888
:102B100010D075284BD052460D999047761C85E011
:102B200017F8040B8DF8000000208DF80100E9462D
:102B3000012003E057F8049B4FF0FF3061074FF08E
:102B4000000401D40AE0641C44450DDA8442FADB37
:102B500019F804100029F6D106E0641C8442FCDB5D
:102B600019F804100029F8D1264404E019F8010BE3
:102B700052460D999047641EF8D257E001CF4FF0AE
:102B80000A0B002802DA40422D2102E0210504D57B
:102B90002B218DF82410012103E0E10705D020212D
:102BA000F7E70DF1200908910CE00021F9E701CFCA
:102BB0004FF00A0BF9E75946FFF718FF01F1300211
:102BC00009F8012D0028F6D1ADEB090000F1200B2A
:102BD000600701D44FF00108D84502DDA8EB0B00D7
:102BE00000E000208046002406E009A85246005D6F
:102BF0000D999047641C761C08988442F5DB04E02C
:102C0000302052460D999047761CB8F10001A8F18A
:102C10000108F5DC05E019F8010B52460D999047C3
:102C2000761CBBF10001ABF1010BF4DC6D1C34E749
:102C300009280100542C0008000000209C0000001E
:102C40005C2A0008F02C00089C0000203C99000041
:102C50006C2A000800A24A040000000000000000E6
:102C60000102030406070809020406080000000028
:102C70000102030401020304060708090000000022
:102C80000000000000000000000000000000000044
:102C90000000000000000000000000000000000034
:102CA0000000000000000000000000000000000024
:102CB0000000000000000000000000000000000014
:102CC0000000000000000000000000000000000004
:102CD00000000000000000000000000000000000F4
:102CE00000000000AAAAAAAA00000000000000003C
:0400000508000131BD
:00000001FF
