:020000040800F2
:10000000209A0020DD010008BD0E0008BF0E000888
:10001000C10E0008C30E0008C50E00080000000055
:100020000000000000000000000000004501000882
:10003000C70E00080000000089010008C90E000872
:10004000F7010008F7010008F7010008F7010008B0
:10005000F7010008F7010008F7010008F7010008A0
:10006000F7010008F7010008F7010008F701000890
:10007000F7010008F7010008F7010008F701000880
:10008000F7010008F7010008F7010008F701000870
:10009000F7010008F7010008F7010008F701000860
:1000A000F7010008F7010008F7010008F701000850
:1000B000F7010008F7010008F7010008F701000840
:1000C000F7010008F7010008F7010008F701000830
:1000D000F7010008F7010008F7010008F701000820
:1000E000F7010008F7010008F7010008F701000810
:1000F000F7010008F7010008F7010008F701000800
:10010000F7010008F7010008F7010008F7010008EF
:10011000F7010008F7010008F7010008F7010008DF
:10012000F7010008F7010008F7010008F7010008CF
:10013000DFF80CD002F0CCFE004800475B0D000851
:10014000209A0020224B19680868B0E8F00F80F36D
:100150000988BFF36F8F4FF0000080F311884EF0D5
:100160000D0E70470000000006480068006880F32C
:10017000088862B661B6BFF34F8FBFF36F8F00DFA1
:1001800000BF00BF08ED00E0EFF30980BFF36F8F01
:100190000F4B1A6820E9F00F106008B54FF05000BF
:1001A00080F31188BFF34F8FBFF36F8F01F0D3FF40
:1001B0004FF0000080F31188BDE808401968086816
:1001C000B0E8F00F80F30988BFF36F8F704700BF6E
:1001D00038000020EFF30580704700000648804794
:1001E00006480047FEE7FEE7FEE7FEE7FEE7FEE71C
:1001F000FEE7FEE7FEE7FEE7A10200083101000886
:100200000CB500224C4800920192016841F4803103
:1002100001604FF4A063016801F40031019100997D
:10022000491C0091019911B900999942F3D10168D3
:10023000890333D50121019140490A6842F0100237
:100240000A600A6822F003020A600A6842F00202A9
:100250000A604168416041684160416841F48061E1
:100260004160416821F47C114160416841F4E8112A
:100270004160016841F08071016001688901FCD52D
:10028000416821F003014160416841F00201416091
:100290004168C1F381010229FAD10CBD01920CBD64
:1002A000254810B5016841F0010101604168244A08
:1002B000114041600168234A11400160016821F446
:1002C00080210160416821F4FE0141604FF41F016B
:1002D0008160FFF795FF1C494FF00060086010BD7A
:1002E000154A10B55068194B10F00C01184803D08E
:1002F000042901D0082901D0036012E05168536835
:1003000001F470114FF0020413F4803F04EB9141AB
:1003100002D053689B0301D50E4B00E00B4B5943B1
:10032000016051680A4AC1F30311121D515C026851
:10033000CA40026010BD00000010024000200240D0
:100340000000FFF8FFFFF6FE08ED00E000127A0063
:100350000000002000093D002849084328490860A2
:10036000704730B50F23C27801780125F2B1244AD5
:10037000126801F1E02102F4E062C2F5E062120AC3
:10038000C2F10404D3404278A24084781C40144354
:10039000220181F80024007800F01F018D404009FF
:1003A000800000F1E020C0F8005130BD01F01F00D6
:1003B00085404809800000F1E020C0F8805130BD40
:1003C000104A114001430E48001F016070470C4A5B
:1003D000121D0029116801D0014300E08143116022
:1003E00070474FF0E0210428086903D020F0040092
:1003F0000861704740F00400FAE700000000FA05C9
:100400000CED00E080FFFF1F8F4910B5884206D138
:100410000121042000F049FA002104203BE08B492F
:10042000884206D10121082000F03FFA002108206F
:1004300031E08749884206D10121102000F035FAC9
:100440000021102027E08349884206D10121202085
:1004500000F02BFA002120201DE07F49884206D1C0
:100460000121402000F021FA0021402013E07B49C7
:10047000884206D10121802000F017FA0021802057
:1004800009E0774988420AD184150121204600F00D
:100490000CFA00212046BDE8104000F006BA10BD5D
:1004A00010B50121084600F000FA0021BDE8104017
:1004B000012000F0FAB9F0B5CC78002204F00F0367
:1004C000E40601D58C7823430C784FF00F0C14F020
:1004D000FF0F4FF0010E1BD005680E880EFA02F4D4
:1004E0002640A64210D196000CFA06F725EA070727
:1004F00003FA06F5CE783D43282E02D0482E02D0CE
:1005000002E0446100E00461521C082AE5D3056062
:100510000A88FF2A1CD94468002202F108060EFA54
:1005200006F50E882E40AE420ED196000CFA06F764
:10053000BC4303FA06F7CE783C43282E00D1456130
:10054000CE78482E00D10561521C082AE5D34460BC
:10055000F0BD4FF6FF710180022181700421C1704E
:1005600070470246002092680A4200D0012070477E
:10057000806880B2704702460020D2680A4200D0EC
:1005800001207047C06880B27047016170474161C7
:1005900070470AB10161704741617047C16070479F
:1005A00041F4803282618161826181698069704732
:1005B0002C4B10B51A684FF68074224042EA0010A6
:1005C0000843186010BD2849C8617047F0B5254C34
:1005D000002801DAE36900E06368450D2E0185B269
:1005E000C0F30157B540C0F30342032F05D0C60244
:1005F0000AD503269640B34307E023F07062636890
:1006000023F07063636002E0AB4343F0706201B1BA
:100610002A43002801DAE261F0BD6260F0BD10B546
:100620008A0721F003040F49120F21440F238C681D
:1006300093409C438C608B68904003438B6010BD5B
:100640000949C1F8DC00704700080140000C014076
:10065000001001400014014000180140001C01403E
:10066000002001400000014000002042A548016830
:1006700041F0010101604168A34A114041600168F5
:10068000A24A11400160016821F4802101604168A3
:1006900021F4FE0141604FF41F01816070479949C8
:1006A0000A6822F480320A600A6822F480220A6012
:1006B000B0F5803F07D0B0F5802F03D1086840F433
:1006C000A02008607047086840F48030F9E70346CE
:1006D000002059098B4A01290AD002290AD0516AFF
:1006E00003F01F02012393400B4200D0012070470A
:1006F0001168F5E7116AF3E718B500204FF4A0641C
:1007000000903120FFF7E3FF0099491C0091A142BE
:1007100001D00028F5D03120FFF7D9FF002800D004
:10072000012018BD774A116821F0F80141EAC000A4
:1007300010607047764908607047724B5A680843EA
:1007400022F47C1210435860704771490866704764
:100750006C4A516821F003010143516070476948B8
:10076000406800F00C007047664A516821F0F001C3
:10077000014351607047634A516821F4E0610143CD
:10078000516070475F4A516821F4605141EAC000EE
:10079000506070475B4A0029517A01D0014300E064
:1007A0008143517270475A49C1F8D8007047554A81
:1007B000516821F440410143516070475149002282
:1007C00081F8202081F82020012802D0042802D1BD
:1007D000052081F8200070474E490860704749495C
:1007E0000A6A02430A6270474A49443908607047FE
:1007F00030B5444A5168484B11F00C0103D004292C
:1008000001D0082901D0036012E05168536801F457
:1008100070114FF0020413F4803F04EB914102D0B9
:1008200053689B0301D53D4B00E03B4B59430160AE
:1008300051680F2303EA1111394B5C5C0168E140F8
:1008400041605468072505EA14241C5D21FA04F46C
:100850008460546805EAD4241B5DD940C1605268A5
:10086000032303EA92322E4B1B1F9A5CB1FBF2F179
:10087000016130BD234A0029516901D0014300E0E4
:100880008143516170471F4A0029916901D001439A
:1008900000E08143916170471A4A0029D16901D073
:1008A000014300E08143D1617047164A0029D168B5
:1008B00001D0014300E08143D1607047114A002913
:1008C000116901D0014300E0814311617047114972
:1008D0004039086070470E49C86470470949C871BB
:1008E00070470848416A41F0807141627047054A8B
:1008F0000146002092680A4200D001207047014959
:1009000088727047001002400000FFF8FFFFF6FEFB
:10091000000042428004424200127A0000093D0079
:1009200018000020C44910B588420AD101218C0367
:100930002046FFF7BAFF2046BDE810400021FFF730
:10094000B4BFBE49884202D101214C0410E0BC4929
:10095000884202D101218C040AE0BA49884202D1BE
:100960000121CC0404E0B84988420AD101210C05D8
:100970002046FFF7A3FF2046BDE810400021FFF707
:100980009DBF10BD30B50446008A85B00D464CF6BB
:10099000FF710840E98801432182A0894EF6F311D6
:1009A0000840A9882A8911436A8902431143A18119
:1009B000A08A4FF6FF410840A9890143A1826846F9
:1009C000FFF716FF9C48844201D1039800E002988B
:1009D000A189090400EBC00101EB0010296801D5D1
:1009E000490000E08900B0FBF1F06422B0FBF2F1B5
:1009F00009010B096FF018056B4300EB8300A38915
:100A00001D044FF0320306D503EBC000B0FBF2F03B
:100A100000F0070005E003EB0010B0FBF2F000F07F
:100A20000F000843208105B030BD4FF4165101601E
:100A300000218180C18001810C2242818181704727
:100A400010B5028A4FF2FF031A400B884C882343EB
:100A50008C88C9880C4323431343038210BD0021B3
:100A6000018041808180C18070470029818902D046
:100A700041F4005101E021F400518181704710B52B
:100A8000C1F3421301F01F040121A140012B07D043
:100A9000022B07D01430002A026805D00A4304E074
:100AA0000C30F8E71030F6E78A43026010BD002AE8
:100AB000828A01D00A4300E08A4382827047028A18
:100AC00022F00F020282028A0A4302827047828960
:100AD00022F40062828182890A4382817047002960
:100AE000818902D041F0020101E021F002018181FF
:100AF0007047028A22F020020282028A0A4302829E
:100B000070470029018A02D041F4804101E021F4BC
:100B1000804101827047C1F308018180704780885D
:100B2000C0F308007047818941F00101818170475D
:100B3000028BD2B20283028B42EA01210183704709
:100B4000028B02F47F420283028B0A4302837047C6
:100B50000029818A02D041F0200101E021F020012A
:100B6000818270470029818A02D041F0100101E0A2
:100B700021F01001818270470029818A02D041F062
:100B8000080101E021F00801818270470029818974
:100B900002D041F4004101E0C1F30E0181817047B0
:100BA0000029818A02D041F4006101E021F4006152
:100BB00081827047828A22F004028282828A0A43FA
:100BC000828270470029818A02D041F0020101E04F
:100BD00021F00201818270470246002012880A42F9
:100BE00000D001207047C9430180704770B501F003
:100BF0001F0501260024C1F3421306FA05F2012B5A
:100C00000FD0022B0FD0838A4FEA112100881342A4
:100C100006FA01F600EA060001D000B101242046E0
:100C200070BD8389F0E7038AEEE70A0A012191404B
:100C3000C943018070470000003801400044004073
:100C400000480040004C0040005000400EB556A047
:100C5000584DD0E90010CDE9001055A0564F00685E
:100C6000564C6E144FF0FF3802900121284600F0D8
:100C700040FA01280ED152A002F05CF9002342464E
:100C80006946E06800F084FB08B151A000E054A080
:100C900002F050F93146384600F02BFA01280ED107
:100CA00052A002F047F90023424602A9E06800F092
:100CB0006FFB08B151A000E054A002F03BF91420F2
:100CC00001F081F9D1E71CB53C4C4FF0FF35002312
:100CD0002A466946E06800F0D2FC0146012803D0AC
:100CE0004DA002F027F9F2E769464FA0F9E71CB5DD
:100CF00002F020F83149012008310023CDE900013C
:100D000032224DA1AFF2410000F077FF401C02D02B
:100D10004BA002F00FF929490220091D0023CDE95B
:100D2000000180224EA1AFF2DB0000F066FF401C04
:100D300002D04EA002F0FEF804210022084600F086
:100D4000A3FA1E49C86010B150A002F0F3F80020C9
:100D500000F09AFF02F008F8FEE71CB54FF440706F
:100D6000FFF7FAFA00F0BAF800F0AAF900F0E6F896
:100D7000124901200023CDE9000142024BA1AFF24C
:100D8000910000F03AFF401C02D001F004FBFEE7A6
:100D90004FF0FF301CBD484B036003F14C0008606E
:100DA0008020106070470000476F6F6400000000F3
:100DB0004259450000080140001001402800002071
:100DC00053656E64204D6573736167653121090059
:100DD0005375636365737366756C6C79210A0000E3
:100DE0004661696C6564210A0000000053656E6409
:100DF000204D657373616765322109005375636324
:100E000065737366756C6C79210A0A004661696CBA
:100E10006564210A0A0000004552523A20307825C4
:100E20006C780A0A00000000526563444154413A5C
:100E300025730A0A000000005265635461736B0059
:100E40005265635461736B204372656174652073EE
:100E500075636365737366756C6C792109000000B6
:100E600053656E645461736B0000000053656E64DB
:100E70005461736B2043726561746520737563639D
:100E800065737366756C6C79210900005175657521
:100E90006520437265617465207375636365737360
:100EA00066756C6C79210A0A000000005374617247
:100EB000745461736B0000009C0000207047FEE7D3
:100EC000FEE7FEE7FEE7704710B501F0B0FB012832
:100ED00003D0BDE8104001F058BF10BD38B5012166
:100EE0000820FFF7D0FC2020ADF8000010208DF87E
:100EF00003000320104C8DF8020069462046FFF7DE
:100F0000DAFA0121ADF8001069462046FFF7D3FA5E
:100F10000221ADF8001069462046FFF7CCFA2021E7
:100F20002046FFF732FB01212046FFF72EFB02216E
:100F30002046FFF72AFB38BD000C014010B586B0F3
:100F400001210420FFF79FFC01218803FFF79BFC90
:100F50004FF40070ADF8100018208DF81300032036
:100F6000554C8DF8120004A92046FFF7A4FA21156C
:100F7000ADF8101004218DF8131004A92046FFF7D6
:100F80009AFA4FF4E13000900020ADF80400ADF87B
:100F90000600ADF80800ADF80C000C20474CADF889
:100FA0000A0069462046FFF7EDFC4FF4A060FFF70A
:100FB000D3F925208DF8140001218DF815108DF836
:100FC00016108DF8171005A8FFF7CBF9012240F293
:100FD00025512046FFF753FD01212046FFF745FD2F
:100FE00006B010BD10B50446FFF795FD80212046E0
:100FF000FFF7F2FD0028F9D010BD2DE9F0411546AC
:101000000E460746002405E0315D3846FFF7EAFF4B
:10101000641CE4B2AC42F7D340213846FFF7DCFD54
:101020000028F9D0BDE8F08170B50D4606460024D1
:101030003046295DFFF7D6FF641C285D0028F7D1F4
:1010400040213046FFF7C8FD0028F9D070BD70B5CB
:101050000446080ACDB201462046FFF75CFD802118
:101060002046FFF7B9FD0028F9D029462046FFF7B2
:1010700052FD80212046FFF7AFFD0028F9D070BD5A
:1010800070B50E4D0446C1B22846FFF744FD8021DD
:101090002846FFF7A1FD0028F9D0204670BD10B505
:1010A000064C20212046FFF797FD0028F9D0204666
:1010B000BDE81040FFF733BD000801400038014093
:1010C00038B501211420FFF7DEFB0120ADF8000048
:1010D00004248DF8034069460E48FFF7ECF9E0025E
:1010E000ADF800008DF8034069460B48FFF7E3F9BF
:1010F00038BD70B50C460546FFF733FA012801D01C
:10110000002070BD21462846FFF72BFA0128F9D0B0
:10111000012070BD000801400010014000F10801ED
:101120004FF0FF32C0E90112C1600161002101608E
:10113000704700210161704742684A6093688B6084
:1011400093685960916008610168491C01607047AB
:1011500030B50C68621C02D000F1080202E002699E
:1011600004E01A4653681D68A542FAD953684B60DB
:1011700099608A60516008610168491C016030BD56
:10118000D0E9013201699A60D0E901235A604A68C6
:10119000824201D182684A60002202610868401ED2
:1011A0000860704770B50D46040005D140F21B126F
:1011B000F6A1FDA001F0BEFE01F0BCFDD4E90F20B8
:1011C000216802FB001161600021A1632168A16018
:1011D0000A46D4E90F01401E00FB0121E1602146CF
:1011E0004FF0FF3001F8440F487004F110004DB18A
:1011F000FFF794FF04F12400FFF790FF01F0B4FD26
:10120000012070BD21690029F8D001F05AF90028A9
:10121000F4D0E9494FF080500860BFF34F8FBFF31F
:101220006F8FEBE72DE9F8431C46DDF8208016466A
:101230000D46070005D14FF4A972D4A1DAA001F040
:1012400079FE2CB94FF4AB72D0A1D7A001F072FE99
:101250001EB14DB94FF4AD7202E02DB140F25B12F8
:10126000CAA1D1A001F066FE482000904CB1012037
:1012700084F846004346324629463846009400F03A
:10128000C8FB2046BDE8F883F8B517460E460500B2
:1012900005D14FF4C472BDA1C3A001F04BFE9EB1B5
:1012A00005FB06F0483001F0EFFB04000AD00020F7
:1012B00084F8460004F148023B4631462846009433
:1012C00000F0A7FB2046F8BD0020EBE72DE9F04138
:1012D000044601F02FFD94F9455004F1240609E07D
:1012E000606A48B1304601F0ECF808B101F09BF9B2
:1012F0006D1E6DB2002DF3DC4FF0FF3684F84560B3
:1013000001F032FD01F016FD94F9445004F110078C
:1013100009E0206948B1384601F0D3F808B101F07E
:1013200082F96D1E6DB2002DF3DC84F84460BDE8D7
:10133000F04101F019BD2DE9F041856B16460446D8
:101340000027026CFAB17EB1E06801F07DFDE16832
:10135000206C091AE1602268914202D26168081A81
:10136000E060022E0DD00EE0A06801F06DFD216C52
:10137000A0680844A0606168884204D32068A06027
:1013800001E005B16D1E6D1CA5633846BDE8F08116
:101390002DE9FF4F83B01F468B4604004FF0000637
:1013A00005D140F2D92279A17FA001F0C3FDBBF1A4
:1013B000000F07D1206C28B140F2DA2273A17AA085
:1013C00001F0B8FD022F08D1E06B012805D040F2F2
:1013D000DB226EA174A001F0ADFD01F028F938B94F
:1013E000059828B140F2DE2268A16FA001F0A2FDAD
:1013F0004FF0000A4FF08058DFF8BC9101F09AFCE2
:10140000A06BE16B884205D3022F03D00598C8B1C9
:10141000DEB11EE03A4659462046FFF78CFF616A6E
:1014200019B104F1240001F04CF828B1C9F800808A
:10143000BFF34F8FBFF36F8F01F096FC012007B011
:10144000BDE8F08F01F090FC21E0684601F0A7F8BC
:10145000012601F089FC00F06CFD01F06BFC94F9B1
:101460004400401C01D184F844A094F94500401C7C
:1014700001D184F845A001F077FC05A9684601F088
:101480009FF830B12046FFF721FF00F0A7FC0020B5
:10149000D5E701F04FFCA06BE16B884201D101253B
:1014A00000E0002501F060FC95B104F11000059901
:1014B00000F0C9FF2046FFF709FF00F08FFC00286D
:1014C0009CD1C9F80080BFF34F8FBFF36F8F95E7B2
:1014D0002046FFF7FBFE00F081FC8FE72DE9F04787
:1014E0001F4690468946040005D140F29F3227A14D
:1014F0002DA001F01FFDB9F1000F07D1206C28B11C
:101500004FF4687221A128A001F014FD022F08D128
:10151000E06B012805D040F2A1321CA122A001F00D
:1015200009FD01F046FC5020EFF3118680F311888D
:10153000BFF34F8FBFF36F8FA06BE16B884206D371
:10154000022F04D0002086F31188BDE8F08794F9BB
:1015500045503A4649462046FFF7EDFE681C04D048
:101560006D1C84F845500120EDE7606A0028FAD030
:1015700004F1240000F0A5FF0028F4D0B8F1000F1A
:10158000F1D00121C8F80010EDE700002E2E5C2EEE
:101590002E5C4672656552544F535C7372635C7186
:1015A000756575652E6300004572726F723A25731A
:1015B0002C25640D0A00000004ED00E070B50E4615
:1015C000040007D140F23C42AFF24001AFF22800E4
:1015D00001F0B0FC206C38B14FF48862AFF25401D6
:1015E000AFF23C0001F0A6FC206848B9606838B151
:1015F00040F24542AFF26C01AFF2540001F09AFCA8
:1016000001F0D7FB5020EFF3118580F31188BFF371
:101610004F8FBFF36F8FA16BE06B884218D994F99D
:101620004500491CA163411C04D0401C84F84500BE
:1016300001200EE0606A0028FAD004F1240000F0D6
:1016400040FF0028F4D0002EF2D001203060EFE7F8
:10165000002085F3118870BD30B4026C0B46002A5F
:101660000BD0C1681144C1604468A14201D3016834
:10167000C16030BC184601F0E7BB30BC70472DE9B3
:10168000FF4F83B09B468A4604004FF0000607D107
:1016900040F2DC42AFF20C11AFF2F40001F04AFC70
:1016A000BAF1000F09D1206C38B140F2DD42AFF23F
:1016B0002411AFF20C1001F03DFC00F0B8FF48B966
:1016C000059838B14FF49C62AFF24011AFF2281088
:1016D00001F030FC4FF000094FF08057DFF86483D1
:1016E00001F028FBA56B0DB351462046E668FFF7D5
:1016F000B3FFBBF1000F11D0E660606A50B104F196
:10170000240000F0DEFE28B1C8F80070BFF34F8F50
:10171000BFF36F8F01F028FB012090E66D1EA563DB
:1017200020690028F6D004F11000EAE7059808B116
:101730001EB106E001F018FB27E0684600F02FFF1D
:10174000012601F011FB00F0F4FB01F0F3FA94F92B
:101750004400401C01D184F8449094F94500401C99
:1017600001D184F8459001F0FFFA05A9684600F020
:1017700027FF002820460AD0FFF7A8FD00F02EFB27
:10178000204600F051F90028AAD0002057E600F0CA
:101790004BF990B104F12400059900F054FE204665
:1017A000FFF794FD00F01AFB002899D1C8F80070EB
:1017B000BFF34F8FBFF36F8F92E72046FFF786FD91
:1017C00000F00CFB8CE72DE9F047904689460400B9
:1017D00007D14FF4B462AFF24C21AFF2342001F0E4
:1017E000A9FBB9F1000F09D1206C38B140F2A15228
:1017F000AFF26821AFF2502001F09CFB01F0D9FA62
:101800005020EFF3118780F31188BFF34F8FBFF3A0
:101810006F8FA66BF6B194F9445049462046FFF706
:101820001BFF761EA663681C04D06D1C84F8445010
:10183000012010E020690028FAD004F1100000F027
:1018400040FE0028F4D0B8F1000FF1D00121C8F813
:101850000010EDE7002087F3118876E62DE9F041CE
:101860000E46040007D140F2FC52AFF2E021AFF285
:10187000C82001F05FFB4EB9206C48B140F2FD5228
:10188000AFF2F821AFF2E02001F054FB206C38B940
:1018900040F2FE52AFF20C31AFF2F42001F04AFBFD
:1018A00001F087FA5020EFF3118580F31188BFF320
:1018B0004F8FBFF36F8FA06B30B131462046E76882
:1018C000FFF7CAFE0120E76085F311885EE510B5D9
:1018D000040007D140F22F62AFF25031AFF238303E
:1018E00001F028FB01F026FAA46B01F03DFA204636
:1018F00010BD10B5040007D140F24162AFF274315F
:10190000AFF25C3001F016FB01F014FAD4E90E10CE
:10191000441A01F029FA204610BD10B5040007D181
:1019200040F25162AFF29C31AFF2843001F002FB21
:10193000A06B10BD444A002102EBC1035B688342E7
:1019400006D1002042F8310002EBC1014860704727
:10195000491C0A29F0D3704710B5040007D140F2A2
:101960005D62AFF2D831AFF2C03001F0E3FA204649
:10197000FFF7E0FF94F84600002804D12046BDE8B8
:10198000104001F0ECB810BD10B5040007D140F2D2
:101990009372AFF20841AFF2F03001F0CBFAA06BD6
:1019A00008B1002010BD012010BD10B5040007D102
:1019B00040F2BA72AFF22C41AFF2144001F0BAFA21
:1019C000A06BE16B884201D1012010BD002010BD49
:1019D00010B51D4B002253F832401CB1521C0A2A8C
:1019E000F9D310BD43F8321003EBC201486010BDBB
:1019F00010B50024144A214602EBC1035B68834200
:101A000002D152F8314002E0491C0A29F4D32046A1
:101A100010BD0346009829B10260C0E90F310121D1
:101A2000FFF7C0BB0060F8E710B5044601F082F98B
:101A3000A06B20B1002401F097F9204610BD0124CD
:101A4000F9E7000004ED00E0E80200202DE9F04194
:101A5000054601F06FF9FE4EB068401CB06030687A
:101A6000FC4F10B1706930B32BE03560B0680128CD
:101A700027D1002404EB840007EB8000FFF74EFB26
:101A8000641C202CF6D3F448FFF748FBF2481430CE
:101A9000FFF744FBF0482830FFF740FBEE483C30AE
:101AA000FFF73CFBEC485030FFF738FBEA48706327
:101AB0001430B06305E03068E96AC06A884200D833
:101AC0003560706A0121401C7062E86A32698140A9
:101AD0001143316100EB800007EB8000291DFFF707
:101AE0002BFB01F041F9706900280CD03068E96ADD
:101AF000C06A884207D2D9494FF080500860BFF3CE
:101B00004F8FBFF36F8FBDE8F0812DE9F0470E4690
:101B1000DDE9098482466FF00301206B01EB82014D
:101B20000844089D20F007079946780705D040F241
:101B30002B32CBA1D1A001F0FDF900202218315C9D
:101B400082F83410315C11B1401C1028F6D3002605
:101B500084F84360202D00D31F25201DE562FFF788
:101B6000E8FA04F11800FFF7E4FA2461C5F1200057
:101B70006462A061666484F848604A46514638460B
:101B800001F079F82060B8F1000F01D0C8F80040EA
:101B9000BDE8F0872DE9F04F85B09846DDE90F5498
:101BA0000E9F91468A4683462DB940F25522ACA13C
:101BB000B2A001F0BFF90026A4B1CDB10220256387
:101BC00084F849000DF1040C04A800978CE851003A
:101BD00043464A4651465846FFF797FF2046FFF7CF
:101BE00035FF06E040F256229DA1A4A001F0A2F923
:101BF0000496049805B0BDE8F08F2DE9FF5F834699
:101C0000DDE90E87994616468A46900000F03CFFB3
:101C100005001CD04C2000F037FF040014D0002039
:101C2000256384F84900CDE90240CDE900874B46A1
:101C3000324651465846FFF768FF2046FFF706FF39
:101C4000012004B0BDE8F09F284600F088FF4FF067
:101C5000FF30F6E710B5044690F8490058B1012866
:101C60000CD002280FD0BDE8104040F629627CA1BC
:101C700082A001F05FB9206B00F071FF2046BDE843
:101C8000104000F06CBF10BD70B5044601F052F872
:101C90006F4D04B92C68201DFFF772FA58B9E06A3D
:101CA0006C4A00EB800152F8211021B901218140DA
:101CB000286988432861A06A18B104F11800FFF769
:101CC0005FFA686A401C68622868844208D16248EA
:101CD000211D3C30FFF730FA6868401C686007E05F
:101CE000A868401EA8602046FFF7B4FF00F06DFE14
:101CF00001F03AF86869002812D0286884420FD1B0
:101D0000286B28B140F2654255A15CA001F012F9A0
:101D100052494FF080500860BFF34F8FBFF36F8F71
:101D200070BD2DE9F0414A4F0026386B38B1B869D3
:101D3000401CB861F86900B101263046E3E6FD6851
:101D40006D1CFD6011D1786B006828B140F6D91286
:101D500043A14AA001F0EEF8786BB96B7963B863E0
:101D6000386A401C386200F030FEB86ADFF8E48060
:101D7000854209D3786B006880B1786BC068C4680D
:101D8000606885420DD2B8623868C06A00EB800195
:101D900058F821000128CDD90126CBE74FF0FF30BC
:101DA000F1E7201DFFF7ECF9A06A18B104F1180063
:101DB000FFF7E6F9E06A01213A6981401143396190
:101DC00000EB800108EB8100211DFFF7B5F9E06A07
:101DD0003968C96A8842CDD30126CBE72DE9F0479F
:101DE0001B4D00242746286B28B94FF4FD621CA127
:101DF00022A001F09FF800F09DFF286B401E286391
:101E0000286B18BBA868144928310126F0B1DFF807
:101E100044908846D8F80010C9B1D8F80C00C468BE
:101E200004F11800FFF7ACF9201DFFF7A9F9E06AEB
:101E30002A6906FA00F11143296100EB800109EBE0
:101E40008100211DFFF778F9E06A1FE03BE023E005
:101E50003800002038030020B805002004ED00E021
:101E60002E2E5C2E2E5C4672656552544F535C7369
:101E700072635C7461736B732E6300004572726FE2
:101E8000723A25732C25640D0A0000002968C96A7E
:101E90008842BFD3EE61BDE70CB100F096FDAC699E
:101EA0003CB1FFF73EFF00B1EE61641EF9D10020A6
:101EB000A861E86938B1FF49012738070860BFF316
:101EC0004F8FBFF36F8F00F04FFF384660E62DE96C
:101ED000F041F94E0F460446F5683068001DFFF7E3
:101EE0004FF938B9306890F82C10012088403169DA
:101EF00081433161601C07D137B13168BDE8F041E1
:101F0000EE48091DFFF718B930682C44AC42446014
:101F1000316805D2B06BBDE8F041091DFFF718B973
:101F2000706B091DFFF714F9B06A844200D2B462E5
:101F3000E9E5E148016B491C016370472DE9F04177
:101F40000E4605004FF0000407D140F27942AFF28F
:101F5000F001AFF2D80000F0EDFF3EB940F27A4256
:101F6000AFF20411AFF2EC0000F0E4FFD24F386B97
:101F700038B140F27B42AFF21811AFF2001000F01E
:101F8000D9FFFFF7D6FFFA6828688119904202D975
:101F9000884202D804E0884201D8914200D9012445
:101FA00029601CB1881A0021FFF791FFFFF716FF87
:101FB000002807D1BF494FF080500860BFF34F8F12
:101FC000BFF36F8F9FE510B5040014D0BA49096BB9
:101FD00039B140F2CF42AFF27811AFF2601000F0A9
:101FE000A9FFFFF7A6FF00212046FFF770FFFFF7CC
:101FF000F5FE002807D1AF494FF080500860BFF3CD
:102000004F8FBFF36F8F10BD70B5050007D140F241
:10201000FB42AFF2B411AFF29C1000F08BFFA64E62
:102020003068854201D1002070BD00F083FE6C69EC
:1020300000F09AFE706B844202D0B06B844201D1F2
:10204000022070BD9D48844204D1A86A0028F7D1BF
:10205000032070BD99481438844202D00CB101208D
:1020600070BD042070BD10B5044600F063FE0CB9CD
:1020700091480468E46A00F077FE204610BD10B570
:10208000044600F096FE5020EFF3118180F3118892
:10209000BFF34F8FBFF36F8F0CB987480468E06AB6
:1020A00081F3118810BD2DE9F04100260D4604464C
:1020B000202908D34FF4B062AFF25C21AFF2442084
:1020C00000F038FF1F2500F035FE7B4F04B93C6857
:1020D000E06AA8423BD03968854206D98C4207D0D5
:1020E0003968C96AA94202D902E08C4200D10126AE
:1020F0008046E562A069002802DBC5F12000A061EE
:102100006F4D08EB8800616905EB8000814215D1B5
:10211000201DFFF735F8012120B93A6901FA08F0CE
:1021200082433A61E06A3A6981401143396100EBC8
:10213000800005EB8000211DFEF7FEFF3EB15D49EA
:102140004FF080500860BFF34F8FBFF36F8FBDE833
:10215000F04100F009BE70B5574D286B10B1012059
:10216000E86170BD0020E8612869554EB0FA80F042
:10217000C0F11F0000EB800456F8240038B940F687
:10218000F622AFF22431AFF20C3000F0D3FE06EBB2
:10219000840000F10802416849684160914201D120
:1021A00049684160C868286070BD70B5044600F099
:1021B000C1FD414D04B92C68201DFEF7E1FF58B95F
:1021C000E06A3F4A00EB800152F8211021B9012159
:1021D0008140286988432861A06A18B104F1180079
:1021E000FEF7CEFF211D3548FEF7A6FF00F0BCFD2F
:1021F000686928B100F09EFD00F0E7FB00F0B4FD37
:102200002868844213D1686990B1286B38B140F2D4
:102210005762AFF2B431AFF29C3000F08BFE25492B
:102220004FF080500860BFF34F8FBFF36F8F70BDCA
:102230002248A9680068884202D10020286070BD49
:10224000BDE8704087E770B50025040007D140F273
:102250008162AFF2F431AFF2DC3000F06BFE17496F
:102260006069884205D1A06A2839884201D000B946
:102270000125284670BD70B5040034D00E4D286885
:1022800084423AD000F056FD2046FFF7DCFF30B321
:10229000201DFEF775FFE06A01212A698140114384
:1022A0002961074900EB800001EB8000211DFEF74A
:1022B00043FF07E004ED00E038000020080600209E
:1022C00038030020E06A2968C96A884207D3FA49BE
:1022D0004FF080500860BFF34F8FBFF36F8FBDE8A2
:1022E000704000F041BD40F2AB62AFF28C41AFF202
:1022F0007440BDE8704000F01DBE70BD2DE9F04196
:102300000026040007D140F2E262AFF2AC41AFF226
:10231000944000F00FFE00F04CFD5020EFF31185CB
:1023200080F31188BFF34F8FBFF36F8F2046FFF705
:102330008AFFE8B1E14F386B18B104F11801E048A9
:1023400014E0E06A3968C96A884200D30126201D7A
:10235000FEF716FFE06A01213A69814011433961B5
:10236000D84900EB800001EB8000211DFEF7E4FE60
:1023700085F311883046E1E4D24E4FF08054CE4DC3
:1023800000F030FB30680128FAD92C60BFF34F8F82
:10239000BFF36F8FF4E710B586B00024039405AA4D
:1023A00004A903A80494FEF7F6FCDDE903010094F8
:1023B000CDE901100023C4A1C548059AFFF7EAFB47
:1023C000BE490028C86211D0502080F31188BFF3A5
:1023D0004F8FBFF36F8F4FF0FF308862012048614D
:1023E000CC6006B0BDE8104000F062BC06B010BD85
:1023F000502080F31188BFF34F8FBFF36F8FAF4929
:102400000020486100F08ABCAC48C068704710B535
:1024100000F0CFFCA948C06810BDA848806870478C
:1024200010B510B104461CB10AE0A4480468FAE7EC
:1024300040F68C02AFF2D851AFF2C05000F07AFDF6
:1024400004F1340010BD70B50D46040007D140F60C
:102450000632AFF2F451AFF2DC5000F06BFD97485A
:10246000016820461831FEF773FE2846BDE870402B
:1024700001212CE52DE9F04117460E46050007D154
:1024800040F61732AFF22861AFF2106000F052FD53
:102490008A4C206B38B940F61B32AFF23C61AFF288
:1024A000246000F047FD216846F000408861216803
:1024B00028461831FEF740FE3846BDE8F0410121BC
:1024C00005E52DE9F041C068C4683CB940F66132C9
:1024D000AFF27461AFF25C6000F02CFD04F1180003
:1024E0000746FEF74DFE754D286B012658B139465B
:1024F0007348FEF721FEE06A2968C96A884212D94A
:102500000120EE611AE4201DFEF73AFEE06A2A6916
:1025100006FA00F1114329616A4900EB800001EBE2
:102520008000211DE5E7002008E470B5634D0646F4
:102530000C46286B38B940F69932AFF2DC61AFF245
:10254000C46000F0F7FC44F000403060F4683CB92F
:1025500040F6A132AFF2F861AFF2E06000F0EAFCC1
:102560003046FEF70DFE201DFEF70AFEE06A01264A
:102570002A6906FA00F111432961524900EB8000F3
:1025800001EB8000211DFEF7D7FDE06A2968C96ACA
:10259000884202D90120EE6170BD002070BD10B5E7
:1025A000040007D140F6C132AFF24C71AFF2347083
:1025B00000F0C0FC4148016A2160C068606010BD45
:1025C00070B50D46040007D140F6CB32AFF2707102
:1025D000AFF2587000F0AEFC3DB940F6CC32AFF22D
:1025E0008071AFF2687000F0A5FC00F0A3FB334AE5
:1025F000D06829684B1C0FD02368126A934202D01E
:10260000626882420AD96268801A884206D2081A31
:1026100028602046FFF7C3FF002400E0012400F0FB
:10262000A3FB204670BD25490120C861704723489F
:10263000416919B1006B18B1002070470120704743
:10264000022070471D4908680A688069D26A0968D3
:10265000C2F120028A61704770B50C46064600F050
:1026600069FB164D2868406C80B92968012081F803
:1026700048005CB101212046FFF729FC0E494FF0CC
:1026800080500860BFF34F8FBFF36F8F00F06CFB7B
:1026900000F050FB2868446C002034B116B1296862
:1026A000486402E02A68611E5164296881F8480084
:1026B00000F05AFB204670BD04ED00E03800002019
:1026C000E00500203803002049444C45000000008C
:1026D000792300082DE9F0411E4615468846074635
:1026E00000F028FBD24C206890F84800022814D053
:1026F0002068416CB94341642168012081F8480099
:102700005EB101213046FFF7E2FBCA494FF080502D
:102710000860BFF34F8FBFF36F8F00F025FB00F011
:1027200009FB15B12068406C2860206890F84800CB
:1027300001280DD02068416C21EA0801416401257F
:102740002168002081F8480000F00EFB284639E49B
:102750000025F5E72DE9F0411F4690460D4604009F
:102760004FF0010607D141F2FD02AFF60C11AFF6B2
:10277000F40000F0DFFB00F0DDFA0FB1606C3860B0
:1027800094F84800022184F84810B8F1050F0ED2E1
:10279000DFE808F00D03060C0A00616C294301E034
:1027A000616C491C616402E0022803D06564012861
:1027B00002D02AE0002628E0201DFEF7E1FC9C4D17
:1027C000E06A01212A698140114329619A4900EB9D
:1027D000800001EB8000211DFEF7AEFCA06A38B13D
:1027E00041F23512AFF68811AFF6701000F0A2FB7F
:1027F000E06A2968C96A884207D98E494FF080503B
:102800000860BFF34F8FBFF36F8F00F0ADFA304613
:10281000B1E52DE9F0471F46DDF8209092460D46C0
:1028200004004FF0010807D141F26812AFF6D01151
:10283000AFF6B81000F07EFB00F0BBFA5020EFF3CB
:10284000118680F31188BFF34F8FBFF36F8F0FB1E5
:10285000606C386094F84800022184F84810BAF19E
:10286000050F0ED2DFE80AF00D03060C0A00616CBA
:10287000294301E0616C491C616402E0022803D035
:102880006564012803D031E04FF000082EE0A06A13
:1028900038B141F2AF12AFF63821AFF6202000F088
:1028A00049FB634D286B012778B104F11801634897
:1028B000FEF742FCE06A2968C96A884216D9B9F174
:1028C000000F12D0C9F8007010E0201DFEF758FC70
:1028D000E06A2A6907FA00F11143296100EB8001DF
:1028E000554800EB8100211DE2E7EF6186F3118876
:1028F0004046BDE8F0872DE9F0418846040007D145
:1029000041F2E312AFF6A821AFF6902000F012FBDF
:1029100000F04FFA5020EFF3118780F31188BFF3D6
:102920004F8FBFF36F8F94F84800022184F848104E
:10293000616C491C616401282ED1A06A38B141F252
:102940000922AFF6E421AFF6CC2000F0F3FA384DBF
:10295000286B012678B104F118013848FEF7ECFB2A
:10296000E06A2968C96A884216D9B8F1000F12D006
:10297000C8F8006010E0201DFEF702FCE06A2A693A
:1029800006FA00F1114329612B4900EB800001EBAD
:102990008000211DE2E7EE6187F31188EBE410B5BA
:1029A00058B1044600F0C6F994F84800022807D050
:1029B000002400F0D9F9204610BD1D480468F1E755
:1029C000002084F848000124F3E71948416B0968A6
:1029D00029B1416BC968C9684968816270474FF085
:1029E000FF31FAE770B5154E114D14361CE0FFF7B4
:1029F000A0FA306820B10024FFF7F0F9A4B901E093
:102A00000124F9E700F096F9F068C468201DFEF78C
:102A1000B7FBA868401EA8606868401E686000F0A8
:102A2000A3F92046FFF716F968680028DFD142E6CF
:102A30003800002004ED00E038030020E00500200D
:102A400030B5744900E011460A688242FBD34B68F6
:102A50005C18844203D140681844486008464368C3
:102A60001C18944209D16B4C103C2468A24209D036
:102A700052681A4442600A6812680260814200D0BB
:102A8000086030BD0460F9E72DE9F04105460026F5
:102A9000FFF74FFA5F4F103F386808B900F098F819
:102AA000F86805424ED1002D4CD0083568070BD090
:102AB00005F00700C0F108000544680704D0BF22F4
:102AC00055A15FA000F036FA002D3BD07868854212
:102AD00038D850490846046801E021460446606839
:102AE000A84202D220680028F7D13868B84684424C
:102AF00028D00E682068086060680836401B1028DF
:102B00000ED96719780704D0EC2243A14CA000F03D
:102B100011FA6068401B786038466560FFF790FFE7
:102B20006168D8F804004246401AC8F80400D8F892
:102B30000830984200D29060D8F80C000143002081
:102B4000C4E90001FFF74AF9700705D04FF4967207
:102B500031A13BA000F0EEF93046BDE8F08170B540
:102B600000282BD02B4DA0F10804103D6068E968C7
:102B7000084205D14FF4A07227A131A000F0DAF984
:102B8000206828B140F2411223A12DA000F0D2F913
:102B90006068E968084211D02268002A0ED1884393
:102BA0006060FFF7C6F9606869680844686020469D
:102BB000FFF746FFBDE87040FFF710B970BD15483C
:102BC0001038406870471348103880687047704765
:102BD0001F484FF41041420706D0C01D1C4920F089
:102BE0000700411AC1F510410A4A00230144C2E915
:102BF00000030839103A21F0070111604B600B60A7
:102C00000B1AC0E9001393604FF000405360D0608E
:102C100070470000840000202E2E5C2E2E5C467231
:102C2000656552544F535C706F72745C4D656D4DA9
:102C3000616E675C686561705F342E630000000040
:102C40004572726F723A25732C25640D0A000000DC
:102C50001C06002069484068401C04D0F42268A18A
:102C600071A000F067F9502080F31188BFF34F8FF7
:102C7000BFF36F8FFEE710B5031F4FF080741C6029
:102C80001B1F21F001011960191F6B4B0B601439D8
:102C900040380A6010BD69484FF47A710068B0FB93
:102CA000F1F14FF0E020491E4161072101617047B9
:102CB0001CB5634908780190FF20087008788DF8EA
:102CC00000009DF800004D4A00F0500010700720F1
:102CD000906007E09068401E90609DF80000400002
:102CE0008DF800009DF800000006F3D4107A000271
:102CF00000F4E0609060019808705248016841F467
:102D000070010160016841F070410160FFF7C3FF8D
:102D100000205060FDF728FA00201CBD37484068AD
:102D2000B0F57A7F05D04FF4B57235A13EA000F022
:102D300001B97047502080F31188BFF34F8FBFF364
:102D40006F8F2E494868401C486001280BD13D48D0
:102D50001C38006810F0FF0F05D04FF4BD7228A199
:102D600031A000F0E7B8704710B5244C606828B96E
:102D700040F2811222A12CA000F0DCF86068401E15
:102D8000606001D180F3118810BD10B5502080F330
:102D90001188BFF34F8FBFF36F8FFEF7C2FF20B1D3
:102DA00028494FF080501C390860002080F31188BA
:102DB00010BD10B5FDF70EFA104C10280CD300F121
:102DC000E02090F8F0032178884205D24FF42A726F
:102DD0000BA115A000F0AEF81A4814380068A168DD
:102DE00000F4E060884207D9BDE810404FF42E722D
:102DF00003A10DA000F09EB810BD00008C000020C3
:102E00002E2E5C2E2E5C4672656552544F535C70BC
:102E10006F72745C525644535C41524D5F434D3364
:102E20005C706F72742E63004572726F723A257314
:102E30002C25640D0A000000552C0008000000201D
:102E400000E400E020ED00E040EA01039B0703D02E
:102E500009E008C9121F08C0042AFAD203E011F8D9
:102E6000013B00F8013B521EF9D270472DE9F05F9B
:102E70000546002092469B468846064681464024E9
:102E80001BE0284641464746224600F042F853469A
:102E90005A46C01A914110D311461846224600F0F6
:102EA00029F82D1A67EB01084F4622460120002120
:102EB00000F020F817EB00094E41201EA4F1010498
:102EC000DFDC484631462A464346BDE8F09F000015
:102ED000064C074D06E0E06840F0010394E8070067
:102EE00098471034AC42F6D3FDF726F93432000887
:102EF00054320008202A04DB203A00FA02F10020B4
:102F000070479140C2F1200320FA03F31943904027
:102F10007047202A04DB203A21FA02F00021704792
:102F200021FA02F3D040C2F1200291400843194631
:102F3000704700000FB4054B10B503A9044A02986E
:102F400000F018F810BC5DF814FB000081100008B8
:102F50009800002002E008C8121F08C1002AFAD118
:102F600070477047002001E001C1121F002AFBD109
:102F7000704700002DE9FF4F8DB09B460F46044679
:102F8000002606E025280BD05A460F999047641C6E
:102F9000761C20780028F5D111B03046BDE8F08FBE
:102FA0000025A8460122984900E0054314F8013F96
:102FB000203B02FA03F00842F7D120782E2817D1DF
:102FC00014F8010F45F004052A280ED06FF02F02E7
:102FD0002078A0F1300109290AD808EB880102EB1A
:102FE000410100EB0108641CF2E757F8048B641CF4
:102FF00020786C280DD004DC4C2812D06A2811D11E
:1030000004E074280DD07A280CD10AE045F40015AC
:1030100007E0617845F48015814202D1641C05F512
:103020008015641C2278692A45D008DC002AB3D0B8
:10303000582A69D0632A10D0642A08D13BE0702A4C
:1030400067D0732A13D0752A5CD0782A5CD01046DA
:103050005A460F999047761CD3E017F8040B8DF869
:10306000000000208DF80100E946012003E057F838
:10307000049B4FF0FF3069074FF0000501D40AE0D0
:103080006D1C45450DDA8542FADB19F8051000295B
:10309000F6D106E06D1C8542FCDB19F8051000290D
:1030A000F8D12E4404E019F8010B5A460F999047C5
:1030B0006D1EF8D2A5E00A200021CDE90801C5F374
:1030C000025002280DD001CFC117031E71F1000379
:1030D0000DDA4FF0000CD0EB0C006CEB01012D234E
:1030E00008E0FF1D27F00707F7E80201EDE72B05D1
:1030F00004D52B238DF8283001233BE0EB0739D092
:103100002023F7E70A2000E010200021CDE9080184
:1031100007E01020002145F00405CDE908014FF03B
:103120000808C5F3025002280FD001CF00214FF04C
:10313000000A2B071FD5702A0DD0DDE908C38CF0DB
:10314000100C5CEA030C0CD015E0FF1D27F00707FC
:10315000F7E80201EBE740228DF828204FF0010A42
:103160000BE050EA010306D030238DF828308DF8AB
:10317000292002239A46582A04D024A20DF12009BE
:103180000B9209E026A2F9E7DDE90823FFF76EFEBE
:103190000B9B9B5C09F8013D50EA0102F4D1ADEBB9
:1031A000090020300890680701D44FF00108089901
:1031B000884502DDA8EB010000E0002080460025E4
:1031C00006E00AA85A46405D0F9990476D1C761C90
:1031D0005545F6DB04E030205A460F999047761C9F
:1031E000B8F10001A8F10108F5DC05E019F8010BC0
:1031F0005A460F999047761C0899481E0890002956
:10320000F4DC641CC5E600000928010030313233CB
:103210003435363738396162636465660000000012
:1032200030313233343536373839414243444546FC
:103230000000000054320008000000209C00000044
:10324000542F0008F03200089C00002084990000F0
:10325000642F000800A24A040000000000000000E3
:103260000102030406070809020406080000000022
:10327000010203040102030406070809000000001C
:10328000000000000000000000000000000000003E
:10329000000000000000000000000000000000002E
:1032A000000000000000000000000000000000001E
:1032B000000000000000000000000000000000000E
:1032C00000000000000000000000000000000000FE
:1032D00000000000000000000000000000000000EE
:1032E00000000000AAAAAAAA000000000000000036
:0400000508000131BD
:00000001FF
